:100000000C94FA020C942B030C942B030C942B03EA
:100010000C942B030C942B030C942B030C942B03A8
:100020000C942B030C942B030C942B030C942B0398
:100030000C942B030C942B030C942B030C942B0388
:100040000C942B030C942B030C942B030C942B0378
:100050000C942B030C942B030C942B030C94211A5B
:100060000C942B030C94951A0C946B1A0C942B0380
:100070000C942B030C942B030C942B030C942B0348
:100080000C942B030C942B030C942B030C942B0338
:100090000C942B030C942B030C942B030C942B0328
:1000A0000C942B030C942B030C942B030C942B0318
:1000B0000C942B030C942B030C942B030C942B0308
:1000C0000C942B030C942B030C942B030C942B03F8
:1000D0000C942B030C942B030C942B030C942B03E8
:1000E0000C942B030C948E0D0C94FD0A0C94F803C5
:1000F0000C94C5060C94CE060C9484190C948E0AAC
:100100000C94D8030C94C60A0C94AA0A0C94C80642
:100110000C94C7030C9480060C9452050C94482F41
:100120000C94FE030C94AD070C9486060C94A60662
:100130000C94E90A0C94F0030C94F3070C94C30399
:100140000C94E2030C948F060C94D2030C94560585
:100150000C94C2060C94920D0C94F30A0C94D106E4
:100160000C94850E0C94110B0C94840A0C944A0583
:100170000C944C050C94EA030C94CB1A0C9489064D
:100180000C94A20A0C94580E0C945D070C948306F0
:100190000C94CB030C94BB070C9499070C94540556
:1001A0000C94F4120C94D20F0C948A070C94DC0378
:1001B0000C94BC0A0C9454060C94FD030C94D00AC5
:1001C0000C94070B0C94E6030C9492060C948C068A
:1001D0000C94790E0C9450050C9440080C94990ED4
:1001E0000C94DF0A0C94D70F0C94CB060C947F0A66
:1001F0000C94F4030C9402040C947A0A0C94BD033E
:100200000C94CF030C944E050C94B20A0C94980AEB
:10021000554E4B4E4F574E20434F4D4D414E44008F
:100220004144442C31342C4547545F4F4646534596
:10023000542C5331362C52572C454754204F666668
:100240007365742C43656C7369757320646567729C
:100250006565732066726F6D202D313030302074EB
:100260006F20313030302C504552534953543D317A
:10027000004144442C31332C5649525455414C5F73
:10028000504F5745522C55382C52572C5669727482
:1002900075616C20506F7765722C4F5645524845FA
:1002A0004144207669727475616C20706F77657255
:1002B0002030206F7220312C504552534953543D09
:1002C00031004144442C31322C4241434B4C49478C
:1002D00048545F4252492C55382C52572C42616386
:1002E0006B6C69676874204272696768746E6573C5
:1002F000732C4F766572686561642070616E656C01
:10030000206261636B6C69676874206272696768F8
:10031000746E6573732066726F6D203020746F2069
:100320003235352C504552534953543D31004144E8
:10033000442C31312C444953504C41595F4252496D
:100340002C55382C52572C446973706C617973208A
:100350004272696768746E6573732C566F6C746D46
:100360006574657273206469676974732062726969
:100370006768746E6573732066726F6D20302074C9
:100380006F2031352C504552534953543D31005064
:100390004F4E470053544154455343414E0053542C
:1003A0004154455343414E00414C4C4F574C4F43F1
:1003B000414C3D31005049443D4346543733374F5B
:1003C0005648434F4D50414354005649443D314CEB
:1003D000325000415554484F523D33363062383127
:1003E00032656631306433336535343537656537AA
:1003F0006234313238343533366600434654203760
:100400003337204F564820434F4D50414354007BD3
:1004100036613061303562392D613734312D3431F8
:1004200039322D383563352D303461383433383531
:10043000303034627D0053504144004154544143B4
:1004400048494E472043414C4C4241434B532100C5
:1004500000002100240027002A002D003000330076
:1004600001010000040107010A010000220025002B
:1004700028002B002E00310034000201000005018D
:1004800008010B01000020002300260029002C0099
:100490002F003200000100000301060109010505DB
:1004A0000505070508080808020202020A0A0808EA
:1004B0000404040401010101010101010303030318
:1004C00003030303040707070C0C0C0C0C0C0C0CA7
:1004D0000202020206060606060606060B0B0B0BB8
:1004E0000B0B0B0B010210202008081020401020DD
:1004F00040800201020108040201010204081020E8
:1005000040808040201008040201800402018040E5
:10051000201008040201080402010102040810204E
:100520004080010204081020408000000A0B0209EC
:100530000C0D0E080703040100000000000000007D
:1005400000000000000000000000000000000000AB
:100550000000000000001211100000000000000068
:10056000000000000000000000000000000000008B
:100570007E306D79335B5F707F7B771F0D3D4F471A
:10058000000000000000000000000000000000006B
:10059000000000000000000000000000800180005A
:1005A0007E306D79335B5F707F7B00000000000060
:1005B00000771F0D3D4F4700370000000E00000080
:1005C00067000000000000000000000000000008BC
:1005D00000771F0D3D4F4700370000000E00151D2E
:1005E00067000000000000000000000000000000A4
:1005F000CB1A482F11241FBECFEFD1E2DEBFCDBFF3
:1006000000E00CBF2EE0ACEEB2E001C01D92A936B6
:10061000B207E1F712E0A0E0B2E0E8EAFDE600E0B0
:100620000BBF02C007900D92AC3EB107D9F712E0A4
:10063000C9EFD2E000E006C021970109802FFE013A
:100640000E949F31C83FD10780E00807A9F70E94A8
:100650009D270C94C2360C940000AC011092A20BA2
:100660009091F20D8091F10DFA01BF01641B750BA1
:100670002091A20B30813093A20B931304C09213EC
:1006800002C01092A20B3081311104C0921721F0E8
:10069000CB0108953817D1F33196E7CF0F931F930D
:1006A000CF93DF938091E60D882309F446C0D0E014
:1006B000C0E0813029F482E08093E60DC6EADBE0F9
:1006C0008091E70D882341F1209721F4C091EB0D33
:1006D000D091EC0D8E01CE010E942D03892B29F4BF
:1006E0002196F80180818111F5CFF801808188235E
:1006F00009F1C8010E942D03F801E80FF91F80815C
:10070000882311F010823196F093EC0DE093EB0DFD
:100710001093EA0D0093E90D8091E90D9091EA0D97
:10072000892B59F081E08093E70DDF91CF911F91E4
:100730000F91089510E000E0EBCF80E0F6CF8150FC
:10074000823108F05AC0E82FF0E08827E555FC4FC9
:100750008F4F0C949F31CB03CF03BD03C303C7035B
:10076000FD03D203D803DC03E203E603EA03F0034C
:10077000F403FD03F803FE030204809180008F77E9
:10078000809380000895809180008F7DF9CF8091C3
:100790008000877FF5CF84B58F7784BD089584B5B9
:1007A0008F7DFBCF8091B0008F778093B00008954C
:1007B0008091B0008F7DF9CF809190008F778093EA
:1007C00090000895809190008F7DF9CF80919000E6
:1007D000877FF5CF8091A0008F778093A000089548
:1007E0008091A0008F7DF9CF8091A000877FF5CF09
:1007F000809120018F7780932001089580912001BE
:100800008F7DF9CF80912001877FF5CFCF93DF9344
:10081000282F30E0F901E65DFA4F8491F901EC519F
:10082000FB4FD491F901E256FB4FC491CC23A1F0C8
:1008300081110E949F03EC2FF0E0EE0FFF1FEC5799
:10084000FB4FA591B491EC91ED2381E090E009F488
:1008500080E0DF91CF91089580E090E0FACF1F9380
:10086000CF93DF93282F30E0F901E65DFA4F8491B2
:10087000F901EC51FB4FD491F901E256FB4FC491C1
:10088000CC23A9F0162F81110E949F03EC2FF0E0DA
:10089000EE0FFF1FE659FB4FA591B4918FB7F89467
:1008A000EC91111108C0D095DE23DC938FBFDF914E
:1008B000CF911F910895DE2BF8CFCF93DF93CEE237
:1008C000D3E060E08A810E942F0460E08C810E9466
:1008D0002F0460E08E810E942F0461E088850E94D1
:1008E0002F0481E090E099838883DF91CF91089570
:1008F000CF93DF93CEE2D3E060E08A810E942F04A1
:1009000060E08C810E942F0461E08E810E942F04A0
:1009100061E088850E942F0482E090E099838883BB
:10092000DF91CF910895CF93DF93CEE2D3E060E0E3
:100930008A810E942F0460E08C810E942F0461E074
:100940008E810E942F0460E088850E942F0483E03E
:1009500090E099838883DF91CF910895CF93DF93BF
:10096000CEE2D3E060E08A810E942F0461E08C81B6
:100970000E942F0461E08E810E942F0460E0888530
:100980000E942F0484E090E099838883DF91CF91C7
:100990000895CF93DF93CEE2D3E060E08A810E9496
:1009A0002F0461E08C810E942F0460E08E810E9400
:1009B0002F0460E088850E942F0485E090E09983F1
:1009C0008883DF91CF910895CF93DF93CEE2D3E078
:1009D00061E08A810E942F0461E08C810E942F04D3
:1009E00060E08E810E942F0460E088850E942F04C1
:1009F00086E090E099838883DF91CF910895CF932B
:100A0000DF93CEE2D3E061E08A810E942F0460E0B0
:100A10008C810E942F0460E08E810E942F0460E090
:100A200088850E942F0487E090E099838883DF9176
:100A3000CF910895CF93DF93CEE2D3E061E08A8136
:100A40000E942F0460E08C810E942F0460E08E8160
:100A50000E942F0461E088850E942F041982188269
:100A6000DF91CF910895E0912E03F0912F033197FC
:100A7000E730F10568F48827EF5BFA4F8F4F0C944D
:100A80009F314A054C054E05500552055405560543
:100A90000C941A050C945D040C9478040C94930443
:100AA0000C94AE040C94C9040C94E4040C94FF045C
:100AB000CF93DF93EC010E94330580913A0390912C
:100AC0003B039E01281B390BC90130933D03209342
:100AD0003C032091380330913903BC0197FF04C0D7
:100AE00066277727681B790BA90137FF02C04F5F84
:100AF0005F4F55954795461757074CF4181619063A
:100B00004CF4821B930B90933D0380933C03DF9145
:100B1000CF910895820F931FF6CFCF93DF93CEE24C
:100B2000D3E01F861E8660E08A810E942F0460E069
:100B30008C810E942F0460E08E810E942F0460E06F
:100B40008885DF91CF910C942F04CF93DF9390E0B1
:100B5000FC01EC51FB4F249182569B4FFC01849188
:100B60008823C9F090E0880F991FFC01E05BFB4FE0
:100B7000A591B491FC01E659FB4FC591D491611147
:100B80000DC09FB7F8948C91209582238C93888117
:100B9000282328839FBFDF91CF910895623051F4BD
:100BA0009FB7F8943C91822F809583238C93E881A2
:100BB0002E2BEFCF8FB7F894EC912E2B2C938FBF69
:100BC000EACF3FB7F89480912A0390912B03A0912C
:100BD0002C03B0912D0326B5A89B05C02F3F19F01B
:100BE0000196A11DB11D3FBFBA2FA92F982F8827AD
:100BF000BC01CD01620F711D811D911D42E0660F88
:100C0000771F881F991F4A95D1F70895CF92DF92D9
:100C1000EF92FF9280913C0390913D03892B31F438
:100C200081E0FF90EF90DF90CF9008950E94E10562
:100C30006B017C018091420390914303A091440396
:100C4000B0914503B701A601481B590B6A0B7B0BFA
:100C500080913E0390913F03A0914003B0914103E6
:100C6000481759076A077B0708F449C0E0912E032B
:100C7000F0912F0380913C0390913D0318161906C3
:100C80000CF053C0E830F10508F03AC08827E45B67
:100C9000F94F8F4F0C949F315406800683068606C9
:100CA00089068C068F0692060E94FF0480913A0303
:100CB00090913B03019690933B0380933A032091DC
:100CC0003803309139038217930721F410923B03C4
:100CD00010923A0380913C0390913D0301979093C9
:100CE0003D0380933C03892B11F40E948D05C09233
:100CF0004203D0924303E0924403F092450391CF24
:100D00000E941A05D3CF0E945D04D0CF0E947804C0
:100D1000CDCF0E949304CACF0E94AE04C7CF0E94D9
:100D2000C904C4CF0E94E404C1CFE730F10508F044
:100D30003BC08827E156F94F8F4F0C949F31A60690
:100D4000C206C506C806CB06CE06D1060E945D04C3
:100D500080913A0390913B03019790933B038093DA
:100D60003A0397FF09C080913803909139030197A6
:100D700090933B0380933A0380913C0390913D0311
:100D80000196ADCF0E947804E3CF0E949304E0CF98
:100D90000E94AE04DDCF0E94C904DACF0E94E404B1
:100DA000D7CF0E94FF04D4CF0E941A05D1CF8F92D3
:100DB0009F92AF92BF92CF92DF92EF92FF926B0120
:100DC0007C010E94E1054B015C01C114D104E104E6
:100DD000F104B9F00E94E105681979098A099B09B3
:100DE000683E73408105910580F321E0C21AD10865
:100DF000E108F10888EE880E83E0981EA11CB11C62
:100E0000E4CFFF90EF90DF90CF90BF90AF909F9096
:100E10008F9008952FB7F89460912603709127035F
:100E200080912803909129032FBF0895FC0124810C
:100E300035816217730720F480819181009729F42E
:100E40001092EC028CEE92E00895860F971F0895A1
:100E5000DC01ED91FC910190F081E02D1994EF926D
:100E6000FF920F931F93CF93DF9320919D0B22232B
:100E7000E9F08C016091F10D8091EE0D9091EF0DF4
:100E80000E942807E090EE0DF090EF0DE801FE01C2
:100E90006491662359F0D701ED91FC910190F081A6
:100EA000E02DC70119952196892B89F7DF91CF9104
:100EB0001F910F91FF90EF900895AF92BF92CF9244
:100EC000DF92EF92FF920F931F93CF93DF936C010A
:100ED0007B018B01040F151FEB015E01AE18BF08EB
:100EE000C017D10759F06991D601ED91FC9101909D
:100EF000F081E02DC6011995892B79F7C501DF91A5
:100F0000CF911F910F91FF90EF90DF90CF90BF9006
:100F1000AF900895FC01538D448D252F30E0842F30
:100F200090E0821B930B541710F0CF960895019711
:100F30000895FC01918D828D981761F0A28DAE0FFE
:100F4000BF2FB11D5D968C91928D9F5F9F73928F85
:100F500090E008958FEF9FEF0895FC01918D828DB1
:100F6000981731F0828DE80FF11D858D90E008957E
:100F70008FEF9FEF0895FC01918D228D892F90E0D6
:100F8000805C9F4F821B91098F739927089580E0A1
:100F90009BE00E94BB0721E0892B09F420E0822F0F
:100FA0000895FC01A48DA80FB92FB11DA35ABF4FFE
:100FB0002C91848D90E001968F739927848FA68958
:100FC000B7892C93A089B1898C91837080648C93AC
:100FD000938D848D981306C00288F389E02D80815B
:100FE0008F7D80830895EF92FF920F931F93CF938D
:100FF000DF93EC0181E0888F9B8D8C8D98131AC054
:10100000E889F989808185FF15C09FB7F894EE893A
:10101000FF896083E889F989808183708064808397
:101020009FBF81E090E0DF91CF911F910F91FF90E2
:10103000EF900895F62E0B8D10E00F5F1F4F0F738A
:101040001127E02E8C8D8E110CC00FB607FCFACF45
:10105000E889F989808185FFF5CFCE010E94D1070B
:10106000F1CFEB8DEC0FFD2FF11DE35AFF4FF08216
:101070009FB7F8940B8FEA89FB8980818062CFCF7C
:10108000CF93DF93EC01888D8823B9F0AA89BB89BF
:10109000E889F9898C9185FD03C0808186FD0DC0AA
:1010A0000FB607FCF7CF8C9185FFF2CF808185FFCB
:1010B000EDCFCE010E94D107E9CFDF91CF91089506
:1010C00080E090E0892B29F00E94C70781110E94DF
:1010D000000080E090E0892B49F080E090E0892BCF
:1010E00029F00E94000081110E94000080E090E041
:1010F000892B49F080E090E0892B29F00E940000C4
:1011000081110E94000080E090E0892B49F080E08E
:1011100090E0892B29F00E94000081110C940000BE
:1011200008950F931F93CF93DF93EC01862F042F25
:10113000122F688361E00E94A5050A8360E0802F7A
:101140000E94A5051B8361E0812FDF91CF911F9144
:101150000F910C94A505CF92DF92EF92FF920F931F
:101160001F93CF93DF93EC018B859C85AD85BE8566
:101170008F839887A987BA8760E088810E942F04AF
:101180008E8190E08230910538F0880F991F880F8A
:10119000991F05970197F1F761E088810E942F045C
:1011A00010E000E0C12CD12C76018C819D810817C4
:1011B000190778F58A810E940604092E000CAA0BF3
:1011C000BB0B2C813D8121503109201B310B04C008
:1011D000880F991FAA1FBB1F2A95D2F7C82AD92AA0
:1011E000EA2AFB2A61E08B810E942F048E8190E025
:1011F0008230910538F0880F991F880F991F059745
:101200000197F1F760E08B810E942F040F5F1F4F61
:10121000CCCFCB86DC86ED86FE8681E04F8158857B
:1012200069857A854C155D056E057F0509F480E0BA
:10123000DF91CF911F910F91FF90EF90DF90CF90B2
:1012400008958EE580937C0062E070E080E090E09D
:101250000E94D70680917A00806480937A00809102
:101260007A0086FDFCCF809178002091790030E0F3
:10127000322F2227032E000C440B550B282B64EB36
:101280007BE281E190E00E948031CA01B9010895BA
:101290006091020270910302680F791F072E000C03
:1012A000880B990B0E940B3024E13EEA47E250E4A0
:1012B0000E9446300E9414312091EF023091F002DA
:1012C000C901860F971F97FD905F60E070E10E9453
:1012D0004A31811520E1920710F40C9458050895C5
:1012E0008F929F92AF92BF92CF92DF92EF92FF9236
:1012F000CF93DF93EC010E940A076B017C012097DA
:10130000B1F48091ED029091EE02892BA1F08091D1
:101310003C0390913D03892B11F00E948D05CE0175
:101320000E944809D0930102C09300029FC0C931B6
:101330002CEFD20761F70E940A074B015C01CAE05B
:10134000D0E080913C0390913D03892B21F1809165
:101350003C0390913D03892B31F40E943305D093D7
:101360003D03C0933C030E9406060E940A076819C9
:1013700079098A099B096D3D75408105910580F4C5
:1013800087E10E940604892BE1F686E10E940604AB
:10139000892BB9F605C08DE20E940604892BB9F2AB
:1013A0000E94330584E690E090933D0380933C03D4
:1013B00080913C0390913D03892B69F00E940606C1
:1013C0000E940A076C197D098E099F096D3D7540C1
:1013D0008105910568F30E940A076B017C01C6EF45
:1013E000DFEF80913C0390913D03892B21F18091A7
:1013F0003C0390913D03892B31F40E943305D09337
:101400003D03C0933C030E9406060E940A076C1924
:101410007D098E099F09693873418105910580F422
:1014200087E10E940604892BE1F686E10E9406040A
:10143000892BB9F605C08DE20E9406040197B9F226
:1014400080913A0390913B039093F0028093EF02D6
:10145000109201021092000290E080E00E94480980
:1014600081E090E09093EE028093ED02DF91CF91C6
:10147000FF90EF90DF90CF90BF90AF909F908F90B4
:101480000895CF93DF93EC0161E083E00E94A5050E
:10149000209759F460E083E00E942F04D093F20279
:1014A000C093F102DF91CF910895CF3FD10511F4A0
:1014B00061E0F1CFEDE2F5E0E491E150E23108F0D6
:1014C000B0C0F0E08827E859F54F8F4F0C949F315A
:1014D0007A0A7F0A840A8E0A980A110BA20AAA0ABB
:1014E000B20ABC0AC60AD00ADF0AE90A110BF30ADB
:1014F000FD0A070B84B5806884BDC7BDCFCF84B516
:10150000806284BDC8BDCACF80918000806880930E
:101510008000D0938900C0938800C0CF8091800064
:10152000806280938000D0938B00C0938A00B6CFF6
:1015300080918000886080938000D0938D00C0935C
:101540008C00ACCF8091B00080688093B000C093D5
:10155000B300A4CF8091B00080628093B000C093AC
:10156000B4009CCF80919000806880939000D093CD
:101570009900C093980092CF8091900080628093F0
:101580009000D0939B00C0939A0088CF80919000E8
:10159000886080939000D0939D00C0939C007ECF84
:1015A0008091A00080688093A0008091A0008F7B34
:1015B0008093A000D093A900C093A8006FCF809122
:1015C000A00080628093A000D093AB00C093AA00DB
:1015D00065CF8091A00088608093A000D093AD007B
:1015E000C093AC005BCF8091200180688093200184
:1015F000D0932901C093280151CF809120018062AE
:1016000080932001D0932B01C0932A0147CF809172
:101610002001886080932001D0932D01C0932C017C
:101620003DCFC038D1050CF043CF34CF2DE0289FFB
:10163000F001299FF00D1124EF57FB4F808181119C
:1016400009C081810E94060421E0892B09F420E071
:10165000822F0895813099F42181809131049091F5
:101660003204A0913304B091340404C0B695A79518
:10167000979587952A95D2F7282F2170E9CF823048
:1016800051F421818091220490912304A09124049B
:10169000B0912504EACF21E08330D1F621818091F9
:1016A000130490911404A0911504B0911604DDCF99
:1016B0000F931F93CF93DF93EC01062F142F62E05B
:1016C000802F0E94A50562E0812F0E94A505602F52
:1016D00070E0FB01E256FB4FE491F0E0EE0FFF1FDC
:1016E000EC57FB4FA591B491B983A8836C517B4F04
:1016F000FB0164916C83812F90E0FC01E256FB4F6B
:10170000E491F0E0EE0FFF1FEC57FB4F2591349171
:101710003B832A838C519B4FFC0184918D831F82D4
:10172000188619861A86EBE3FFE13197F1F7EC9101
:10173000E62391E009F490E0D901EC918E2309F0C1
:1017400092609E83DF91CF911F910F9108950F9327
:101750001F93CF93DF93082F162FD42FC8E06D2F40
:10176000661F6627661F802F0E942F04DD0F61E031
:10177000812F0E942F0460E0812F0E942F04C1500E
:1017800071F7DF91CF911F910F9108958F929F92E2
:10179000AF92BF92CF92DF92EF92FF920F931F937F
:1017A000CF93DF931F921F92CDB7DEB78C01498391
:1017B0002A83660F771FF801EA5AFF4FE080F18015
:1017C000EE0CFF1CF801CF01801B910B8E159F05BD
:1017D00014F41192F8CF8981F801E60FF71F818385
:1017E0008A818083680184E5C80ED11C60E0F6011F
:1017F00080810E942F044801F2E58F0E911C580150
:1018000080E5A80EB11C1E141F0474F4E1E0EE1A6A
:10181000F108F801EE0DFF1D4081F4016081F50132
:1018200080810E94A70BEFCF61E0F60180810F90CD
:101830000F90DF91CF911F910F91FF90EF90DF906C
:10184000CF90BF90AF909F908F900C942F04E42F77
:10185000DC01AA5ABF4F4D915C9114161506B4F4E1
:10186000E7FDE0E20E2E000CFF0BE059FA4FE49189
:101870002111E068DC01A60FB71F5096EC9341E000
:10188000460F2E2F70E060E00C94C60B0895FC010B
:10189000EA5AFF4F20813181121613064CF4603151
:1018A000710530F4262F4AE070E060E00C94C60B1E
:1018B0000895242FFC01EA5AFF4F408151811416EC
:1018C000150654F4FC01E60FF71F208B41E0460F8C
:1018D00070E060E00C94C60B0895DF92EF92FF92E7
:1018E0000F931F93CF93DF93FC01EA5AFF4F2081A0
:1018F000318162177307C4F47B018C01EB0183E033
:10190000CC0FDD1F8A95E1F76096C00FD11FDD2453
:10191000D394199220E04D2DB701C8010E94C60B47
:10192000D39489E0D812F5CFDF91CF911F910F9119
:10193000FF90EF90DF9008950F931F93CF93DF9365
:10194000EC0110E000E04D815E816F817885002E12
:1019500004C076956795579547950A94D2F76981A3
:1019600088810E94A70B085F1F4F0831110559F7A6
:1019700061E08A810E942F0460E08A810E942F0426
:101980006D817E818F819885DF91CF911F910F911D
:101990000895CF93DF9310920404109205041092DF
:1019A0000604109207048FEF93E00E949C0C1092A3
:1019B000FB031092FC031092FD031092FE0386EFCE
:1019C00093E00E949C0CCEE9D8E08881811104C08C
:1019D00060E089810E942F042D968AE0C43FD807D9
:1019E000A1F7DF91CF9108958F929F92AF92BF920E
:1019F000CF92DF92EF92FF920F931F93CF93DF93DB
:101A00008C01D62EC72EEC01C05BDF4F6883798333
:101A10004C0182E5880E911CF401518340835801EA
:101A2000F4E5AF0EB11CF501318320837801F6E5B2
:101A3000EF0EF11C81E090E0F7019183808361E07B
:101A40008D2D0E94A50561E0F40180810E94A5050D
:101A500061E0F50180810E94A50561E0F5018081CA
:101A60000E942F04D882C982F80170961192EC1757
:101A7000FD07E1F7D0E0C0E0F70180819181C81750
:101A8000D90754F520E04FE0BE01C8010E94C60B03
:101A9000F70180819181C817D90734F427E04BE022
:101AA000BE01C8010E94C60B20E049E0BE01C8018A
:101AB0000E94C60BBE01C8010E946D0CF701808117
:101AC0009181C817D90734F420E04CE0BE01C80169
:101AD0000E94C60B2196D0CFDF91CF911F910F911D
:101AE000FF90EF90DF90CF90BF90AF909F908F903E
:101AF00008950E944E03882359F081E08093E70DFA
:101B00008093E80D8091E90D9091EA0D0C94A02F3F
:101B10001092E80D60E070E0CB0108950E94790D0D
:101B20000C94790DCF92DF92EF92FF92CF93DF93D7
:101B30000E94790D6B017C010E94790DAB01BC0103
:101B4000EEE9F8E0D0E0C0E082819381092E000C3C
:101B5000AA0BBB0B8C159D05AE05BF0509F09BC0FC
:101B60008DE08C9FF0018D9FF00D1124E256F74F10
:101B7000808181112FC08181452B462B472B41F15C
:101B800061E00E942F048DE08C9FF0018D9FF00D8D
:101B90001124E256F74F8081813021F48FEF93E0DA
:101BA0000E949C0C8DE08C9FF0018D9FF00D112404
:101BB000E256F74F8081823009F073C086EF93E0E0
:101BC000DF91CF91FF90EF90DF90CF900C949C0C21
:101BD00060E0D7CF813071F5C0900404D090050447
:101BE000E0900604F0900704218181E090E0A0E0FD
:101BF000B0E004C0880F991FAA1FBB1F2A95D2F717
:101C0000452B462B472B69F08C299D29AE29BF29EE
:101C10008093040490930504A0930604B0930704F2
:101C2000B2CF80959095A095B0958C219D21AE2145
:101C3000BF21EECF823009F0A6CFC090FB03D09039
:101C4000FC03E090FD03F090FE03218181E090E031
:101C5000A0E0B0E004C0880F991FAA1FBB1F2A95FF
:101C6000D2F7452B462B472B69F08C299D29AE29AD
:101C7000BF298093FB039093FC03A093FD03B093D3
:101C8000FE0381CF80959095A095B0958C219D21E4
:101C9000AE21BF21EECF21963D96CE32D10509F07F
:101CA00053CFDF91CF91FF90EF90DF90CF900895C9
:101CB000CF92DF92EF92FF920E94790D6B017C012F
:101CC00080E1C816D104E104F10470F4B6018EE994
:101CD00093E00E94470CB60186E493E00E94470C13
:101CE000D0920502C0920402FF90EF90DF90CF9057
:101CF00008950E94790D6F3F71058105910509F0E6
:101D000018F4CB010C94410A08950E94790D672BB9
:101D1000682B692B41F461E083E00E94A50560E037
:101D200083E00C942F048091F1029091F2020C94C4
:101D3000410ACF92DF92EF92FF920E94790D6B01E0
:101D40007C0187E10E940604892BC9F0D701C601F6
:101D500088519C4FAF4FBF4F813D9740A105B105C2
:101D600070F4D0920302C09202028091000290911E
:101D70000102FF90EF90DF90CF900C947009FF90DC
:101D8000EF90DF90CF900895FB0101900020E9F7DC
:101D90003197AF01461B570BDC01ED91FC9102809E
:101DA000F381E02D199480919D0B8823A1F060911F
:101DB000F00D8091EE0D9091EF0D0E94280780911B
:101DC000A50B882341F06EE172E08091EE0D9091B9
:101DD000EF0D0E94C40E1092A40B10929D0B80E098
:101DE00008958F929F92AF92BF92EF92FF920F93BE
:101DF0001F93CF93DF93CDB7DEB7A1970FB6F894BB
:101E0000DEBF0FBECDBF7C01FA01CB0119A222308B
:101E100008F42AE08E010F5D1F4F822E912CB12C09
:101E2000A12CBF01A50194010E945E31F901CA01F4
:101E30006A300CF5605DD8016E938D01232B242B45
:101E4000252B79F790E080E0109721F0BD01C701C4
:101E50000E94C40EA1960FB6F894DEBF0FBECDBF90
:101E6000DF91CF911F910F91FF90EF90BF90AF90B6
:101E70009F908F900895695CDECFCF92DF92EF92B2
:101E8000FF920F931F93CF93DF9377FF1DC06A01DB
:101E90007B01EC016DE20E9428078C014427552745
:101EA000BA014C195D096E097F092AE0CE010E9432
:101EB000F10E800F911FDF91CF911F910F91FF9035
:101EC000EF90DF90CF9008952AE0DF91CF911F919E
:101ED0000F91FF90EF90DF90CF900C94F10ECF9385
:101EE000DF9320919D0B2223A9F0EC016091F10D6D
:101EF0008091EE0D9091EF0D0E942807AE01DD0F4D
:101F0000660B770B8091EE0D9091EF0DDF91CF91E5
:101F10000C943D0FDF91CF910895CF9390919D0B3D
:101F20009923A9F0C82F6091F10D8091EE0D909149
:101F3000EF0D0E9428074C2FCC0F550B660B770B2B
:101F40008091EE0D9091EF0DCF910C943D0FCF91BC
:101F5000089590919D0B911110C091E090939D0B6D
:101F60009093A40B482F50E070E060E02AE080914D
:101F7000EE0D9091EF0D0C94F10E0895CF93DF9339
:101F800090919D0B91110AC0EB010E94A90FCE0107
:101F90000E942F07DF91CF910C94D30E80E0DF9148
:101FA000CF91089560E172E083E00C94BE0FCF9270
:101FB000DF92EF92FF920F931F93CF93DF930E94D4
:101FC0004E03882309F472C081E08093E70D80936B
:101FD000E80DC091E90DD091EA0D61E272E0CE0109
:101FE0000E94DC33892B09F066C080E00E94A90FB3
:101FF00062E370E080E090E00E94D70686E394E020
:102000000E942F0762E370E080E090E00E94D70614
:102010008FE094E00E942F0762E370E080E090E0A0
:102020000E94D7068BEF93E00E942F0762E370E0D7
:1020300080E090E00E94D70682E090E00E946F0F5F
:1020400081E090E00E946F0F83ED93E00E942F07E4
:1020500062E370E080E090E00E94D7068AEC93E0B3
:102060000E942F0762E370E080E090E00E94D706B4
:1020700085EB93E00E942F0762E370E080E090E040
:102080000E94D70688EA93E00E942F0762E370E07F
:1020900080E090E00E94D706DF91CF911F910F91D1
:1020A000FF90EF90DF90CF900C94D30E1092E80D3C
:1020B000D0E0C0E092CF66E272E0CE010E94DC3355
:1020C0008C01892B09F0B8C080E00E94A90F8EE92D
:1020D00093E00E942F0781E090E00E946F0F0E9422
:1020E000D30E86E294E00E94AB0887E194E00E9460
:1020F000AB0888E094E00E94AB088DE0C82EDD2498
:10210000D394C09EE001C19ED00D1124CF57DB4F68
:102110008A819B819C01205D37402C32314088F5BB
:10212000C8010E94160B81110EC088E00E94A90F01
:102130008A819B810E946F0F8A850E948D0F0E9469
:10214000D30E1C860DC088E00E94A90F8A819B8156
:102150000E946F0F8B850E948D0F0E94D30EDC862C
:102160000F5F1F4F0135110564F280E00E94A90F37
:1021700084E993E00E942F0782E090E00E946F0FB5
:102180008BCF9C012C5F38402436310508F048C0C5
:1021900078018FEFE81AF80AC8010E94160BCE9C4E
:1021A0008001CF9C100D1124811112C088E00E9483
:1021B000A90F8A819B810E946F0F8A850E948D0FD3
:1021C0000E94D30E1C86F801EF57FB4FD48618C02F
:1021D000C7010E94160B811115C088E00E94A90F4B
:1021E0000F571B4FF801828193810E946F0FF801F6
:1021F00082850E948D0F0E94D30EF8011486DC8622
:102200008701AECF88E00E94A90F8A819B810E943E
:102210006F0F8B850E948D0F0E94D30EDC86D3CF6B
:10222000805699408436910508F09ACFC8010E94E3
:10223000160B811195CF79CF60E372E0CE010E9439
:10224000DC33892B59F50E940A076093F4027093DE
:10225000F5028093F6029093F70280E00E94A90FA6
:102260008FE893E00E942F070E94790D6B017C019B
:1022700080919D0B882309F40FCF6091F10D80911F
:10228000EE0D9091EF0D0E942807B701A6018091F5
:10229000EE0D9091EF0D0E943D0FFECE65E372E0D2
:1022A000CE010E94DC33892BF1F40E94C90C70E04E
:1022B00060E086E493E00E946D0C70E060E08EE9DF
:1022C00093E00E946D0C90E080E00E94410A81E062
:1022D00090E0DF91CF911F910F91FF90EF90DF90F1
:1022E000CF900C94700969E372E0CE010E94DC3358
:1022F000892B09F048C06EE273E081E00E94BE0FB6
:1023000062E370E080E090E00E94D70662EC72E049
:1023100081E00E94BE0F62E370E080E090E00E94E6
:10232000D70661E772E081E00E94BE0F62E370E0D1
:1023300080E090E00E94D70660E272E081E00E94B7
:10234000BE0F62E370E080E090E00E94D7068091CB
:102350009D0B811118C00E94A90F80919D0B8823AD
:1023600009F49ACE6091F10D8091EE0D9091EF0DF0
:102370000E94280769E372E08091EE0D9091EF0DC5
:102380000E94C40E89CEDF91CF911F910F91FF90D3
:10239000EF90DF90CF900895FC01808191810097AC
:1023A00011F00C94573208950F931F93CF93DF933E
:1023B000EC0188819981009759F02A813B81261789
:1023C000370730F081E0DF91CF911F910F91089591
:1023D0008B016F5F7F4F0E94E032009759F0998325
:1023E00088831B830A832C813D81232B59F7FC01B1
:1023F0001082E8CF80E0E7CFEF92FF920F931F9318
:10240000CF93DF93EC017B01FB0101900020E9F702
:102410003197E61BF70BA1F00C811D810E0F1F1FDA
:10242000B8010E94D41128813981882389F08C81D8
:102430009D81B701820F931F0E94E5331D830C839A
:10244000CE01DF91CF911F910F91FF90EF900895F2
:102450002115310519F0C9010E94573219821882DD
:102460001D821C821B821A82EBCFEF92FF920F9388
:102470001F93CF93DF93EC017B018A01BA010E9485
:10248000D41128813981811114C02115310519F029
:10249000C9010E945732198218821D821C821B8238
:1024A0001A82CE01DF91CF911F910F91FF90EF9093
:1024B00008951D830C83B701C9010E94E533F1CF54
:1024C000EF92FF920F931F93CF93DF93CDB7DEB7B9
:1024D00062970FB6F894DEBF0FBECDBF8C01CB0163
:1024E000F8011182108213821282158214824AE04E
:1024F0009E012F5F3F4F7901B9010E94C72FF7015D
:1025000001900020E9F73197AF014E195F09B7013B
:10251000C8010E94351262960FB6F894DEBF0FBE56
:10252000CDBFDF91CF911F910F91FF90EF90089554
:10253000FB01DC0111961C921E9213961C921E92B6
:10254000129715961C921E9214978617970749F0BA
:10255000608171816115710521F0448155810C9470
:10256000351208950F931F93CF93DF9300D000D0BF
:10257000CDB7DEB790919D0B911134C08B010E94B5
:10258000A90FB801CE0101960E94981280919D0B6F
:102590008823B9F06091F10D8091EE0D9091EF0DCF
:1025A0000E9428078091EE0D9091EF0D4D815E8184
:1025B00069817A81DC01ED91FC910280F381E02D4B
:1025C0001995CE0101960E94CC110E94D30E269639
:1025D0000FB6F894DEBF0FBECDBFDF91CF911F9134
:1025E0000F91089580E0F3CF0F931F93CF93DF9364
:1025F00000D000D0CDB7DEB70E944E03882309F487
:1026000055C081E08093E70D8093E80D0091E90DBE
:102610001091EA0D60E472E0C8010E94DC33892B5E
:1026200009F049C081E08093F30260910402709147
:102630000502CE0101960E946012BE016F5F7F4FBE
:102640008BE00E94B212CE0101960E94CC116091E3
:10265000F1027091F202CE0101960E946012BE0159
:102660006F5F7F4F8CE00E94B212CE0101960E94F4
:10267000CC116091020270910302CE0101960E947A
:102680006012BE016F5F7F4F8EE00E94B212CE01DA
:1026900001960E94CC1126960FB6F894DEBF0FBEAD
:1026A000CDBFDF91CF911F910F9108951092E80D4A
:1026B00010E000E0AFCF66E472E0C8010E94DC33B6
:1026C000892B39F06BE472E0C8010E94DC33892B5E
:1026D000C9F41092F3020E94C90C90E080E00E94BD
:1026E000410A70E060E086E493E00E946D0C70E0C7
:1026F00060E08EE993E00E946D0C81E090E00E9422
:102700007009C9CF65E372E0C8010E94DC33892BF0
:1027100011F6DFCF0F931F93CF93DF9300D000D03C
:10272000CDB7DEB720919D0B211135C08C0188E01B
:102730000E94A90FB801CE0101960E9498128091C3
:102740009D0B8823B9F06091F10D8091EE0D909171
:10275000EF0D0E9428078091EE0D9091EF0D4D81B5
:102760005E8169817A81DC01ED91FC910280F381C7
:10277000E02D1995CE0101960E94CC110E94D30E36
:1027800026960FB6F894DEBF0FBECDBFDF91CF9176
:102790001F910F91089580E0F3CFFC011182108208
:1027A0001382128215821482FB0101900020E9F746
:1027B0003197AF01461B570B0C943512CF93DF9323
:1027C000BC01009771F0FC01D0E0C0E0CF01419165
:1027D000442339F09E012F5F3F4F4E3241F0E90113
:1027E000F5CFCFEFDFEFCE01DF91CF910895620FEC
:1027F000731FFB0101900020E9F7AF01461B570B47
:102800000E94CA33F0CFEF92FF920F931F93CF93A2
:10281000DF93EC01FC0101900020E9F731977F0183
:10282000E81AF90A0E94DE138C010F5F1F4F85E042
:10283000E816F10408F442C021E00230110509F065
:1028400020E0488164E070E086E493E00E94270C79
:1028500021E00330110509F020E0498163E070E0D8
:1028600086E493E00E94270C21E00430110509F072
:1028700020E04A8162E070E086E493E00E94270C49
:1028800021E00530110509F020E04B8161E070E0A6
:1028900086E493E00E94270C21E00630110509F040
:1028A00020E04C8170E060E086E493E0DF91CF911E
:1028B0001F910F91FF90EF900C94270C20E040E2C5
:1028C00064E070E084E0E816F10479F586E493E0D2
:1028D0000E94270C21E00230110509F020E0488118
:1028E00063E070E086E493E00E94270C21E003306F
:1028F000110509F020E0498162E070E086E493E090
:102900000E94270C21E00430110509F020E04A81E3
:1029100061E070E086E493E00E94270C21E005303E
:10292000110509F020E04B81BDCF83E0E816F104EA
:1029300059F586E493E00E94270C20E040E263E032
:1029400070E086E493E00E94270C21E0023011053C
:1029500009F020E0488162E070E086E493E00E94A4
:10296000270C21E00330110509F020E0498161E0E6
:1029700070E086E493E00E94270C21E0043011050A
:1029800009F020E04A818ECF82E0E816F10439F5A3
:1029900086E493E00E94270C20E040E263E070E0D0
:1029A00086E493E00E94270C20E040E262E070E0C1
:1029B00086E493E00E94270C21E00230110509F023
:1029C00020E0488161E070E086E493E00E94270CFB
:1029D00021E00330110509F020E0498163CFEA943A
:1029E000EF2819F586E493E00E94270C20E040E2EE
:1029F00063E070E086E493E00E94270C20E040E270
:102A000062E070E086E493E00E94270C20E040E260
:102A100061E070E086E493E00E94270C21E0023040
:102A2000110509F020E048813DCF86E493E00E9443
:102A3000270C20E040E263E070E086E493E00E942F
:102A4000270C20E040E262E070E086E493E00E9420
:102A5000270C20E040E261E070E086E493E00E9411
:102A6000270C20E040E21ECF4F925F926F927F9240
:102A70008F929F92AF92BF92EF92FF920F931F930C
:102A8000CF93DF93CDB7DEB764970FB6F894DEBF70
:102A90000FBECDBF0E940A072B013C014EE464E04B
:102AA00070E08EE993E00E94590C20E041E463E07D
:102AB00070E08EE993E00E94270C20E04CE462E095
:102AC00070E08EE993E00E94270C46E061E070E040
:102AD0008EE993E00E94590C4FE170E060E08EE9CE
:102AE00093E00E94590C70E060E089E59EE00E944E
:102AF000160720E0FC01408164E070E086E493E08A
:102B00000E94270C61E070E089E59EE00E941607B4
:102B100020E0FC01408163E070E086E493E00E94E5
:102B2000270C45E062E070E086E493E00E94590CD7
:102B300063E070E089E59EE00E94160720E0FC015A
:102B4000408161E070E086E493E00E94270C64E03D
:102B500070E089E59EE00E94160720E0FC014081BC
:102B600070E060E086E493E00E94270C68EE73E07A
:102B700080E090E00E94D70606E512E0CE010196C3
:102B80007C014AE0A42EB12C80913C0390913D033E
:102B9000892BD1F180913C0390913D03892BD9F48D
:102BA0000E943305B0923D03A0923C0380913B0309
:102BB0008F9380913A038F931F930F93FF92EF921D
:102BC0000E94EC33C7010E9403140F900F900F90E6
:102BD0000F900F900F900E9406060E940A0764193A
:102BE0007509860997096D3D75408105910508F0C5
:102BF000A7C087E10E940604892B31F686E10E9476
:102C00000604892B09F605C08DE20E940604892B73
:102C100009F210E00E94330588EC90E090933D03A8
:102C200080933C030E940A072B013C0136E5E32E0A
:102C300032E0F32ECE0101965C0180913C0390912D
:102C40003D03892B61F180913B038F9380913A037F
:102C50008F93FF92EF92BF92AF920E94EC33C50127
:102C60000E9403140E9406060E940A07641975094F
:102C7000860997090F900F900F900F900F900F906B
:102C8000613D77408105910550F487E10E9406047B
:102C9000892B99F686E10E940604892B71F61111A1
:102CA00086C10E940A072B013C0196E5E92E92E0BD
:102CB000F92ECE0101965C0126EF822E99249A947A
:102CC00080913C0390913D03892BE1F180913C037D
:102CD00090913D03892BD9F40E94330590923D03D6
:102CE00080923C0380913B038F9380913A038F93B2
:102CF000FF92EF92BF92AF920E94EC33C5010E9407
:102D000003140F900F900F900F900F900F900E9450
:102D100006060E940A076419750986099709693829
:102D200073418105910508F040C187E10E940604C6
:102D3000892B31F686E10E940604892B09F608C02A
:102D400011E068CF8DE20E940604019709F4BECF1E
:102D500000913A03F0903B030093EF02F092F002EF
:102D6000112309F468C120E04EE664E070E08EE9CA
:102D700093E00E94270C20E04FE663E070E08EE9CC
:102D800093E00E94270C20E040E762E070E08EE9CB
:102D900093E00E94270C44E061E070E08EE993E04C
:102DA0000E94590C20E04EE670E060E08EE993E06E
:102DB0000E94270C8091F0028F938091EF028F93F5
:102DC0008BE592E09F938F93CE0101969F938F9313
:102DD0000E94EC3320E046E464E070E086E493E097
:102DE0000E94270C20E04FE663E070E086E493E069
:102DF0000E94270C4CE162E070E086E493E00E94C0
:102E0000590C20E04EE661E070E086E493E00E9419
:102E1000270C20E044E670E060E086E493E00E9446
:102E2000270C68EE73E080E090E00E94D7060F90D8
:102E30000F900F900F900F900F9010920102109230
:102E4000000290E080E00E9448090E940A074B01BE
:102E50005C018E010F5F1F4F86E5E82E82E0F82EA1
:102E600080913C0390913D03892B61F10E940606FD
:102E700080913D038F9380913C038F93FF92EF925B
:102E80001F930F930E94EC33C8010E9403140E9409
:102E90000A07681979098A099B090F900F900F900A
:102EA0000F900F900F90613D77408105910550F490
:102EB00087E10E940604892B99F686E10E940604A8
:102EC000892B71F668EE73E080E090E00E94D706EF
:102ED0004EE364E070E08EE993E00E94590C20E03C
:102EE00045E363E070E08EE993E00E94270C20E068
:102EF00045E462E070E08EE993E00E94270C45E033
:102F000061E070E08EE993E00E94590C20E040E21D
:102F100070E060E08EE993E00E94270C809103024C
:102F20008F93809102028F938BE592E09F938F9312
:102F30001F930F930E94EC33C8010E94031468EEA4
:102F400073E080E090E00E94D70670E060E08EE9D8
:102F500093E00E946D0C70E060E086E493E00E94D4
:102F60006D0C81E08093200381E090E09093EE026D
:102F70008093ED020F900F900F900F900F900F9095
:102F800064960FB6F894DEBF0FBECDBFDF91CF9130
:102F90001F910F91FF90EF90BF90AF909F908F90F7
:102FA0007F906F905F904F90089511E0D1CE90E0A8
:102FB00080E00E9458050E940A074B015C0106E56B
:102FC00012E0CE0101967C0180913C0390913D037B
:102FD000892B61F180913B038F9380913A038F930A
:102FE0001F930F93FF92EF920E94EC33C7010E9450
:102FF00003140E9406060E940A07681979098A09C3
:103000009B090F900F900F900F900F900F90613DC4
:1030100077408105910550F487E10E940604892BD1
:1030200099F686E10E940604892B71F61092F0024F
:103030001092EF0298CE20E046E464E070E08EE962
:1030400093E00E94270C20E04FE663E070E08EE9F9
:1030500093E00E94270C4CE162E070E08EE993E07F
:103060000E94590C20E04EE661E070E08EE993E0AA
:103070000E94270C20E044E670E060E08EE993E0D7
:103080000E94270CFF920F938BE592E09F938F9302
:103090008E010F5F1F4F1F930F930E94EC33C801E7
:1030A0000E940314BECEEF92FF920F931F93CF9313
:1030B000DF93EC01FC0101900020E9F731977F01DB
:1030C000E81AF90A0E94DE138C010F5F1F4F85E09A
:1030D000E816F10408F442C021E00230110509F0BD
:1030E00020E0488164E070E08EE993E00E94270CC4
:1030F00021E00330110509F020E0498163E070E030
:103100008EE993E00E94270C21E00430110509F0BC
:1031100020E04A8162E070E08EE993E00E94270C93
:1031200021E00530110509F020E04B8161E070E0FD
:103130008EE993E00E94270C21E00630110509F08A
:1031400020E04C8170E060E08EE993E0DF91CF9168
:103150001F910F91FF90EF900C94270C20E040E21C
:1031600064E070E084E0E816F10479F58EE993E01C
:103170000E94270C21E00230110509F020E048816F
:1031800063E070E08EE993E00E94270C21E00330B9
:10319000110509F020E0498162E070E08EE993E0DA
:1031A0000E94270C21E00430110509F020E04A813B
:1031B00061E070E08EE993E00E94270C21E0053089
:1031C000110509F020E04B81BDCF83E0E816F10442
:1031D00059F58EE993E00E94270C20E040E263E07D
:1031E00070E08EE993E00E94270C21E00230110587
:1031F00009F020E0488162E070E08EE993E00E94EF
:10320000270C21E00330110509F020E0498161E03D
:1032100070E08EE993E00E94270C21E00430110554
:1032200009F020E04A818ECF82E0E816F10439F5FA
:103230008EE993E00E94270C20E040E263E070E01A
:103240008EE993E00E94270C20E040E262E070E00B
:103250008EE993E00E94270C21E00230110509F06D
:1032600020E0488161E070E08EE993E00E94270C45
:1032700021E00330110509F020E0498163CFEA9491
:10328000EF2819F58EE993E00E94270C20E040E238
:1032900063E070E08EE993E00E94270C20E040E2BA
:1032A00062E070E08EE993E00E94270C20E040E2AB
:1032B00061E070E08EE993E00E94270C21E002308B
:1032C000110509F020E048813DCF8EE993E00E948E
:1032D000270C20E040E263E070E08EE993E00E947A
:1032E000270C20E040E262E070E08EE993E00E946B
:1032F000270C20E040E261E070E08EE993E00E945C
:10330000270C20E040E21ECF8F929F92AF92BF9297
:10331000CF92DF92EF92FF92CF93DF930E94790DCD
:103320004B015C010E94790D0E94790D6B017C01BB
:103330000E944E03882351F181E08093E70D809332
:10334000E80DC091E90DD091EA0D85E6881691044B
:10335000A104B104C9F186E688169104A104B10460
:1033600009F448C084E688169104A104B10409F068
:103370005DC082E0C816D104E104F10461F4CE011D
:103380000E945318BE018CE093E012C01092E80D29
:10339000D0E0C0E0DACFCD28CE28CF2809F046C053
:1033A00080E292E00E94531860E272E088EF92E0BF
:1033B000DF91CF91FF90EF90DF90CF90BF90AF90D3
:1033C0009F908F900C94E53382E0C816D104E104FD
:1033D000F10429F4CE010E940314BE01E7CFCD28E9
:1033E000CE28CF2819F580E292E00E94031460E213
:1033F00072E0C9CF82E0C816D104E104F10479F487
:10340000CE010E94822FDF91CF91FF90EF90DF904D
:10341000CF90BF90AF909F908F900C947009CD2863
:10342000CE28CF2819F481E090E0EDCFDF91CF9145
:10343000FF90EF90DF90CF90BF90AF909F908F90D4
:1034400008951F920F920FB60F9211242F933F935E
:103450008F939F93AF93BF938091260390912703FF
:10346000A0912803B09129033091250323E0230F75
:103470002D3758F50196A11DB11D2093250380938A
:10348000260390932703A0932803B09329038091E8
:103490002A0390912B03A0912C03B0912D03019648
:1034A000A11DB11D80932A0390932B03A0932C039D
:1034B000B0932D03BF91AF919F918F913F912F9129
:1034C0000F900FBE0F901F90189526E8230F0296BD
:1034D000A11DB11DD2CF1F920F920FB60F921124D2
:1034E0000BB60F922F933F934F935F936F937F93FE
:1034F0008F939F93AF93BF93EF93FF9380E09BE0F5
:103500000E94D107FF91EF91BF91AF919F918F9151
:103510007F916F915F914F913F912F910F900BBED3
:103520000F900FBE0F901F9018951F920F920FB61D
:103530000F9211240BB60F922F938F939F93EF93BB
:10354000FF93E091100BF091110B8081E091160B2D
:10355000F091170B82FD1DC090818091190B8F5F38
:103560008F7320911A0B821741F0E091190BF0E054
:10357000E050F54F958F8093190BFF91EF919F913C
:103580008F912F910F900BBE0F900FBE0F901F9039
:1035900018958081F2CF2F923F924F925F926F9257
:1035A0007F928F929F92AF92BF92CF92DF92EF92D3
:1035B000FF920F931F93CF93DF931092030B109200
:1035C000020B88EE93E0A0E0B0E08093040B9093B0
:1035D000050BA093060BB093070B80E192E090934C
:1035E000010B8093000B85EC90E090930D0B809382
:1035F0000C0B84EC90E090930F0B80930E0B80ECFF
:1036000090E09093110B8093100B81EC90E09093DD
:10361000130B8093120B82EC90E09093150B809328
:10362000140B86EC90E09093170B8093160B10927E
:10363000190B10921A0B10921B0B10921C0B6EE5BB
:1036400072E08FE59EE00E94CD1364E672E089E5AA
:103650009EE00E94CD131092F40D1092F30D80E0C5
:103660009BE09093EF0D8093EE0D1092A50B8CE2F2
:103670008093F10D8BE38093F00D8FE28093F20D38
:1036800080E48093A00B8FE38093A10B10929F0B9B
:103690001092EA0D1092E90D1092EC0D1092EB0DC4
:1036A00081E08093E70DE5EFFDE089E59EE0119272
:1036B00011928E179F07D9F71092A40B6AE672E059
:1036C0008AEF9AE00E94CD136BE872E084EF9AE0F3
:1036D0000E94CD13C1E0C0939E0887E1C82EC0921E
:1036E0009F0888EE93E09093A1088093A00860E281
:1036F00072E082EA98E00E94CD13C093A80810926D
:10370000A908DFEFD093AA08C093AB0896E1D92EA1
:10371000D092AC0889EE93E09093AE088093AD0808
:1037200060E272E08FEA98E00E94CD13C093B50882
:103730001092B608D093B708C093B80887E080937A
:10374000B9088AEE93E09093BB088093BA0860E2D0
:1037500072E08CEB98E00E94CD13C093C2081092E7
:10376000C308D093C408C093C50826E0922E909257
:10377000C6088BEE93E09093C8088093C70860E278
:1037800072E089EC98E00E94CD13C093CF081092AC
:10379000D008D093D108C093D20835E0F32EF09230
:1037A000D3088CEE93E09093D5088093D40860E220
:1037B00072E086ED98E00E94CD13C093DC08109271
:1037C000DD08D093DE08C093DF0844E0642E6092E9
:1037D000E0088DEE93E09093E2088093E10860E2C8
:1037E00072E083EE98E00E94CD13C093E908109236
:1037F000EA08D093EB0812E01093EC0851E1B52EE3
:10380000B092ED088EEE93E09093EF088093EE086F
:1038100060E272E080EF98E00E94CD13C093F6085A
:103820001092F708D093F8081093F90869E0562E23
:103830005092FA088FEE93E09093FC088093FB0877
:1038400060E272E08DEF98E00E94CD13C09303090F
:1038500010920409D09305091093060978E0A72E69
:10386000A092070980EF93E09093090980930809DB
:1038700060E272E08AE099E00E94CD13C0931009E3
:1038800010921109D093120910931309E0E17E2ED2
:103890007092140981EF93E09093160980931509B3
:1038A00060E272E087E199E00E94CD13C0931D09A8
:1038B00010921E09D0931F0910932009C09221096C
:1038C00082EF93E0909323098093220960E272E0F3
:1038D00084E299E00E94CD13C0932A0910922B092B
:1038E000D0932C0910932D098AE080932E0983EF41
:1038F00093E09093300980932F0960E272E081E3B6
:1039000099E00E94CD13C093370910923809D093E3
:10391000390910933A09FBE0EF2EE0923B0984EF5E
:1039200093E090933D0980933C0960E272E08EE35E
:1039300099E00E94CD13C093440910924509D09399
:103940004609109347098CE08093480985EF93E07E
:1039500090934A098093490960E272E08BE499E010
:103960000E94CD13C093510910925209D09353096C
:1039700010935409ADE02A2E2092550986EF93E06A
:10398000909357098093560960E272E088E599E0C8
:103990000E94CD13C0935E0910925F09D093600915
:1039A00010936109BEE03B2E3092620987EF93E0ED
:1039B000909364098093630960E272E085E699E080
:1039C0000E94CD13C0936B0910926C09D0936D09BE
:1039D00010936E090FE0402E40926F0988EF93E03C
:1039E000909371098093700960E272E082E799E038
:1039F0000E94CD13C093780910927909D0937A0967
:103A0000C0937B0970927C0989EF93E090937E09C3
:103A100080937D0960E272E08FE799E00E94CD1308
:103A2000C093850910928609D0938709C0938809AD
:103A3000B09289098AEF93E090938B0980938A0969
:103A400060E272E08CE899E00E94CD13C093920985
:103A500010929309D0939409C093950985E1882E1B
:103A6000809296098BEF93E0909398098093970941
:103A700060E272E089E999E00E94CD13C0939F094A
:103A80001092A009D093A109C093A20984E1809368
:103A9000A3098CEF93E09093A5098093A40960E2B9
:103AA00072E086EA99E00E94CD13C093AC091092AF
:103AB000AD09D093AE09C093AF0982E18093B009FC
:103AC0008DEF93E09093B2098093B10960E272E0C8
:103AD00083EB99E00E94CD13C093B9091092BA0903
:103AE000D093BB09C093BC0983E18093BD098EEFDD
:103AF00093E09093BF098093BE0960E272E080EC8E
:103B000099E00E94CD13C093C6091092C709D093C3
:103B1000C809C093C909A092CA098FEF93E0909396
:103B2000CC098093CB0960E272E08DEC99E00E94B1
:103B3000CD13C093D3091092D409D093D509C09363
:103B4000D6095092D70980E094E09093D9098093E8
:103B5000D80960E272E08AED99E00E94CD13C0932B
:103B6000E0091092E109D093E209C093E3098AE0E9
:103B70008093E40981E094E09093E6098093E5095D
:103B800060E272E087EE99E00E94CD13C093ED09E8
:103B90001092EE09D093EF09C093F009E092F10979
:103BA00082E094E09093F3098093F20960E272E07E
:103BB00084EF99E00E94CD13C093FA091092FB099B
:103BC000D093FC09C093FD091092FE0983E094E0B4
:103BD0009093000A8093FF0960E272E081E09AE02E
:103BE0000E94CD13C093070A1092080AD093090AC5
:103BF000C0930A0A03E000930B0A84E094E09093D8
:103C00000D0A80930C0A60E272E08EE09AE00E9456
:103C1000CD13C093140A1092150AD093160AC093BC
:103C2000170AC093180A85E094E090931A0A8093CB
:103C3000190A60E272E08BE19AE00E94CD13C09312
:103C4000210A1092220AD093230AC093240A1093C7
:103C5000250A86E094E09093270A8093260A60E282
:103C600072E088E29AE00E94CD13C0932E0A10926F
:103C70002F0AD093300AC093310A4092320A87E06B
:103C800094E09093340A8093330A60E272E085E313
:103C90009AE00E94CD13C0933B0A10923C0AD09345
:103CA0003D0AC0933E0A8CE080933F0A88E094E08E
:103CB0009093410A8093400A60E272E082E49AE0C5
:103CC0000E94CD13C093480A1092490AD0934A0A21
:103CD000C0934B0A30924C0A89E094E090934E0ACC
:103CE00080934D0A60E272E08FE49AE00E94CD1367
:103CF000C093550A1092560AD093570A1093580A47
:103D000083E18093590A8AE094E090935B0A809360
:103D10005A0A60E272E08CE59AE00E94CD13C093EB
:103D2000620A1092630AD093640A1093650A809223
:103D3000660A8BE094E09093680A8093670A60E2D9
:103D400072E089E69AE00E94CD13C0936F0A109248
:103D5000700AD093710AC093720A2092730A8CE0A1
:103D600094E09093750A8093740A60E272E086E7AB
:103D70009AE00E94CD13C0937C0A10927D0AD093E2
:103D80007E0A10937F0A82E18093800A8DE094E09E
:103D90009093820A8093810A60E272E083E89AE05D
:103DA0000E94CD13C093890A10928A0AD0938B0A7D
:103DB00010938C0A84E180938D0A8EE094E09093B6
:103DC0008F0A80938E0A60E272E080E99AE00E9496
:103DD000CD13C093960A1092970AD093980A109325
:103DE000990AD0929A0A8FE094E090939C0A80936B
:103DF0009B0A60E272E08DE99AE00E94CD13C093C5
:103E0000A30A1092A40AD093A50A1093A60A1092AE
:103E1000A70A80E194E09093A90A8093A80A60E23F
:103E200072E08AEA9AE00E94CD13C093B00A109221
:103E3000B10AD093B20A1093B30A9092B40A81E106
:103E400094E09093B60A8093B50A60E272E087EB43
:103E50009AE00E94CD13C093BD0A1092BE0AD0937F
:103E6000BF0A1093C00AC093C10A82E194E0909304
:103E7000C30A8093C20A60E272E084EC9AE00E9476
:103E8000CD13C093CA0A1092CB0AD093CC0A1093D8
:103E9000CD0AF092CE0A83E194E09093D00A809309
:103EA000CF0A60E272E081ED9AE00E94CD13C093E8
:103EB000D70A1092D80AD093D90A1093DA0A10932D
:103EC000DB0A84E194E09093DD0A8093DC0A60E2EF
:103ED00072E08EED9AE00E94CD13C093E40A109236
:103EE000E50AD093E60A1093E70A6092E80A85E1B2
:103EF00094E09093EA0A8093E90A60E272E08BEE24
:103F00009AE00E94CD13C093F10A1092F20AD09366
:103F1000F30AC09381046092820484E398E0909352
:103F200084048093830460E272E085E894E00E9458
:103F3000CD1310928B04C0938C04D0938D04C09346
:103F40008E04F0928F0485E398E09093910480931F
:103F5000900460E272E082E994E00E94CD13109236
:103F60009804C0939904D0939A04C0939B04E09260
:103F70009C0487E398E090939E0480939D0460E204
:103F800072E08FE994E00E94CD131092A504C093D3
:103F9000A604D093A704C093A8042092A90488E3A0
:103FA00098E09093AB048093AA0460E272E08CEAFC
:103FB00094E00E94CD131092B204C093B304D09346
:103FC000B404C093B5048AE08093B60489E398E012
:103FD0009093B8048093B70460E272E089EB94E0B8
:103FE0000E94CD131092BF04C093C004D093C104AB
:103FF000C093C2043092C3048AE398E09093C5044E
:104000008093C40460E272E086EC94E00E94CD13D9
:104010001092CC04C093CD04D093CE04C093CF04AF
:104020004092D0048BE398E09093D2048093D10423
:1040300060E272E083ED94E00E94CD131092D90407
:10404000C093DA04D093DB04C093DC04A092DD04B7
:104050008CE398E09093DF048093DE0460E272E0EA
:1040600080EE94E00E94CD131092E604C093E70422
:10407000D093E804C093E9045092EA048DE398E0F9
:104080009093EC048093EB0460E272E08DEE94E098
:104090000E94CD131092F304C093F404D093F5045E
:1040A000C093F604C092F7048FE598E09093F9046A
:1040B0008093F80460E272E08AEF94E00E94CD13EE
:1040C000C093000510920105D0930205C09303052B
:1040D00082E1809304058CE598E090930605809337
:1040E000050560E272E087E095E00E94CD13109232
:1040F0000D05C0930E05D0930F05C0931005B09227
:1041000011058DE598E0909313058093120560E208
:1041100072E084E195E00E94CD1310921A05C093DD
:104120001B05D0931C05C0931D0570921E058EE5DE
:1041300098E09093200580931F0560E272E081E291
:1041400095E00E94CD1310922705C0932805D093C7
:10415000290510932A0587E080932B0581E598E0D7
:1041600090932D0580932C0560E272E08EE295E03D
:104170000E94CD1310923405C0933505D0933605B7
:10418000109337059092380582E598E090933A05B0
:104190008093390560E272E08BE395E00E94CD13D5
:1041A00010924105C0934205D093430510934405F6
:1041B000F092450583E598E0909347058093460586
:1041C00060E272E088E495E00E94CD1310924E0503
:1041D000C0934F05D093500510935105609252053E
:1041E00084E598E0909354058093530560E272E073
:1041F00085E595E00E94CD1310925B05C0935C05A8
:10420000D0935D0510935E0540925F0585E598E0CB
:10421000909361058093600560E272E082E695E02C
:104220000E94CD1310926805C0936905D0936A056A
:1042300010936B0530926C0586E598E090936E05BF
:1042400080936D0560E272E08FE695E00E94CD13E9
:1042500010927505C0937605D09377051093780575
:104260005092790587E598E090937B0580937A05D5
:1042700060E272E08CE795E00E94CD131092820517
:10428000C0938305D093840510938505A09286057D
:1042900088E598E0909388058093870560E272E056
:1042A00089E895E00E94CD1310928F05C093900588
:1042B000D093910510939205209293058AE598E09A
:1042C000909395058093940560E272E086E995E00D
:1042D0000E94CD1310929C05C0939D05D0939E051E
:1042E00010939F058AE08093A0058BE598E090935A
:1042F000A2058093A10560E272E083EA95E00E9446
:10430000CD131092A905C093AA05D093AB050093D5
:10431000AC058CE08093AD058EE398E09093AF05FB
:104320008093AE0560E272E080EB95E00E94CD13D1
:104330001092B605C093B705D093B8050093B905A0
:104340002092BA058FE398E09093BC058093BB055B
:1043500060E272E08DEB95E00E94CD131092C305F0
:10436000C093C405D093C5050093C6053092C70518
:1043700080E498E09093C9058093C80560E272E0FC
:104380008AEC95E00E94CD131092D005C093D10520
:10439000D093D2050093D3054092D40581E498E0F0
:1043A0009093D6058093D50560E272E087ED95E0A5
:1043B0000E94CD131092DD05C093DE05D093DF057A
:1043C0000093E005A092E10582E498E09093E30574
:1043D0008093E20560E272E084EE95E00E94CD13E6
:1043E0001092EA05C093EB05D093EC050093ED0520
:1043F000B092EE0583E498E09093F0058093EF058A
:1044000060E272E081EF95E00E94CD131092F70513
:10441000C093F805D093F9051093FA05D092FB05E7
:1044200084E498E09093FD058093FC0560E272E0DF
:104430008EEF95E00E94CD1310920406C0930506FE
:10444000D093060610930706C092080685E498E00C
:1044500090930A068093090660E272E08BE096E092
:104460000E94CD1310921106C0931206D09313062A
:10447000109314067092150686E498E09093170640
:104480008093160660E272E088E196E00E94CD1308
:1044900010921E06C0931F06D0932006109221068C
:1044A000D092220687E498E0909324068093230616
:1044B00060E272E085E296E00E94CD13C0932B0685
:1044C00010922C06D0932D0610922E06C0922F0625
:1044D00088E498E0909331068093300660E272E0C1
:1044E00082E396E00E94CD13C093380610923906FD
:1044F000D0933A0610933B0680923C068AE498E0FB
:1045000090933E0680933D0660E272E08FE396E072
:104510000E94CD1310924506C0934606D0934706DD
:104520001093480684E1809349068BE498E09093C9
:104530004B0680934A0660E272E08CE496E00E94AB
:10454000CD1310925206C0935306D0935406109385
:104550005506B09256068CE498E0909358068093E6
:10456000570660E272E089E596E00E94CD13109252
:104570005F06C0936006D0936106C09362061092F6
:10458000630693E6A92E99E0B92EB0926506A09233
:10459000640660E272E086E696E00E94CD13109217
:1045A0006C06D0936D06D0936E06C0936F06C093D1
:1045B0007006B0927206A092710660E272E083E724
:1045C00096E00E94CD13C0937906D0937A06D093DB
:1045D0007B06C0937C0610937D06B0927F06A09266
:1045E0007E0660E272E080E896E00E94CD131093B0
:1045F0008606D0938706D0938806C09389060093D9
:104600008A06B0928C06A0928B0660E272E08DE87A
:1046100096E00E94CD1300939306D0939406D09316
:104620009506C0939606D092970624E6A22E29E01E
:10463000B22EB0929906A092980660E272E08AE9E2
:1046400096E00E94CD131092A006D093A106D093BD
:10465000A206C093A3068092A406B092A606A092DA
:10466000A50660E272E087EA96E00E94CD13C0934F
:10467000AD06D093AE06D093AF06C093B00684E1EA
:104680008093B106B092B306A092B20660E272E0E7
:1046900084EB96E00E94CD131093BA06D093BB062C
:1046A000D093BC06C093BD0683E18093BE06B09252
:1046B000C006A092BF0660E272E081EC96E00E9424
:1046C000CD130093C706D093C806D093C9060093B4
:1046D000CA06E092CB0630E6A32E39E0B32EB092A4
:1046E000CD06A092CC0660E272E08EEC96E00E94CD
:1046F000CD131092D406D093D506D093D60600934E
:10470000D7066092D806B092DA06A092D90660E287
:1047100072E08BED96E00E94CD13C093E106D0933A
:10472000E206D093E3060093E406F092E506B09229
:10473000E706A092E60660E272E088EE96E00E944C
:10474000CD131093EE06D093EF06D093F0060093AE
:10475000F1069092F206B092F406A092F30660E29F
:1047600072E085EF96E00E94CD130093FB06D09394
:10477000FC06D093FD060093FE067092FF0641E60C
:10478000A42E49E0B42EB0920107A092000760E287
:1047900072E082E097E00E94CD1310920807D09358
:1047A0000907D0930A0700930B07C0920C07B09239
:1047B0000E07A0920D0760E272E08FE097E00E9482
:1047C000CD13C0931507D0931607D0931707009306
:1047D0001807D0921907B0921B07A0921A0760E23F
:1047E00072E08CE197E00E94CD1310932207D093E2
:1047F0002307D09324070093250780922607B092C1
:104800002807A092270760E272E089E297E00E9401
:10481000CD1300932F07D0933007D0933107009327
:104820003207C093330752E6C52E59E0D52ED092F9
:104830003507C092340760E272E086E397E00E9499
:10484000CD1310923C07D0933D07D0933E070093C1
:104850003F0710934007D0924207C092410760E2A1
:1048600072E083E497E00E94CD13C0934907D09390
:104870004A07D0934B0700934C0700934D07D09203
:104880004F07C0924E0760E272E080E597E00E9419
:10489000CD1310935607D0935707D0935807009322
:1048A000590710925A07D0925C07C0925B0760E2EA
:1048B00072E08DE597E00E94CD1300936307D093DB
:1048C0006407D0936507C093660787E08093670706
:1048D000CC24CA9468E0D62ED0926907C0926807AB
:1048E00060E272E08AE697E00E94CD1310927007B2
:1048F000C0937107D0937207C093730790927407A7
:10490000D0927607C092750760E272E087E797E081
:104910000E94CD1310937D07C0937E07D0937F072D
:104920000093800783E1809381077CEFC72E78E0B6
:10493000D72ED0928307C092820760E272E084E8AB
:1049400097E00E94CD1310928A07C0938B07D093F3
:104950008C0710928D07EFE1BE2EB0928E07D09299
:104960009007C0928F0760E272E081E997E00E94B1
:10497000CD1310939707C0939807D093990700938E
:104980009A0750929B07FDEFCF2EF8E0DF2ED092D2
:104990009D07C0929C0760E272E08EE997E00E945A
:1049A000CD131092A407C093A507D093A607009338
:1049B000A7078AE08093A807D092AA07C092A90708
:1049C00060E272E08BEA97E00E94CD131093B1078A
:1049D000C093B207D093B3070093B40784E18093E8
:1049E000B507AEEFCA2EA8E0DA2ED092B707C09274
:1049F000B60760E272E088EB97E00E94CD13109258
:104A0000BE07C093BF07D093C0070093C10787E0DC
:104A10008093C207D092C407C092C30760E272E0DD
:104A200085EC97E00E94CD131093CB07C093CC0781
:104A3000D093CD071093CE071092CF07B2E0CB2EC4
:104A4000B9E0DB2ED092D107C092D00760E272E0CD
:104A500082ED97E00E94CD131092D807C093D9073A
:104A6000D093DA071093DB07C093DC07D092DE0700
:104A7000C092DD0760E272E08FED97E00E94CD13F7
:104A80001093E507C093E607D093E7071093E80774
:104A900082E18093E90783E0C82E89E0D82ED09286
:104AA000EB07C092EA0760E272E08CEE97E00E94AA
:104AB000CD131092F207C093F307D093F40710932D
:104AC000F50783E18093F607D092F807C092F707C5
:104AD00060E272E089EF97E00E94CD131093FF0728
:104AE000C0930008D09301081093020810930308A4
:104AF000C12C99E0D92ED0920508C092040860E23A
:104B000072E086E098E00E94CD1310920C08C093EA
:104B10000D08D0930E0810930F0800931008D09240
:104B20001208C092110860E272E083E198E00E94EE
:104B3000CD1310931908C0931A08D0931B08109333
:104B40001C088CE080931D08CC24C39429E0D22E4D
:104B5000D0921F08C0921E0860E272E080E298E0E6
:104B60000E94CD1310922608C0932708D0932808DE
:104B700010932908E0922A08D0922C08C0922B08A2
:104B800060E272E08DE298E00E94CD13109333084A
:104B9000C0933408D0933508C0933608B0923708D4
:104BA00035E1C32E39E0D32ED0923908C0923808AF
:104BB00060E272E08AE398E00E94CD131092400810
:104BC000C0934108D0934208C09343088CE180937E
:104BD0004408D0924608C092450860E272E087E43B
:104BE00098E00E94CD1310934D08C0934E08D093C7
:104BF0004F08C09350088EE18093510846E1C42EBF
:104C000049E0D42ED0925308C092520860E272E07C
:104C100084E598E00E94CD1310925A08C0935B0877
:104C2000D0935C08C0935D088DE180935E08D092BC
:104C30006008C0925F0860E272E081E698E00E943E
:104C4000CD1310936708C0936808D0936908C09388
:104C50006A0888E180936B0857E1C52E59E0D52E8C
:104C6000D0926D08C0926C0860E272E08EE698E027
:104C70000E94CD1310927408C0937508D0937608E3
:104C8000C09377088BE180937808D0927A08C0921D
:104C9000790860E272E08BE798E00E94CD131093F0
:104CA0008108C0938208D0938308C093840889E167
:104CB0008093850868E1C62E69E0D62ED0928708D9
:104CC000C092860860E272E088E898E00E94CD1306
:104CD00010928E08C0938F08D0939008C0939108CB
:104CE0008AE180939208D0929408C092930860E27F
:104CF00072E085E998E00E94CD1310939B08C09361
:104D00009C08D0939D0842E162E086E794E00E940F
:104D1000580B44E163E18BE694E00E94580BE6E710
:104D2000F4E0A5E3B4E08E2D01900D928A95E1F7B1
:104D300062EB72E080E494E00E94CD1379E1872E6B
:104D40007CEF972EAA24AA94BA2C809246049092C3
:104D50004704A0924804B092490465EC72E08AE4EA
:104D600094E00E94CD13EBE6F4E0A0E5B4E00190FE
:104D70000D92EA94E1F762ED72E08BE594E00E9417
:104D8000CD138092610490926204A0926304B09269
:104D9000640465EC72E085E694E00E94CD1380E245
:104DA00090E090932B0480932A04F0922C041092AC
:104DB0002D0410922E0410922F04109230041092A1
:104DC000310410923204109233041092340488E1BA
:104DD00090E090931C0480931B04F0921D041092A9
:104DE0001E0410921F0410922004109221041092AD
:104DF000220410922304109224041092250490930C
:104E00000D0480930C04F0920E0410920F04109283
:104E100010041092110410921204109213041092B4
:104E200014041092150410921604909303048093B6
:104E300002041092040410920504109206041092C9
:104E400007049093FA038093F9031092FB031092E6
:104E5000FC031092FD031092FE0324E030E045E0D5
:104E600050E066E070E08EE993E00E94F40C2EE0E2
:104E700030E04DE050E06FE070E086E493E00E94A7
:104E8000F40C80E390E090933103809330038FE241
:104E900090E090933303809332038AE290E0909302
:104EA00035038093340388E290E090933703809336
:104EB000360361E080E30E94A50561E08091320342
:104EC0000E94A50561E0809134030E94A50561E080
:104ED000809136030E94A50510922F0310922E0395
:104EE00080EB94E0A0E0B0E080933E0390933F031A
:104EF000A0934003B093410380E090E19093390385
:104F00008093380310923B0310923A0310923D03B2
:104F100010923C03DF91CF911F910F91FF90EF9082
:104F2000DF90CF90BF90AF909F908F907F906F90C9
:104F30005F904F903F902F900895CF93DF93CDB720
:104F4000DEB7A0970FB6F894DEBF0FBECDBF789442
:104F500084B5826084BD84B5816084BD85B582607E
:104F600085BD85B5816085BD80916E00816080932F
:104F70006E00109281008091810082608093810098
:104F800080918100816080938100809180008160A8
:104F9000809380008091B10084608093B100809103
:104FA000B00081608093B000809191008260809316
:104FB0009100809191008160809391008091900098
:104FC0008160809390008091A10082608093A10015
:104FD0008091A10081608093A1008091A0008160F8
:104FE0008093A000809121018260809321018091B3
:104FF0002101816080932101809120018160809353
:10500000200180917A00846080937A0080917A00F8
:10501000826080937A0080917A00816080937A0028
:1050200080917A00806880937A001092C1000E947B
:105030000A076093F4027093F5028093F60290934E
:10504000F7026093210370932203809323039093CC
:10505000240361E083E00E94A5058091F102909114
:10506000F2020E94410A62E08DE20E94A505809151
:10507000F4039091F5031816190644F421E04CE06E
:1050800070E060E08EE993E00E94C60B80919C0383
:1050900090919D031816190644F421E04CE070E04D
:1050A00060E086E493E00E94C60B00910402109138
:1050B0000502B8018EE993E00E94470CB80186E42E
:1050C00093E00E94470C1092200360E272E08CE0B3
:1050D00093E00E94E53360E272E088EF92E00E9484
:1050E000E53301E814E0D8018C91811105C062E03C
:1050F00011968C910E94A505035F1F4FB8E00E39F1
:105100001B0789F70E9421096B017C010BE512E066
:10511000FE0131965F01F0ECCF16F2E1DF06E1040B
:10512000F1040CF450C221E230E042E250E060E2CF
:1051300070E086E294E00E94910826E230E047E2C7
:1051400050E065E270E087E194E00E9491082CE273
:1051500030E041E350E06BE270E088E094E00E94D0
:1051600091088AE08093FF0361E00E94A5058BE02F
:105170008093000461E00E94A5058CE08093010407
:1051800061E00E94A5058FEF93E00E949C0C89E0EE
:105190008093F60361E00E94A50587E08093F70302
:1051A00061E00E94A50588E08093F80361E00E9419
:1051B000A50586EF93E00E949C0CE091100BF09106
:1051C000110B82E08083E0910C0BF0910D0B1082AB
:1051D000E0910E0BF0910F0B80E180831092180B81
:1051E000E091140BF091150B86E08083E091120B97
:1051F000F091130B808180618083E091120BF0911C
:10520000130B808188608083E091120BF091130B67
:10521000808180688083E091120BF091130B808174
:105220008F7D80836BE374E083E00E94BE0F87ED87
:105230009FE09093F60D8093F50D84EF92E19093AB
:10524000FA0D8093F90D82ED9FE09093FC0D809311
:10525000FB0D8EE89DE09093000E8093FF0D82E998
:105260009DE09093020E8093010E84E899E1909363
:10527000040E8093030E88E59EE090930C0E8093BD
:105280000B0E89E79EE090930E0E80930D0E85E83D
:105290009EE09093100E80930F0E89E99EE090930C
:1052A000120E8093110ECC24CA94DC2C7601C0928D
:1052B0000404D0920504E0920604F09207048FEFF4
:1052C00093E00E949C0CC092FB03D092FC03E092FE
:1052D000FD03F092FE0386EF93E00E949C0C70E0C9
:1052E00060E08FE59EE00E94160720E0DC014C9113
:1052F00064E070E08EE993E00E94270C61E070E0CA
:105300008FE59EE00E94160720E0FC01408163E0EB
:1053100070E08EE993E00E94270C62E070E08FE578
:105320009EE00E94160720E0DC014C9162E070E0F4
:105330008EE993E00E94270C63E070E08FE59EE029
:105340000E94160720E0FC01408161E070E08EE9D8
:1053500093E00E94270C64E070E08FE59EE00E94DD
:10536000160720E0DC014C9170E060E08EE993E0EC
:105370000E94270C70E060E089E59EE00E9416071D
:1053800020E0FC01408164E070E086E493E00E944C
:10539000270C61E070E089E59EE00E94160720E09E
:1053A000DC014C9163E070E086E493E00E94270CFE
:1053B00045E062E070E086E493E00E94590C63E00F
:1053C00070E089E59EE00E94160720E0FC01408124
:1053D00061E070E086E493E00E94270C64E070E0F6
:1053E00089E59EE00E94160720E0DC014C9170E008
:1053F00060E086E493E00E94270C68EE73E080E0B2
:1054000090E00E94D70670E060E08EE993E00E9491
:105410006D0C70E060E086E493E00E946D0C1092E9
:1054200004041092050410920604109207048FEFF2
:1054300093E00E949C0C1092FB031092FC031092CC
:10544000FD031092FE0386EF93E00E949C0C1092E5
:10545000EE021092ED020E9434158E010F5F1F4F75
:10546000EBE52E2EE2E03E2E552453944424439443
:105470000E94060655E3E52E54E0F52ED12CC12CF2
:105480006FE0662E712CD701ED91FD918081ED9139
:10549000FD919081ED91FD916C9163708E2309F0E7
:1054A00064609F2309F06860E0E6FAE2E60FF11D10
:1054B000659565956D936D917D918D919D91099403
:1054C00023C01AC012C016C010C01EC009C014C02C
:1054D00013C006C019C009C00DC007C00DC014C05C
:1054E00062507040804090400BC0615070408040DE
:1054F000904006C06E5F01C06F5F7F4F8F4F9F4F20
:105500009E938E937E936E93F70187819085A185FC
:10551000B28541895289638974894A015B01F3E04C
:105520008F0E911CA11CB11C88169906AA06BB06F9
:105530000CF02EC2F701818B928BA38BB48B8091E0
:10554000F302882331F1B6016854744FCE014B96B3
:105550000E946012BE01655E7F4FCE0145960E949B
:10556000981264EE72E0CE0145960E94FC11BC01D7
:10557000C8010E949812C8010E948A13C8010E94A3
:10558000CC11CE0145960E94CC11CE014B960E94C3
:10559000CC11F1E0CF16D10409F074C387E10E9469
:1055A0000604892B09F086C08091F1029091F202E5
:1055B00008968F3F910511F00CF058C09093F202BD
:1055C0008093F10259C020E04EE664E070E08EE97D
:1055D00093E00E94270C20E04FE663E070E08EE944
:1055E00093E00E94270C4EE362E070E08EE993E0C6
:1055F0000E94590C20E045E361E070E08EE993E001
:105600000E94270C4FE170E060E08EE993E00E9479
:10561000590CFF92EF92DF92CF921F930F93BF929C
:10562000AF920E94EC33C5010E94031468EE73E050
:1056300080E090E00E94D7060E9421096B017C0166
:1056400087E10E9406040FB6F894DEBF0FBECDBFFF
:10565000892B09F060CD86E10E940604892B09F0B0
:105660005ACD61CDCC24C394D12C0DCF2FEF30E097
:105670003093F2022093F1028091F1029091F202B4
:105680000E94410A8091F3028823A1F06091F10207
:105690007091F202C8010E946012B8018CE00E9471
:1056A000B212C8010E94CC11ABE1EA0EF11CCA94FF
:1056B000CD28C1F60E940A07C0902103D090220392
:1056C000E0902303F09024036C197D098E099F0953
:1056D000633371058105910508F47FC086E294E08B
:1056E0000E94AB0887E194E00E94AB0888E094E058
:1056F0000E94AB088091F302882309F440C0F12C8A
:10570000E12C3DE0932E9E9CC0019F9C900D1124A6
:10571000FC01EF57FB4F6F0182819381805D9740C1
:105720008C32914008F08BC1C7010E94160BD60144
:105730001C962C91022E000C330B8217130609F4D1
:105740007EC1C7010E94160B8111C2C188E00E9470
:10575000A90FD60112968D919C910E946F0FF601B0
:1057600082850E948D0F0E94D30ED6011C961C923A
:10577000BFEFEB1AFB0AE1E5EE16F10424F287E134
:105780000E940604892B39F486E10E940604892BC5
:1057900011F40E943415809120038823A1F087E141
:1057A0000E940604019779F486E10E94060401979D
:1057B00051F48CE093E00E94531888EF92E00E942D
:1057C0000314109220030E940A0760932103709330
:1057D000220380932303909324030E940A07C0901E
:1057E000F402D090F502E090F602F090F7026C1906
:1057F0007D098E099F09613E73498440910500F13E
:1058000070E060E08EE993E00E946D0C70E060E073
:1058100086E493E00E946D0C0E94C90C90E080E049
:105820000E94410A81E090E00E9470090E940A07EC
:105830006093F4027093F5028093F6029093F7025E
:105840008091A40B81111BC28091EE0D9091EF0D00
:10585000DC01ED91FC910084F185E02D1995892BF7
:1058600009F40DC28091EE0D9091EF0DDC01ED91E8
:10587000FC910084F185E02D1995A12C22E0B22E37
:105880008115924064F48091EE0D9091EF0DDC0152
:10589000ED91FC910084F185E02D19955C01E0907B
:1058A000EE0DF090EF0D96EE892E9BE0992E3401CF
:1058B000D12CC12CAC14BD0409F0A1C1F12CE12CF8
:1058C000AE14BF0409F4BCCFD4019D914D011092D8
:1058D000E60D3091F20D2091A30B9093A30B93133F
:1058E00004C0921302C01092A30B80919F0BE82F6B
:1058F000F0E04091F00DE356F44F9413A6C1321737
:1059000009F4A3C11186882321F04092E60D10927C
:10591000A30B10929F0B1092EA0D1092E90D1092BA
:10592000EC0D1092EB0D4092E70DD090E60DB1E03A
:10593000DB12A1C10E944E03882309F490C1D092CA
:10594000E70DD092E80D8091E90D9091EA0D0E944B
:10595000822F80939E0B823308F086C12091E80D40
:10596000222309F481C1FC01FF27EE0FFF1FEB503A
:10597000F24F0190F081E02D309709F475C119952F
:105980007AC170920502609204028EC10596BBC175
:10599000435051096109710984179507A607B70794
:1059A0000CF082CEF701818B928BA38BB48B80910C
:1059B000F302882331F1B6016854744FCE014B963F
:1059C0000E946012BE01655E7F4FCE0145960E9427
:1059D000981267EE72E0CE0145960E94FC11BC0160
:1059E000C8010E949812C8010E948A13C8010E942F
:1059F000CC11CE0145960E94CC11CE014B960E944F
:105A0000CC11F1E0CF16D10409F0EDC187E10E947D
:105A10000604892B09F04ECE8091F1029091F2029A
:105A2000089797FFCBCD1092F2021092F10224CE8C
:105A30001092050210920402E6C1059713C29E9CC3
:105A4000C0019F9C900D1124FC01EF57FB4F6F018B
:105A5000828193819C012C5F38402436310508F007
:105A6000A0C05701FFEFAF1ABF0AC7010E94160B73
:105A7000D6011C962C91022E000C330B82171306B4
:105A8000C9F1C7010E94160B811148C088E00E942D
:105A9000A90F9E9CC0019F9C900D1124FC01EF5703
:105AA000FB4F7F01828193810E946F0FD7011A966D
:105AB0008C910E948D0F0E94D30EF70114869A9C40
:105AC000F0019B9CF00D1124EF57FB4F548624C02E
:105AD00088E00E94A90FF601828193810E946F0FD6
