:100000000C94F9020C942A030C942A030C942A03EE
:100010000C942A030C942A030C942A030C942A03AC
:100020000C942A030C942A030C942A030C942A039C
:100030000C942A030C942A030C942A030C942A038C
:100040000C942A030C942A030C942A030C942A037C
:100050000C942A030C942A030C942A030C94F4188D
:100060000C942A030C9468190C943E190C942A03DE
:100070000C942A030C942A030C942A030C942A034C
:100080000C942A030C942A030C942A030C942A033C
:100090000C942A030C942A030C942A030C942A032C
:1000A0000C942A030C942A030C942A030C942A031C
:1000B0000C942A030C942A030C942A030C942A030C
:1000C0000C942A030C942A030C942A030C942A03FC
:1000D0000C942A030C942A030C942A030C942A03EC
:1000E0000C942A030C94550A0C94E9030C94410ACD
:1000F0000C948C060C94A60A0C944C180C94D10306
:100100000C94F7030C9463070C94BA0A0C94CE0A6F
:100110000C94600E0C9451050C94B00A0C94550D7F
:100120000C944D060C94C40A0C948D0A0C94770719
:100130000C944F050C94710A0C94E5030C94D80AA6
:100140000C9485070C949B060C941F0E0C9495063A
:100150000C94460A0C94BC030C949E0F0C94560607
:100160000C94C6030C948F060C94FC2D0C940A0876
:100170000C94FD030C9470060C9450060C944905E5
:100180000C94DB030C941E060C94830A0C94CE038F
:100190000C944B0A0C94FC030C94790A0C944B05B8
:1001A0000C9459060C94400E0C94E1030C944D05EC
:1001B0000C94990F0C9454070C945F0A0C945305FB
:1001C0000C9427070C944C0E0C94F3030C94D70357
:1001D0000C94CA030C9455050C9492060C94BD071C
:1001E0000C94BB120C945C060C94590D0C9498065C
:1001F0000C94690A0C94970A0C944A060C945306C2
:100200000C949E190C9401040C94EF030C94C203FB
:10021000554E4B4E4F574E20434F4D4D414E44008F
:100220004144442C31342C4547545F4F4646534596
:10023000542C53382C52572C454754204F66667324
:1002400065742C43656C73697573206465677265AA
:1002500065732066726F6D202D31323720746F20E8
:100260003132372C504552534953543D31004144AB
:10027000442C31332C5649525455414C5F504F5702
:1002800045522C55382C52572C5669727475616C36
:1002900020506F7765722C4F564552484541442097
:1002A0007669727475616C20706F7765722030208A
:1002B0006F7220312C504552534953543D31004107
:1002C00044442C31322C4241434B4C494748545F03
:1002D0004252492C55382C52572C4261636B6C6941
:1002E000676874204272696768746E6573732C4F17
:1002F000766572686561642070616E656C2062610C
:10030000636B6C69676874206272696768746E6594
:1003100073732066726F6D203020746F2032353514
:100320002C504552534953543D31004144442C31E3
:10033000312C444953504C41595F4252492C553855
:100340002C52572C446973706C6179732042726926
:100350006768746E6573732C566F6C746D65746525
:100360007273206469676974732062726967687464
:100370006E6573732066726F6D203020746F20314C
:10038000352C504552534953543D3100504F4E4740
:100390000053544154455343414E00535441544536
:1003A0005343414E00414C4C4F574C4F43414C3D01
:1003B00031005049443D4346543733374F56484344
:1003C0004F4D50414354005649443D314C3250004A
:1003D000415554484F523D333630623831326566AC
:1003E00031306433336535343537656537623431E0
:1003F000323834353336660043465420373337209D
:100400004F564820434F4D50414354007B36613096
:1004100061303562392D613734312D343139322D27
:10042000383563352D303461383433383530303435
:10043000627D005350414400415454414348494E69
:10044000472043414C4C4241434B53210000002183
:1004500000240027002A002D003000330001010095
:1004600000040107010A0100002200250028002BDA
:10047000002E003100340002010000050108010BCC
:1004800001000020002300260029002C002F00324C
:10049000000001000003010601090105050505072B
:1004A0000508080808020202020A0A0808040404EF
:1004B000040101010101010101030303030303031B
:1004C00003040707070C0C0C0C0C0C0C0C020202AA
:1004D0000206060606060606060B0B0B0B0B0B0B9D
:1004E0000B0102102020080810204010204080023C
:1004F000010201080402010102040810204080806A
:1005000040201008040201800402018040201008ED
:1005100004020108040201010204081020408001C5
:100520000204081020408000000A0B02090C0D0E86
:1005300008070304010000000000000000000000A4
:1005400000000000000000000000000000000000AB
:100550000000001211100000000000000000000068
:10056000000000000000000000000000007E306D70
:1005700079335B5F707F7B771F0D3D4F4700000035
:10058000000000000000000000000000000000006B
:10059000000000000000000000800180007E306D3F
:1005A00079335B5F707F7B00000000000000771FE5
:1005B0000D3D4F4700370000000E000000670000AF
:1005C0000000000000000000000000000800771F8D
:1005D0000D3D4F4700370000000E00151D6700005D
:1005E00000000000000000000000000000009E1954
:1005F000FC2D11241FBECFEFD1E2DEBFCDBF00E046
:100600000CBF2EE0ACEEB2E001C01D92A936B207DD
:10061000E1F712E0A0E0B2E0E0E1FBE600E00BBFB2
:1006200002C007900D92AC3EB107D9F712E0C8EFB7
:10063000D2E000E006C021970109802FFE010E9450
:100640005330C73FD10780E00807A9F70E94702602
:100650000C9476350C940000AC011092A20B909192
:10066000F20D8091F10DFA01BF01641B750B209111
:10067000A20B30813093A20B931304C0921302C0DB
:100680001092A20B3081311104C0921721F0CB01DE
:1006900008953817D1F33196E7CF0F931F93CF9377
:1006A000DF938091E60D882309F446C0D0E0C0E0D6
:1006B000813029F482E08093E60DC6EADBE0809188
:1006C000E70D882341F1209721F4C091EB0DD091E3
:1006D000EC0D8E01CE010E942C03892B29F421966A
:1006E000F80180818111F5CFF8018081882309F11B
:1006F000C8010E942C03F801E80FF91F80818823AC
:1007000011F010823196F093EC0DE093EB0D109305
:10071000EA0D0093E90D8091E90D9091EA0D892B86
:1007200059F081E08093E70DDF91CF911F910F91F8
:10073000089510E000E0EBCF80E0F6CF81508231E9
:1007400008F05AC0E82FF0E08827E655FC4F8F4F9D
:100750000C945330CA03CE03BC03C203C603FC038C
:10076000D103D703DB03E103E503E903EF03F3035D
:10077000FC03F703FD030104809180008F778093D1
:1007800080000895809180008F7DF9CF8091800056
:10079000877FF5CF84B58F7784BD089584B58F7D2D
:1007A000FBCF8091B0008F778093B0000895809147
:1007B000B0008F7DF9CF809190008F77809390006B
:1007C0000895809190008F7DF9CF80919000877F70
:1007D000F5CF8091A0008F778093A000089580913D
:1007E000A0008F7DF9CF8091A000877FF5CF809109
:1007F00020018F77809320010895809120018F7DC3
:10080000F9CF80912001877FF5CFCF93DF93282FF9
:1008100030E0F901E95DFA4F8491F901EF51FB4FA6
:10082000D491F901E556FB4FC491CC23A1F081117D
:100830000E949E03EC2FF0E0EE0FFF1FEF57FB4FDF
:10084000A591B491EC91ED2381E090E009F480E072
:10085000DF91CF91089580E090E0FACF1F93CF937E
:10086000DF93282F30E0F901E95DFA4F8491F90117
:10087000EF51FB4FD491F901E556FB4FC491CC23C6
:10088000A9F0162F81110E949E03EC2FF0E0EE0FCD
:10089000FF1FE959FB4FA591B4918FB7F894EC91E4
:1008A000111108C0D095DE23DC938FBFDF91CF916B
:1008B0001F910895DE2BF8CFCF93DF93CEE2D3E0E4
:1008C00060E08A810E942E0460E08C810E942E04E8
:1008D00060E08E810E942E0461E088850E942E04D3
:1008E00081E090E099838883DF91CF910895CF9341
:1008F000DF93CEE2D3E060E08A810E942E0460E0C4
:100900008C810E942E0461E08E810E942E0461E0A1
:1009100088850E942E0482E090E099838883DF918D
:10092000CF910895CF93DF93CEE2D3E060E08A8148
:100930000E942E0460E08C810E942E0461E08E8172
:100940000E942E0460E088850E942E0483E090E0DF
:1009500099838883DF91CF910895CF93DF93CEE27F
:10096000D3E060E08A810E942E0461E08C810E94C5
:100970002E0461E08E810E942E0460E088850E9432
:100980002E0484E090E099838883DF91CF910895CD
:10099000CF93DF93CEE2D3E060E08A810E942E0401
:1009A00061E08C810E942E0460E08E810E942E0402
:1009B00060E088850E942E0485E090E0998388831A
:1009C000DF91CF910895CF93DF93CEE2D3E061E042
:1009D0008A810E942E0461E08C810E942E0460E0D6
:1009E0008E810E942E0460E088850E942E0486E09D
:1009F00090E099838883DF91CF910895CF93DF931F
:100A0000CEE2D3E061E08A810E942E0460E08C8116
:100A10000E942E0460E08E810E942E0460E0888592
:100A20000E942E0487E090E099838883DF91CF9124
:100A30000895CF93DF93CEE2D3E061E08A810E94F4
:100A40002E0460E08C810E942E0460E08E810E9462
:100A50002E0461E088850E942E0419821882DF919D
:100A6000CF910895E0912E03F0912F033197E73055
:100A7000F10568F48827E05CFA4F8F4F0C945330EF
:100A800049054B054D054F055105530555050C947A
:100A900019050C945C040C9477040C9492040C9447
:100AA000AD040C94C8040C94E3040C94FE04CF939E
:100AB000DF93CEE2D3E01F861E8660E08A810E942B
:100AC0002E0460E08C810E942E0460E08E810E94E2
:100AD0002E0460E08885DF91CF910C942E04CF9393
:100AE000DF9390E0FC01EF51FB4F249185569B4F23
:100AF000FC0184918823C9F090E0880F991FFC01C4
:100B0000E35BFB4FA591B491FC01E959FB4FC59103
:100B1000D49161110DC09FB7F8948C9120958223D8
:100B20008C938881282328839FBFDF91CF910895DC
:100B3000623051F49FB7F8943C91822F80958323C3
:100B40008C93E8812E2BEFCF8FB7F894EC912E2B5E
:100B50002C938FBFEACF3FB7F89480912A039091EE
:100B60002B03A0912C03B0912D0326B5A89B05C0A3
:100B70002F3F19F00196A11DB11D3FBFBA2FA92F1C
:100B8000982F8827BC01CD01620F711D811D911D19
:100B900042E0660F771F881F991F4A95D1F7089585
:100BA000CF92DF92EF92FF9280913C0390913D03B0
:100BB000892B31F481E0FF90EF90DF90CF90089582
:100BC0000E94AB056B017C0180914203909143032D
:100BD000A0914403B0914503B701A601481B590BEE
:100BE0006A0B7B0B80913E0390913F03A0914003E1
:100BF000B0914103481759076A077B0708F449C0B9
:100C0000E0912E03F0912F0380913C0390913D03DE
:100C1000181619060CF053C0E830F10508F03AC078
:100C20008827EA5EF94F8F4F0C9453301E064A0610
:100C30004D0650065306560659065C060E94FE04F1
:100C400080913A0390913B03019690933B038093EC
:100C50003A0320913803309139038217930721F426
:100C600010923B0310923A0380913C0390913D0314
:100C7000019790933D0380933C03892B11F40E94CC
:100C80005705C0924203D0924303E0924403F0928E
:100C9000450391CF0E941905D3CF0E945C04D0CFA9
:100CA0000E947704CDCF0E949204CACF0E94AD0467
:100CB000C7CF0E94C804C4CF0E94E304C1CFE7306D
:100CC000F10508F03BC08827E759F94F8F4F0C9486
:100CD000533070068C068F069206950698069B0682
:100CE0000E945C0480913A0390913B03019790939A
:100CF0003B0380933A0397FF09C08091380390919A
:100D00003903019790933B0380933A0380913C030E
:100D100090913D030196ADCF0E947704E3CF0E94EE
:100D20009204E0CF0E94AD04DDCF0E94C804DACF68
:100D30000E94E304D7CF0E94FE04D4CF0E9419057D
:100D4000D1CF8F929F92AF92BF92CF92DF92EF92CC
:100D5000FF926B017C010E94AB054B015C01C11449
:100D6000D104E104F104B9F00E94AB0568197909D6
:100D70008A099B09683E73408105910580F321E053
:100D8000C21AD108E108F10888EE880E83E0981EA7
:100D9000A11CB11CE4CFFF90EF90DF90CF90BF90EB
:100DA000AF909F908F9008952FB7F894609126038D
:100DB0007091270380912803909129032FBF0895F4
:100DC000FC01248135816217730720F480819181B1
:100DD000009729F41092EE028EEE92E00895860FAD
:100DE000971F0895DC01ED91FC910190F081E02DB9
:100DF0001994EF92FF920F931F93CF93DF9320915B
:100E00009D0B2223E9F08C016091F10D8091EE0D94
:100E10009091EF0D0E94F206E090EE0DF090EF0D34
:100E2000E801FE016491662359F0D701ED91FC9130
:100E30000190F081E02DC70119952196892B89F742
:100E4000DF91CF911F910F91FF90EF900895AF9296
:100E5000BF92CF92DF92EF92FF920F931F93CF93A7
:100E6000DF936C017B018B01040F151FEB015E0109
:100E7000AE18BF08C017D10759F06991D601ED919E
:100E8000FC910190F081E02DC6011995892B79F72D
:100E9000C501DF91CF911F910F91FF90EF90DF90EF
:100EA000CF90BF90AF900895FC01538D448D252FB6
:100EB00030E0842F90E0821B930B541710F0CF96F4
:100EC000089501970895FC01918D828D981761F026
:100ED000A28DAE0FBF2FB11D5D968C91928D9F5F3D
:100EE0009F73928F90E008958FEF9FEF0895FC011C
:100EF000918D828D981731F0828DE80FF11D858DCF
:100F000090E008958FEF9FEF0895FC01918D228D61
:100F1000892F90E0805C9F4F821B91098F739927E6
:100F2000089580E09BE00E94850721E0892B09F469
:100F300020E0822F0895FC01A48DA80FB92FB11DC8
:100F4000A35ABF4F2C91848D90E001968F739927FF
:100F5000848FA689B7892C93A089B1898C918370DD
:100F600080648C93938D848D981306C00288F389D6
:100F7000E02D80818F7D80830895EF92FF920F9303
:100F80001F93CF93DF93EC0181E0888F9B8D8C8D35
:100F900098131AC0E889F989808185FF15C09FB729
:100FA000F894EE89FF896083E889F98980818370EC
:100FB000806480839FBF81E090E0DF91CF911F919B
:100FC0000F91FF90EF900895F62E0B8D10E00F5FBC
:100FD0001F4F0F731127E02E8C8D8E110CC00FB692
:100FE00007FCFACFE889F989808185FFF5CFCE012A
:100FF0000E949B07F1CFEB8DEC0FFD2FF11DE35A03
:10100000FF4FF0829FB7F8940B8FEA89FB898081AC
:101010008062CFCFCF93DF93EC01888D8823B9F026
:10102000AA89BB89E889F9898C9185FD03C08081F3
:1010300086FD0DC00FB607FCF7CF8C9185FFF2CF70
:10104000808185FFEDCFCE010E949B07E9CFDF9124
:10105000CF91089580E090E0892B29F00E949107BC
:1010600081110E94000080E090E0892B49F080E02F
:1010700090E0892B29F00E94000081110E9400005D
:1010800080E090E0892B49F080E090E0892B29F006
:101090000E94000081110E94000080E090E0892BF6
:1010A00049F080E090E0892B29F00E940000811136
:1010B0000C94000008950F931F93CF93DF93EC01DE
:1010C000862F042F122F688361E00E946F050A8328
:1010D00060E0802F0E946F051B8361E0812FDF910C
:1010E000CF911F910F910C946F05CF92DF92EF92E9
:1010F000FF920F931F93CF93DF93EC018B859C8519
:10110000AD85BE858F839887A987BA8760E088817F
:101110000E942E048E8190E08230910538F0880F75
:10112000991F880F991F05970197F1F761E0888152
:101130000E942E0410E000E0C12CD12C76018C819D
:101140009D810817190778F58A810E940504092EE8
:10115000000CAA0BBB0B2C813D8121503109201BB7
:10116000310B04C0880F991FAA1FBB1F2A95D2F705
:10117000C82AD92AEA2AFB2A61E08B810E942E0420
:101180008E8190E08230910538F0880F991F880F8A
:10119000991F05970197F1F760E08B810E942E045B
:1011A0000F5F1F4FCCCFCB86DC86ED86FE8681E0BD
:1011B0004F81588569857A854C155D056E057F05DB
:1011C00009F480E0DF91CF911F910F91FF90EF9094
:1011D000DF90CF9008958EE580937C0062E070E010
:1011E00080E090E00E94A10680917A008064809364
:1011F0007A0080917A0086FDFCCF80917800209162
:10120000790030E0322F2227032E000C440B550BBF
:10121000282B64EB7BE281E190E00E943430CA012C
:10122000B9010895CF93DF93609102027091030298
:10123000680F791F072E000C880B990B0E94BF2E98
:1012400024E13EEA47E250E40E94FA2E0E94C82FB1
:101250002091EC023091ED02C901860F971F97FD96
:10126000905F60E070E10E94FE2FEC0181159041DB
:1012700060F50E94320580913A0390913B039E01F4
:10128000281B390BC90130933D0320933C03209167
:10129000380330913903BC0197FF04C066277727D4
:1012A000681B790BA90137FF02C04F5F5F4F55954F
:1012B0004795461757074CF4181619064CF4821B2D
:1012C000930B90933D0380933C03DF91CF9108955E
:1012D000820F931FF6CFCF93DF93EC0180913C03F5
:1012E00090913D03892B11F00E945705CE010E9479
:1012F0001209D0930102C0930002DF91CF910895AB
:10130000CF93DF93009751F42091EF023091F002D8
:10131000232B41F0DF91CF910C946B0989312CEF95
:101320009207C1F7CAE0D0E080913C0390913D0361
:10133000892BC9F080913C0390913D03892B31F4B6
:101340000E943205D0933D03C0933C030E94D00518
:1013500087E10E940504892B39F786E10E94050484
:10136000892B11F705C08DE20E940504892B11F32A
:101370000E94320584E690E090933D0380933C0305
:1013800080913C0390913D03892B09F5C6EFDFEF77
:1013900080913C0390913D03892BE1F080913C03C7
:1013A00090913D03892B31F40E943205D0933D0387
:1013B000C0933C030E94D00587E10E940504892B5D
:1013C00039F786E10E940504892B11F708C00E94B5
:1013D000D005D6CF8DE20E9405040197F9F28091E5
:1013E0003A0390913B039093ED028093EC021092AC
:1013F00001021092000290E080E00E94120981E058
:1014000090E09093F0028093EF02DF91CF910895E6
:10141000CF93DF93EC0161E083E00E946F0520979A
:1014200059F460E083E00E942E04D093F202C0934E
:10143000F102DF91CF910895CF3FD10511F461E022
:10144000F1CFEAE2F5E0E491E150E23108F0B0C01A
:10145000F0E08827E15DF54F8F4F0C945330410A3F
:10146000460A4B0A550A5F0AD80A690A710A790ABC
:10147000830A8D0A970AA60AB00AD80ABA0AC40AC9
:10148000CE0A84B5806884BDC7BDCFCF84B58062E5
:1014900084BDC8BDCACF80918000806880938000E1
:1014A000D0938900C0938800C0CF80918000806273
:1014B00080938000D0938B00C0938A00B6CF809138
:1014C0008000886080938000D0938D00C0938C0052
:1014D000ACCF8091B00080688093B000C093B3001F
:1014E000A4CF8091B00080628093B000C093B4001C
:1014F0009CCF80919000806880939000D093990059
:10150000C093980092CF8091900080628093900069
:10151000D0939B00C0939A0088CF80919000886000
:1015200080939000D0939D00C0939C007ECF8091CB
:10153000A00080688093A0008091A0008F7B8093A2
:10154000A000D093A900C093A8006FCF8091A00005
:1015500080628093A000D093AB00C093AA0065CFB7
:101560008091A00088608093A000D093AD00C093CC
:10157000AC005BCF80912001806880932001D093E4
:101580002901C093280151CF80912001806280936E
:101590002001D0932B01C0932A0147CF80912001D5
:1015A000886080932001D0932D01C0932C013DCF02
:1015B000C038D1050CF043CF34CF2DE0289FF00187
:1015C000299FF00D1124EF57FB4F8081811109C035
:1015D00081810E94050421E0892B09F420E0822FFB
:1015E0000895813099F421818091310490913204E1
:1015F000A0913304B091340404C0B695A795979593
:1016000087952A95D2F7282F2170E9CF823051F49F
:1016100021818091220490912304A0912404B0910F
:101620002504EACF21E08330D1F621818091130493
:1016300090911404A0911504B0911604DDCF0F937E
:101640001F93CF93DF93EC01062F142F62E0802FBE
:101650000E946F0562E0812F0E946F05602F70E08D
:10166000FB01E556FB4FE491F0E0EE0FFF1FEF5753
:10167000FB4FA591B491B983A8836F517B4FFB01B8
:1016800064916C83812F90E0FC01E556FB4FE4915F
:10169000F0E0EE0FFF1FEF57FB4F259134913B8396
:1016A0002A838F519B4FFC0184918D831F82188662
:1016B00019861A86EBE3FFE13197F1F7EC91E62307
:1016C00091E009F490E0D901EC918E2309F0926049
:1016D0009E83DF91CF911F910F9108950F931F93D8
:1016E000CF93DF93082F162FD42FC8E06D2F661FDE
:1016F0006627661F802F0E942E04DD0F61E0812F78
:101700000E942E0460E0812F0E942E04C15071F7C8
:10171000DF91CF911F910F9108958F929F92AF9279
:10172000BF92CF92DF92EF92FF920F931F93CF93CE
:10173000DF931F921F92CDB7DEB78C0149832A83B6
:10174000660F771FF801EA5AFF4FE080F180EE0C38
:10175000FF1CF801CF01801B910B8E159F0514F41F
:101760001192F8CF8981F801E60FF71F81838A81F2
:101770008083680184E5C80ED11C60E0F601808199
:101780000E942E044801F2E58F0E911C580180E55D
:10179000A80EB11C1E141F0474F4E1E0EE1AF10847
:1017A000F801EE0DFF1D4081F4016081F50180819B
:1017B0000E946E0BEFCF61E0F60180810F900F90D9
:1017C000DF91CF911F910F91FF90EF90DF90CF901D
:1017D000BF90AF909F908F900C942E04E42FDC016B
:1017E000AA5ABF4F4D915C9114161506B4F4E7FD4B
:1017F000E0E20E2E000CFF0BE359FA4FE4912111A9
:10180000E068DC01A60FB71F5096EC9341E0460F4D
:101810002E2F70E060E00C948D0B0895FC01EA5AC5
:10182000FF4F20813181121613064CF4603171058F
:1018300030F4262F4AE070E060E00C948D0B0895A0
:10184000242FFC01EA5AFF4F4081518114161506DE
:1018500054F4FC01E60FF71F208B41E0460F70E0C7
:1018600060E00C948D0B0895DF92EF92FF920F933E
:101870001F93CF93DF93FC01EA5AFF4F2081318100
:1018800062177307C4F47B018C01EB0183E0CC0F7A
:10189000DD1F8A95E1F76096C00FD11FDD24D39438
:1018A000199220E04D2DB701C8010E948D0BD394F1
:1018B00089E0D812F5CFDF91CF911F910F91FF9062
:1018C000EF90DF9008950F931F93CF93DF93EC0178
:1018D00010E000E04D815E816F817885002E04C0AC
:1018E00076956795579547950A94D2F769818881CF
:1018F0000E946E0B085F1F4F0831110559F761E018
:101900008A810E942E0460E08A810E942E046D81EB
:101910007E818F819885DF91CF911F910F910895DE
:10192000CF93DF93109204041092050410920604E2
:10193000109207048FEF93E00E94630C1092FB0358
:101940001092FC031092FD031092FE0386EF93E0C9
:101950000E94630CCEE9D8E08881811104C060E068
:1019600089810E942E042D968AE0C43FD807A1F7F2
:10197000DF91CF9108958F929F92AF92BF92CF92B5
:10198000DF92EF92FF920F931F93CF93DF938C011F
:10199000D62EC72EEC01C05BDF4F688379834C01E4
:1019A00082E5880E911CF401518340835801F4E5CF
:1019B000AF0EB11CF501318320837801F6E5EF0EFF
:1019C000F11C81E090E0F7019183808361E08D2D2F
:1019D0000E946F0561E0F40180810E946F0561E063
:1019E000F50180810E946F0561E0F50180810E9410
:1019F0002E04D882C982F80170961192EC17FD0767
:101A0000E1F7D0E0C0E0F70180819181C817D907E4
:101A100054F520E04FE0BE01C8010E948D0BF70194
:101A200080819181C817D90734F427E04BE0BE01CB
:101A3000C8010E948D0B20E049E0BE01C8010E9450
:101A40008D0BBE01C8010E94340CF7018081918189
:101A5000C817D90734F420E04CE0BE01C8010E9449
:101A60008D0B2196D0CFDF91CF911F910F91FF90D9
:101A7000EF90DF90CF90BF90AF909F908F900895A0
:101A80000E944D03882359F081E08093E70D8093F5
:101A9000E80D8091E90D9091EA0D0C94542E10926E
:101AA000E80D60E070E0CB0108950E94400D0C94B9
:101AB000400DCF92DF92EF92FF92CF93DF930E947F
:101AC000400D6B017C010E94400DAB01BC01EEE9B1
:101AD000F8E0D0E0C0E082819381092E000CAA0BCF
:101AE000BB0B8C159D05AE05BF0509F09BC08DE0B5
:101AF0008C9FF0018D9FF00D1124E256F74F8081ED
:101B000081112FC08181452B462B472B41F161E08C
:101B10000E942E048DE08C9FF0018D9FF00D11240A
:101B2000E256F74F8081813021F48FEF93E00E94DD
:101B3000630C8DE08C9FF0018D9FF00D1124E25617
:101B4000F74F8081823009F073C086EF93E0DF9118
:101B5000CF91FF90EF90DF90CF900C94630C60E0FA
:101B6000D7CF813071F5C0900404D0900504E09087
:101B70000604F0900704218181E090E0A0E0B0E04D
:101B800004C0880F991FAA1FBB1F2A95D2F7452BA7
:101B9000462B472B69F08C299D29AE29BF298093BC
:101BA000040490930504A0930604B0930704B2CFF5
:101BB00080959095A095B0958C219D21AE21BF2157
:101BC000EECF823009F0A6CFC090FB03D090FC038B
:101BD000E090FD03F090FE03218181E090E0A0E021
:101BE000B0E004C0880F991FAA1FBB1F2A95D2F727
:101BF000452B462B472B69F08C299D29AE29BF29FF
:101C00008093FB039093FC03A093FD03B093FE032A
:101C100081CF80959095A095B0958C219D21AE2186
:101C2000BF21EECF21963D96CE32D10509F053CF9C
:101C3000DF91CF91FF90EF90DF90CF900895CF92FA
:101C4000DF92EF92FF920E94400D6B017C0180E1D8
:101C5000C816D104E104F10470F4B6018EE993E0F2
:101C60000E940E0CB60186E493E00E940E0CD09206
:101C70000502C0920402FF90EF90DF90CF9008958C
:101C80000E94400D6F3F71058105910509F018F420
:101C9000CB010C94080A08950E94400D672B682B15
:101CA000692B41F461E083E00E946F0560E083E00E
:101CB0000C942E048091F1029091F2020C94080A87
:101CC000CF92DF92EF92FF920E94400D6B017C0158
:101CD00087E10E940504892BC9F0D701C60181580C
:101CE0009F4FAF4FBF4F8F3F9105A105B10570F4D6
:101CF000D0920302C09202028091000290910102F0
:101D0000FF90EF90DF90CF900C948009FF90EF90C0
:101D1000DF90CF900895FB0101900020E9F7319703
:101D2000AF01461B570BDC01ED91FC910280F38162
:101D3000E02D199480919D0B8823A1F06091F00D06
:101D40008091EE0D9091EF0D0E94F2068091A50B0F
:101D5000882341F06EE172E08091EE0D9091EF0DDD
:101D60000E948B0E1092A40B10929D0B80E00895A0
:101D70008F929F92AF92BF92EF92FF920F931F9319
:101D8000CF93DF93CDB7DEB7A1970FB6F894DEBF40
:101D90000FBECDBF7C01FA01CB0119A2223008F49D
:101DA0002AE08E010F5D1F4F822E912CB12CA12CA9
:101DB000BF01A50194010E941230F901CA016A30E5
:101DC0000CF5605DD8016E938D01232B242B252B00
:101DD00079F790E080E0109721F0BD01C7010E94E3
:101DE0008B0EA1960FB6F894DEBF0FBECDBFDF916C
:101DF000CF911F910F91FF90EF90BF90AF909F9068
:101E00008F900895695CDECFCF92DF92EF92FF92C0
:101E10000F931F93CF93DF9377FF1DC06A017B0160
:101E2000EC016DE20E94F2068C0144275527BA01AD
:101E30004C195D096E097F092AE0CE010E94B80E97
:101E4000800F911FDF91CF911F910F91FF90EF9025
:101E5000DF90CF9008952AE0DF91CF911F910F91ED
:101E6000FF90EF90DF90CF900C94B80ECF93DF935C
:101E700020919D0B2223A9F0EC016091F10D80913E
:101E8000EE0D9091EF0D0E94F206AE01DD0F660B94
:101E9000770B8091EE0D9091EF0DDF91CF910C9427
:101EA000040FDF91CF910895CF9390919D0B9923CB
:101EB000A9F0C82F6091F10D8091EE0D9091EF0D7A
:101EC0000E94F2064C2FCC0F550B660B770B8091BE
:101ED000EE0D9091EF0DCF910C94040FCF910895DA
:101EE00090919D0B911110C091E090939D0B909358
:101EF000A40B482F50E070E060E02AE08091EE0DE6
:101F00009091EF0D0C94B80E0895CF93DF939091BC
:101F10009D0B91110AC0EB010E94700FCE010E942F
:101F2000F906DF91CF910C949A0E80E0DF91CF916A
:101F3000089560E172E083E00C94850FCF92DF9208
:101F4000EF92FF920F931F93CF93DF930E944D0365
:101F5000882309F472C081E08093E70D8093E80D37
:101F6000C091E90DD091EA0D61E272E0CE010E94CC
:101F70009032892B09F066C080E00E94700F62E306
:101F800070E080E090E00E94A10683E394E00E946C
:101F9000F90662E370E080E090E00E94A1068CE028
:101FA00094E00E94F90662E370E080E090E00E9415
:101FB000A10688EF93E00E94F90662E370E080E0FA
:101FC00090E00E94A10682E090E00E94360F81E03E
:101FD00090E00E94360F80ED93E00E94F90662E3E4
:101FE00070E080E090E00E94A10687EC93E00E9400
:101FF000F90662E370E080E090E00E94A10682EBC7
:1020000093E00E94F90662E370E080E090E00E94B5
:10201000A10685EA93E00E94F90662E370E080E0A1
:1020200090E00E94A106DF91CF911F910F91FF9048
:10203000EF90DF90CF900C949A0E1092E80DD0E0C4
:10204000C0E092CF66E272E0CE010E9490328C0135
:10205000892B09F0B8C080E00E94700F8BE993E0F3
:102060000E94F90681E090E00E94360F0E949A0ECD
:1020700086E294E00E94750887E194E00E9475086A
:1020800088E094E00E9475088DE0C82EDD24D3948A
:10209000C09EE001C19ED00D1124CF57DB4F8A8135
:1020A0009B819C01205D37402C32314088F5C8016E
:1020B0000E94DD0A81110EC088E00E94700F8A81A3
:1020C0009B810E94360F8A850E94540F0E949A0EAF
:1020D0001C860DC088E00E94700F8A819B810E943F
:1020E000360F8B850E94540F0E949A0EDC860F5F7C
:1020F0001F4F0135110564F280E00E94700F81E9E5
:1021000093E00E94F90682E090E00E94360F8BCFA8
:102110009C012C5F38402436310508F048C0780116
:102120008FEFE81AF80AC8010E94DD0ACE9C8001F0
:10213000CF9C100D1124811112C088E00E94700FF5
:102140008A819B810E94360F8A850E94540F0E94CB
:102150009A0E1C86F801EF57FB4FD48618C0C701B2
:102160000E94DD0A811115C088E00E94700F0F5790
:102170001B4FF801828193810E94360FF8018285FE
:102180000E94540F0E949A0EF8011486DC86870183
:10219000AECF88E00E94700F8A819B810E94360F2B
:1021A0008B850E94540F0E949A0EDC86D3CF8056F6
:1021B00099408436910508F09ACFC8010E94DD0A43
:1021C000811195CF79CF60E372E0CE010E94903209
:1021D000892B59F50E94D4066093F4027093F5029E
:1021E0008093F6029093F70280E00E94700F8CE8D3
:1021F00093E00E94F9060E94400D6B017C018091E2
:102200009D0B882309F40FCF6091F10D8091EE0DA5
:102210009091EF0D0E94F206B701A6018091EE0D9C
:102220009091EF0D0E94040FFECE65E372E0CE01A7
:102230000E949032892BF1F40E94900C70E060E0D3
:1022400086E493E00E94340C70E060E08EE993E055
:102250000E94340C90E080E00E94080A81E090E047
:10226000DF91CF911F910F91FF90EF90DF90CF9072
:102270000C946B0969E372E0CE010E949032892BC5
:1022800009F048C06BE273E081E00E94850F62E3D1
:1022900070E080E090E00E94A1066FEB72E081E0C8
:1022A0000E94850F62E370E080E090E00E94A1064A
:1022B0006EE672E081E00E94850F62E370E080E0EC
:1022C00090E00E94A10660E272E081E00E94850F2A
:1022D00062E370E080E090E00E94A10680919D0B97
:1022E000811118C00E94700F80919D0B882309F402
:1022F0009ACE6091F10D8091EE0D9091EF0D0E94BC
:10230000F20669E372E08091EE0D9091EF0D0E946C
:102310008B0E89CEDF91CF911F910F91FF90EF909F
:10232000DF90CF900895FC0180819181009711F09A
:102330000C940B3108950F931F93CF93DF93EC010F
:1023400088819981009759F02A813B8126173707A8
:1023500030F081E0DF91CF911F910F9108958B01B3
:102360006F5F7F4F0E949431009759F09983888363
:102370001B830A832C813D81232B59F7FC0110829A
:10238000E8CF80E0E7CFEF92FF920F931F93CF93B8
:10239000DF93EC017B01FB0101900020E9F731970D
:1023A000E61BF70BA1F00C811D810E0F1F1FB8015A
:1023B0000E949B1128813981882389F08C819D811D
:1023C000B701820F931F0E9499321D830C83CE01A7
:1023D000DF91CF911F910F91FF90EF9008952115FC
:1023E000310519F0C9010E940B31198218821D8232
:1023F0001C821B821A82EBCFEF92FF920F931F93E6
:10240000CF93DF93EC017B018A01BA010E949B11FB
:1024100028813981811114C02115310519F0C901B4
:102420000E940B31198218821D821C821B821A8223
:10243000CE01DF91CF911F910F91FF90EF90089502
:102440001D830C83B701C9010E949932F1CFEF922D
:10245000FF920F931F93CF93DF93CDB7DEB76297B1
:102460000FB6F894DEBF0FBECDBF8C01CB01F801D3
:102470001182108213821282158214824AE09E0118
:102480002F5F3F4F7901B9010E947B2EF701019028
:102490000020E9F73197AF014E195F09B701C80174
:1024A0000E94FC1162960FB6F894DEBF0FBECDBF3E
:1024B000DF91CF911F910F91FF90EF900895FB0155
:1024C000DC0111961C921E9213961C921E9212977A
:1024D00015961C921E9214978617970749F06081F3
:1024E00071816115710521F0448155810C94FC11B5
:1024F00008950F931F93CF93DF9300D000D0CDB7F3
:10250000DEB790919D0B911134C08B010E94700F2A
:10251000B801CE0101960E945F1280919D0B882325
:10252000B9F06091F10D8091EE0D9091EF0D0E9448
:10253000F2068091EE0D9091EF0D4D815E816981E3
:102540007A81DC01ED91FC910280F381E02D1995F7
:10255000CE0101960E9493110E949A0E26960FB604
:10256000F894DEBF0FBECDBFDF91CF911F910F91C9
:10257000089580E0F3CF0F931F93CF93DF9300D0A4
:1025800000D0CDB7DEB70E944D03882309F455C0B3
:1025900081E08093E70D8093E80D0091E90D1091A3
:1025A000EA0D60E472E0C8010E949032892B09F0C4
:1025B00049C081E08093F3026091040270910502AA
:1025C000CE0101960E942712BE016F5F7F4F8BE004
:1025D0000E947912CE0101960E9493116091F1023E
:1025E0007091F202CE0101960E942712BE016F5F28
:1025F0007F4F8CE00E947912CE0101960E949311C8
:102600006091020270910302CE0101960E9427128E
:10261000BE016F5F7F4F8EE00E947912CE0101965E
:102620000E94931126960FB6F894DEBF0FBECDBF61
:10263000DF91CF911F910F9108951092E80D10E056
:1026400000E0AFCF66E472E0C8010E949032892BAF
:1026500039F06BE472E0C8010E949032892BC9F412
:102660001092F3020E94900C90E080E00E94080A11
:1026700070E060E086E493E00E94340C70E060E07B
:102680008EE993E00E94340C81E090E00E946B0997
:10269000C9CF65E372E0C8010E949032892B11F620
:1026A000DFCF0F931F93CF93DF9300D000D0CDB730
:1026B000DEB720919D0B211135C08C0188E00E946E
:1026C000700FB801CE0101960E945F1280919D0BA0
:1026D0008823B9F06091F10D8091EE0D9091EF0D8E
:1026E0000E94F2068091EE0D9091EF0D4D815E817A
:1026F00069817A81DC01ED91FC910280F381E02D0A
:102700001995CE0101960E9493110E949A0E269669
:102710000FB6F894DEBF0FBECDBFDF91CF911F91F2
:102720000F91089580E0F3CFFC0111821082138293
:10273000128215821482FB0101900020E9F7319783
:10274000AF01461B570B0C94FC11CF93DF93BC01D8
:10275000009771F0FC01D0E0C0E0CF01419144232B
:1027600039F09E012F5F3F4F4E3241F0E901F5CF26
:10277000CFEFDFEFCE01DF91CF910895620F731F8E
:10278000FB0101900020E9F7AF01461B570B0E94A7
:102790007E32F0CFEF92FF920F931F93CF93DF9390
:1027A000EC01FC0101900020E9F731977F01E81A64
:1027B000F90A0E94A5138C010F5F1F4F85E0E816F0
:1027C000F10408F442C021E00230110509F020E0D4
:1027D000488164E070E086E493E00E94EE0B21E023
:1027E0000330110509F020E0498163E070E086E4E0
:1027F00093E00E94EE0B21E00430110509F020E087
:102800004A8162E070E086E493E00E94EE0B21E0F2
:102810000530110509F020E04B8161E070E086E4AD
:1028200093E00E94EE0B21E00630110509F020E054
:102830004C8170E060E086E493E0DF91CF911F91DE
:102840000F91FF90EF900C94EE0B20E040E264E0DB
:1028500070E084E0E816F10479F586E493E00E94E4
:10286000EE0B21E00230110509F020E0488163E021
:1028700070E086E493E00E94EE0B21E00330110546
:1028800009F020E0498162E070E086E493E00E9474
:10289000EE0B21E00430110509F020E04A8161E0EF
:1028A00070E086E493E00E94EE0B21E00530110514
:1028B00009F020E04B81BDCF83E0E816F10459F523
:1028C00086E493E00E94EE0B20E040E263E070E0DB
:1028D00086E493E00E94EE0B21E00230110509F03E
:1028E00020E0488162E070E086E493E00E94EE0B15
:1028F00021E00330110509F020E0498161E070E03A
:1029000086E493E00E94EE0B21E00430110509F00B
:1029100020E04A818ECF82E0E816F10439F586E4A2
:1029200093E00E94EE0B20E040E263E070E086E47A
:1029300093E00E94EE0B20E040E262E070E086E46B
:1029400093E00E94EE0B21E00230110509F020E037
:10295000488161E070E086E493E00E94EE0B21E0A4
:102960000330110509F020E0498163CFEA94EF2894
:1029700019F586E493E00E94EE0B20E040E263E06C
:1029800070E086E493E00E94EE0B20E040E262E01B
:1029900070E086E493E00E94EE0B20E040E261E00C
:1029A00070E086E493E00E94EE0B21E00230110516
:1029B00009F020E048813DCF86E493E00E94EE0BD1
:1029C00020E040E263E070E086E493E00E94EE0BDA
:1029D00020E040E262E070E086E493E00E94EE0BCB
:1029E00020E040E261E070E086E493E00E94EE0BBC
:1029F00020E040E21ECFCF92DF92EF92FF920F9342
:102A00001F93CF93DF93CDB7DEB764970FB6F894DB
:102A1000DEBF0FBECDBF4EE464E070E08EE993E010
:102A20000E94200C20E041E463E070E08EE993E036
:102A30000E94EE0B20E04CE462E070E08EE993E04F
:102A40000E94EE0B46E061E070E08EE993E00E94A8
:102A5000200C4FE170E060E08EE993E00E94200CD2
:102A600070E060E089E59EE00E94E00620E0FC0165
:102A7000408164E070E086E493E00E94EE0B61E048
:102A800070E089E59EE00E94E00620E0FC014081C4
:102A900063E070E086E493E00E94EE0B45E062E0C4
:102AA00070E086E493E00E94200C63E070E089E52A
:102AB0009EE00E94E00620E0FC01408161E070E0C1
:102AC00086E493E00E94EE0B64E070E089E59EE00E
:102AD0000E94E00620E0FC01408170E060E086E4B6
:102AE00093E00E94EE0B68EE73E080E090E00E94BD
:102AF000A10606E512E0CE0101967C012AE0C22E75
:102B0000D12C80913C0390913D03892B71F18091F0
:102B10003C0390913D03892BD9F40E943205D09259
:102B20003D03C0923C0380913B038F9380913A0315
:102B30008F931F930F93FF92EF920E94A032C701D1
:102B40000E94CA130F900F900F900F900F900F904C
:102B50000E94D00587E10E940504892B91F686E149
:102B60000E940504892B69F605C08DE20E940504C8
:102B7000892B69F20E94320588EC90E090933D0326
:102B800080933C0306E512E0FE0131967F018091BF
:102B90003C0390913D03892B09F180913B038F9376
:102BA00080913A038F931F930F93FF92EF920E94AD
:102BB000A032C7010E94CA130E94D00587E10E947B
:102BC00005040F900F900F900F900F900F90892B8E
:102BD000F1F686E10E940504892BC9F606E512E0AC
:102BE000CE0101967C0196EFC92EDD24DA94809106
:102BF0003C0390913D03892B71F180913C039091AE
:102C00003D03892BD9F40E943205D0923D03C09236
:102C10003C0380913B038F9380913A038F931F93E2
:102C20000F93FF92EF920E94A032C7010E94CA1335
:102C30000F900F900F900F900F900F900E94D00563
:102C400087E10E940504892B91F686E10E94050424
:102C5000892B69F605C08DE20E940504019769F28F
:102C600010913A0300913B031093EC020093ED02A4
:102C700020E046E464E070E08EE993E00E94EE0B11
:102C800020E04FE663E070E08EE993E00E94EE0BF7
:102C90004CE162E070E08EE993E00E94200C20E0BD
:102CA0004EE661E070E08EE993E00E94EE0B20E0DA
:102CB00044E670E060E08EE993E00E94EE0B0F9333
:102CC0001F938BE592E09F938F938E010F5F1F4FB1
:102CD0001F930F930E94A032C8010E94CA1368EE8E
:102CE00073E080E090E00E94A10610920102109231
:102CF000000290E080E00E9412090F900F900F9068
:102D00000F900F900F9086E5E82E82E0F82E8091CC
:102D10003C0390913D03892B09F10E94D0058091DD
:102D20003D038F9380913C038F93FF92EF921F930B
:102D30000F930E94A032C8010E94CA1387E10E942B
:102D400005040F900F900F900F900F900F90892B0C
:102D5000F1F686E10E940504892BC9F668EE73E05E
:102D600080E090E00E94A1064EE364E070E08EE90E
:102D700093E00E94200C20E045E363E070E08EE9E0
:102D800093E00E94EE0B20E045E462E070E08EE903
:102D900093E00E94EE0B45E061E070E08EE993E085
:102DA0000E94200C20E040E270E060E08EE993E0B9
:102DB0000E94EE0B809103028F93809102028F9309
:102DC0008BE592E09F938F931F930F930E94A03205
:102DD000C8010E94CA1368EE73E080E090E00E9490
:102DE000A10670E060E08EE993E00E94340C70E090
:102DF00060E086E493E00E94340C81E0809320033D
:102E000081E090E09093F0028093EF020F900F909A
:102E10000F900F900F900F9064960FB6F894DEBF4E
:102E20000FBECDBFDF91CF911F910F91FF90EF901B
:102E3000DF90CF900895EF92FF920F931F93CF935F
:102E4000DF93EC01FC0101900020E9F731977F014D
:102E5000E81AF90A0E94A5138C010F5F1F4F85E045
:102E6000E816F10408F442C021E00230110509F02F
:102E700020E0488164E070E08EE993E00E94EE0B70
:102E800021E00330110509F020E0498163E070E0A2
:102E90008EE993E00E94EE0B21E00430110509F069
:102EA00020E04A8162E070E08EE993E00E94EE0B40
:102EB00021E00530110509F020E04B8161E070E070
:102EC0008EE993E00E94EE0B21E00630110509F037
:102ED00020E04C8170E060E08EE993E0DF91CF91DB
:102EE0001F910F91FF90EF900C94EE0B20E040E2C9
:102EF00064E070E084E0E816F10479F58EE993E08F
:102F00000E94EE0B21E00230110509F020E048811B
:102F100063E070E08EE993E00E94EE0B21E0033065
:102F2000110509F020E0498162E070E08EE993E04C
:102F30000E94EE0B21E00430110509F020E04A81E7
:102F400061E070E08EE993E00E94EE0B21E0053035
:102F5000110509F020E04B81BDCF83E0E816F104B4
:102F600059F58EE993E00E94EE0B20E040E263E029
:102F700070E08EE993E00E94EE0B21E00230110533
:102F800009F020E0488162E070E08EE993E00E9461
:102F9000EE0B21E00330110509F020E0498161E0EA
:102FA00070E08EE993E00E94EE0B21E00430110501
:102FB00009F020E04A818ECF82E0E816F10439F56D
:102FC0008EE993E00E94EE0B20E040E263E070E0C7
:102FD0008EE993E00E94EE0B20E040E262E070E0B8
:102FE0008EE993E00E94EE0B21E00230110509F01A
:102FF00020E0488161E070E08EE993E00E94EE0BF2
:1030000021E00330110509F020E0498163CFEA9403
:10301000EF2819F58EE993E00E94EE0B20E040E2E4
:1030200063E070E08EE993E00E94EE0B20E040E266
:1030300062E070E08EE993E00E94EE0B20E040E257
:1030400061E070E08EE993E00E94EE0B21E0023037
:10305000110509F020E048813DCF8EE993E00E9400
:10306000EE0B20E040E263E070E08EE993E00E9426
:10307000EE0B20E040E262E070E08EE993E00E9417
:10308000EE0B20E040E261E070E08EE993E00E9408
:10309000EE0B20E040E21ECF8F929F92AF92BF9244
:1030A000CF92DF92EF92FF92CF93DF930E94400D79
:1030B0004B015C010E94400D0E94400D6B017C01A0
:1030C0000E944D03882351F181E08093E70D8093A6
:1030D000E80DC091E90DD091EA0D85E688169104BE
:1030E000A104B104C9F186E688169104A104B104D3
:1030F00009F448C084E688169104A104B10409F0DB
:1031000068C082E0C816D104E104F10461F4CE0184
:103110000E941B17BE018CE093E012C01092E80DD4
:10312000D0E0C0E0DACFCD28CE28CF2809F051C0BA
:1031300080E292E00E941B1760E272E088EF92E06A
:10314000DF91CF91FF90EF90DF90CF90BF90AF9045
:103150009F908F900C94993282E0C816D104E104BC
:10316000F10429F4CE010E94CA13BE01E7CFCD2895
:10317000CE28CF2871F580E292E00E94CA1360E267
:1031800072E0C9CF82E0C816D104E104F10479F4F9
:10319000CE010E94362EDF91CF91FF90EF90DF900D
:1031A000CF90BF90AF909F908F900C948009CD28C6
:1031B000CE28CF2871F481E090E0DF91CF91FF908D
:1031C000EF90DF90CF90BF90AF909F908F900C9436
:1031D0006B09DF91CF91FF90EF90DF90CF90BF9080
:1031E000AF909F908F9008951F920F920FB60F92FD
:1031F00011242F933F938F939F93AF93BF9380910D
:10320000260390912703A0912803B09129033091C0
:10321000250323E0230F2D3758F50196A11DB11D7D
:10322000209325038093260390932703A0932803DC
:10323000B093290380912A0390912B03A0912C0332
:10324000B0912D030196A11DB11D80932A03909387
:103250002B03A0932C03B0932D03BF91AF919F91AB
:103260008F913F912F910F900FBE0F901F90189547
:1032700026E8230F0296A11DB11DD2CF1F920F92F7
:103280000FB60F9211240BB60F922F933F934F93CB
:103290005F936F937F938F939F93AF93BF93EF93BE
:1032A000FF9380E09BE00E949B07FF91EF91BF910D
:1032B000AF919F918F917F916F915F914F913F91CE
:1032C0002F910F900BBE0F900FBE0F901F9018956F
:1032D0001F920F920FB60F9211240BB60F922F93DD
:1032E0008F939F93EF93FF93E091100BF091110B4D
:1032F0008081E091160BF091170B82FD1DC090812B
:103300008091190B8F5F8F7320911A0B821741F0F8
:10331000E091190BF0E0E050F54F958F8093190B79
:10332000FF91EF919F918F912F910F900BBE0F9076
:103330000FBE0F901F9018958081F2CF2F923F9271
:103340004F925F926F927F928F929F92AF92BF92B5
:10335000CF92DF92EF92FF920F931F93CF93DF9361
:103360001092030B1092020B88EE93E0A0E0B0E005
:103370008093040B9093050BA093060BB093070B5F
:1033800080E192E09093010B8093000B85EC90E03C
:1033900090930D0B80930C0B84EC90E090930F0BAB
:1033A00080930E0B80EC90E09093110B8093100BA8
:1033B00081EC90E09093130B8093120B82EC90E0E1
:1033C0009093150B8093140B86EC90E09093170B61
:1033D0008093160B1092190B10921A0B10921B0B64
:1033E00010921C0B6EE572E08FE59EE00E94941334
:1033F00064E672E089E59EE00E9494131092F40D59
:103400001092F30D80E09BE09093EF0D8093EE0D12
:103410001092A50B8CE28093F10D8BE38093F00D5D
:103420008FE28093F20D80E48093A00B8FE3809372
:10343000A10B10929F0B1092EA0D1092E90D1092C1
:10344000EC0D1092EB0D81E08093E70DE5EFFDE0D0
:1034500089E59EE0119211928E179F07D9F710927D
:10346000A40B6AE672E08AEF9AE00E9494136BE87C
:1034700072E084EF9AE00E949413C1E0C0939E082A
:1034800087E1C82EC0929F0888EE93E09093A10830
:103490008093A00860E272E082EA98E00E949413B0
:1034A000C093A8081092A908DFEFD093AA08C09390
:1034B000AB0896E1D92ED092AC0889EE93E09093B8
:1034C000AE088093AD0860E272E08FEA98E00E9457
:1034D0009413C093B5081092B608D093B708C09360
:1034E000B80887E08093B9088AEE93E09093BB0810
:1034F0008093BA0860E272E08CEB98E00E9494132B
:10350000C093C2081092C308D093C408C093C508E2
:1035100026E0922E9092C6088BEE93E09093C80816
:103520008093C70860E272E089EC98E00E949413EF
:10353000C093CF081092D008D093D108C093D2087E
:1035400035E0F32EF092D3088CEE93E09093D508FB
:103550008093D40860E272E086ED98E00E949413B4
:10356000C093DC081092DD08D093DE08C093DF081A
:1035700044E0642E6092E0088DEE93E09093E208C0
:103580008093E10860E272E083EE98E00E94941379
:10359000C093E9081092EA08D093EB0812E0109368
:1035A000EC0851E1B52EB092ED088EEE93E09093C9
:1035B000EF088093EE0860E272E080EF98E00E94EE
:1035C0009413C093F6081092F708D093F80810935C
:1035D000F90869E0562E5092FA088FEE93E0909326
:1035E000FC088093FB0860E272E08DEF98E00E9497
:1035F0009413C093030910920409D0930509109302
:10360000060978E0A72EA092070980EF93E0909337
:1036100009098093080960E272E08AE099E00E945B
:103620009413C093100910921109D09312091093AA
:103630001309E0E17E2E7092140981EF93E09093DC
:1036400016098093150960E272E087E199E00E9413
:103650009413C0931D0910921E09D0931F09109353
:103660002009C092210982EF93E09093230980936F
:10367000220960E272E084E299E00E949413C09310
:103680002A0910922B09D0932C0910932D098AE056
:1036900080932E0983EF93E09093300980932F0954
:1036A00060E272E081E399E00E949413C0933709CD
:1036B00010923809D093390910933A09FBE0EF2EA4
:1036C000E0923B0984EF93E090933D0980933C099D
:1036D00060E272E08EE399E00E949413C093440983
:1036E00010924509D0934609109347098CE08093C6
:1036F000480985EF93E090934A098093490960E275
:1037000072E08BE499E00E949413C09351091092E7
:103710005209D093530910935409ADE02A2E2092F8
:10372000550986EF93E0909357098093560960E21C
:1037300072E088E599E00E949413C0935E091092AC
:103740005F09D093600910936109BEE03B2E30926F
:10375000620987EF93E0909364098093630960E2C4
:1037600072E085E699E00E949413C0936B09109271
:103770006C09D0936D0910936E090FE0402E4092B2
:103780006F0988EF93E0909371098093700960E26C
:1037900072E082E799E00E949413C0937809109236
:1037A0007909D0937A09C0937B0970927C0989EFDB
:1037B00093E090937E0980937D0960E272E08FE749
:1037C00099E00E949413C093850910928609D093C2
:1037D0008709C0938809B09289098AEF93E0909392
:1037E0008B0980938A0960E272E08CE899E00E947C
:1037F0009413C093920910929309D0939409C093A3
:10380000950985E1882E809296098BEF93E090933D
:1038100098098093970960E272E089E999E00E9433
:103820009413C0939F091092A009D093A109C0934B
:10383000A20984E18093A3098CEF93E09093A509FA
:103840008093A40960E272E086EA99E00E949413F2
:10385000C093AC091092AD09D093AE09C093AF09E3
:1038600082E18093B0098DEF93E09093B209809349
:10387000B10960E272E083EB99E00E949413C09377
:10388000B9091092BA09D093BB09C093BC0983E16E
:103890008093BD098EEF93E09093BF098093BE099A
:1038A00060E272E080EC99E00E949413C093C60934
:1038B0001092C709D093C809C093C909A092CA0938
:1038C0008FEF93E09093CC098093CB0960E272E094
:1038D0008DEC99E00E949413C093D3091092D409FF
:1038E000D093D509C093D6095092D70980E094E0CF
:1038F0009093D9098093D80960E272E08AED99E04B
:103900000E949413C093E0091092E109D093E20958
:10391000C093E3098AE08093E40981E094E0909306
:10392000E6098093E50960E272E087EE99E00E9483
:103930009413C093ED091092EE09D093EF09C09350
:10394000F009E092F10982E094E09093F30980930A
:10395000F20960E272E084EF99E00E949413C09350
:10396000FA091092FB09D093FC09C093FD0910924B
:10397000FE0983E094E09093000A8093FF0960E2DF
:1039800072E081E09AE00E949413C093070A1092BB
:10399000080AD093090AC0930A0A03E000930B0AAD
:1039A00084E094E090930D0A80930C0A60E272E048
:1039B0008EE09AE00E949413C093140A1092150AA4
:1039C000D093160AC093170AC093180A85E094E0B2
:1039D00090931A0A8093190A60E272E08BE19AE0F0
:1039E0000E949413C093210A1092220AD093230AB2
:1039F000C093240A1093250A86E094E09093270A46
:103A00008093260A60E272E088E29AE00E949413B2
:103A1000C0932E0A10922F0AD093300AC093310A15
:103A20004092320A87E094E09093340A8093330AFC
:103A300060E272E085E39AE00E949413C0933B0A2F
:103A400010923C0AD0933D0AC0933E0A8CE08093CA
:103A50003F0A88E094E09093410A8093400A60E234
:103A600072E082E49AE00E949413C093480A109294
:103A7000490AD0934A0AC0934B0A30924C0A89E013
:103A800094E090934E0A80934D0A60E272E08FE4D6
:103A90009AE00E949413C093550A1092560AD0934C
:103AA000570A1093580A83E18093590A8AE094E0F8
:103AB00090935B0A80935A0A60E272E08CE59AE088
:103AC0000E949413C093620A1092630AD093640A0E
:103AD0001093650A8092660A8BE094E09093680ADE
:103AE0008093670A60E272E089E69AE00E9494138C
:103AF000C0936F0A1092700AD093710AC093720A31
:103B00002092730A8CE094E09093750A8093740A73
:103B100060E272E086E79AE00E949413C0937C0A08
:103B200010927D0AD0937E0A10937F0A82E18093DF
:103B3000800A8DE094E09093820A8093810A60E28B
:103B400072E083E89AE00E949413C093890A10926D
:103B50008A0AD0938B0A10938C0A84E180938D0A91
:103B60008EE094E090938F0A80938E0A60E272E078
:103B700080E99AE00E949413C093960A1092970AE3
:103B8000D093980A1093990AD0929A0A8FE094E001
:103B900090939C0A80939B0A60E272E08DE99AE020
:103BA0000E949413C093A30A1092A40AD093A50A6A
:103BB0001093A60A1092A70A80E194E09093A90AB4
:103BC0008093A80A60E272E08AEA9AE00E94941365
:103BD000C093B00A1092B10AD093B20A1093B30AFC
:103BE0009092B40A81E194E09093B60A8093B50A6A
:103BF00060E272E087EB9AE00E949413C093BD0AE2
:103C00001092BE0AD093BF0A1093C00AC093C10A93
:103C100082E194E09093C30A8093C20A60E272E06A
:103C200084EC9AE00E949413C093CA0A1092CB0AC3
:103C3000D093CC0A1093CD0AF092CE0A83E194E09F
:103C40009093D00A8093CF0A60E272E081ED9AE00F
:103C50000E949413C093D70A1092D80AD093D90A1D
:103C60001093DA0A1093DB0A84E194E09093DD0A62
:103C70008093DC0A60E272E08EED9AE00E94941379
:103C8000C093E40A1092E50AD093E60A1093E70A7B
:103C90006092E80A85E194E09093EA0A8093E90A49
:103CA00060E272E08BEE9AE00E949413C093F10AF6
:103CB0001092F20AD093F30AC093810460928204B6
:103CC00084E398E0909384048093830460E272E03C
:103CD00085E894E00E94941310928B04C0938C04A6
:103CE000D0938D04C0938E04F0928F0485E398E006
:103CF000909391048093900460E272E082E994E0F2
:103D00000E94941310929804C0939904D0939A043B
:103D1000C0939B04E0929C0487E398E090939E04F8
:103D200080939D0460E272E08FE994E00E94941316
:103D30001092A504C093A604D093A704C093A8042E
:103D40002092A90488E398E09093AB048093AA049E
:103D500060E272E08CEA94E00E9494131092B20444
:103D6000C093B304D093B404C093B5048AE08093A5
:103D7000B60489E398E09093B8048093B70460E2B6
:103D800072E089EB94E00E9494131092BF04C093F8
:103D9000C004D093C104C093C2043092C3048AE328
:103DA00098E09093C5048093C40460E272E086ECCE
:103DB00094E00E9494131092CC04C093CD04D0934D
:103DC000CE04C093CF044092D0048BE398E090934C
:103DD000D2048093D10460E272E083ED94E00E940B
:103DE00094131092D904C093DA04D093DB04C093E7
:103DF000DC04A092DD048CE398E09093DF048093D0
:103E0000DE0460E272E080EE94E00E94941310926F
:103E1000E604C093E704D093E804C093E904509209
:103E2000EA048DE398E09093EC048093EB0460E265
:103E300072E08DEE94E00E9494131092F304C0930C
:103E4000F404D093F504C093F604C092F7048FE510
:103E500098E09093F9048093F80460E272E08AEFAE
:103E600094E00E949413C093000510920105D09332
:103E70000205C093030582E1809304058CE598E078
:103E8000909306058093050560E272E087E095E077
:103E90000E94941310920D05C0930E05D0930F0548
:103EA000C0931005B09211058DE598E0909313052D
:103EB0008093120560E272E084E195E00E94941321
:103EC00010921A05C0931B05D0931C05C0931D05C5
:103ED00070921E058EE598E09093200580931F0553
:103EE00060E272E081E295E00E949413109227054F
:103EF000C0932805D093290510932A0587E0809365
:103F00002B0581E598E090932D0580932C0560E2C8
:103F100072E08EE295E00E94941310923405C093F3
:103F20003505D0933605109337059092380582E514
:103F300098E090933A058093390560E272E08BE354
:103F400095E00E94941310924105C0934205D093CE
:103F5000430510934405F092450583E598E090935E
:103F600047058093460560E272E088E495E00E9490
:103F7000941310924E05C0934F05D09350051093A3
:103F800051056092520584E598E090935405809322
:103F9000530560E272E085E595E00E94941310926B
:103FA0005B05C0935C05D0935D0510935E05409260
:103FB0005F0585E598E0909361058093600560E278
:103FC00072E082E695E00E94941310926805C09317
:103FD0006905D0936A0510936B0530926C0586E5F0
:103FE00098E090936E0580936D0560E272E08FE635
:103FF00095E00E94941310927505C0937605D093B6
:104000007705109378055092790587E598E09093AD
:104010007B0580937A0560E272E08CE795E00E9470
:10402000941310928205C0938305D0938405109356
:104030008505A092860588E598E090938805809391
:10404000870560E272E089E895E00E94941310927F
:104050008F05C0939005D0939105109392052092FF
:1040600093058AE598E0909395058093940560E226
:1040700072E086E995E00E94941310929C05C0932B
:104080009D05D0939E0510939F058AE08093A0051F
:104090008BE598E09093A2058093A10560E272E021
:1040A00083EA95E00E9494131092A905C093AA0593
:1040B000D093AB050093AC058CE08093AD058EE307
:1040C00098E09093AF058093AE0560E272E080EBDC
:1040D00095E00E9494131092B605C093B705D09353
:1040E000B8050093B9052092BA058FE398E0909344
:1040F000BC058093BB0560E272E08DEB95E00E9409
:1041000094131092C305C093C405D093C5050093C2
:10411000C6053092C70580E498E09093C905809366
:10412000C80560E272E08AEC95E00E949413109258
:10413000D005C093D105D093D2050093D30540920A
:10414000D40581E498E09093D6058093D50560E28C
:1041500072E087ED95E00E9494131092DD05C09304
:10416000DE05D093DF050093E005A092E10582E42F
:1041700098E09093E3058093E20560E272E084EEBC
:1041800095E00E9494131092EA05C093EB05D0933A
:10419000EC050093ED05B092EE0583E498E0909372
:1041A000F0058093EF0560E272E081EF95E00E94F8
:1041B00094131092F705C093F805D093F905109366
:1041C000FA05D092FB0584E498E09093FD05809376
:1041D000FC0560E272E08EEF95E00E94941310926D
:1041E0000406C0930506D093060610930706C092F6
:1041F000080685E498E090930A068093090660E239
:1042000072E08BE096E00E94941310921106C09326
:104210001206D0931306109314067092150686E4C6
:1042200098E0909317068093160660E272E088E1AA
:1042300096E00E94941310921E06C0931F06D0931E
:10424000200610922106D092220687E498E09093EF
:1042500024068093230660E272E085E296E00E94E5
:104260009413C0932B0610922C06D0932D06109217
:104270002E06C0922F0688E498E090933106809332
:10428000300660E272E082E396E00E949413C093ED
:10429000380610923906D0933A0610933B06809266
:1042A0003C068AE498E090933E0680933D0660E2E7
:1042B00072E08FE396E00E94941310924506C0933B
:1042C0004606D09347061093480684E1809349063A
:1042D0008BE498E090934B0680934A0660E272E08C
:1042E0008CE496E00E94941310925206C0935306F9
:1042F000D093540610935506B09256068CE498E07D
:10430000909358068093570660E272E089E596E044
:104310000E94941310925F06C0936006D0936106CA
:10432000C09362061092630693E6A92E99E0B92E17
:10433000B0926506A092640660E272E086E696E0BE
:104340000E94941310926C06D0936D06D0936E0663
:10435000C0936F06C0937006B0927206A092710669
:1043600060E272E083E796E00E949413C0937906BE
:10437000D0937A06D0937B06C0937C0610937D067B
:10438000B0927F06A0927E0660E272E080E896E03E
:104390000E94941310938606D0938706D0938806C4
:1043A000C093890600938A06B0928C06A0928B0671
:1043B00060E272E08DE896E00E9494130093930609
:1043C000D0939406D0939506C0939606D092970604
:1043D00024E6A22E29E0B22EB0929906A092980669
:1043E00060E272E08AE996E00E9494131092A006BF
:1043F000D093A106D093A206C093A3068092A406F0
:10440000B092A606A092A50660E272E087EA96E066
:104410000E949413C093AD06D093AE06D093AF061E
:10442000C093B00684E18093B106B092B306A09227
:10443000B20660E272E084EB96E00E94941310935F
:10444000BA06D093BB06D093BC06C093BD0683E1E9
:104450008093BE06B092C006A092BF0660E272E0F2
:1044600081EC96E00E9494130093C706D093C8068F
:10447000D093C9060093CA06E092CB0630E6A32E7D
:1044800039E0B32EB092CD06A092CC0660E272E085
:104490008EEC96E00E9494131092D406D093D50629
:1044A000D093D6060093D7066092D806B092DA066B
:1044B000A092D90660E272E08BED96E00E94941320
:1044C000C093E106D093E206D093E3060093E4069E
:1044D000F092E506B092E706A092E60660E272E08E
:1044E00088EE96E00E9494131093EE06D093EF06A8
:1044F000D093F0060093F1069092F206B092F40683
:10450000A092F30660E272E085EF96E00E949413B9
:104510000093FB06D093FC06D093FD060093FE06A5
:104520007092FF0641E6A42E49E0B42EB092010736
:10453000A092000760E272E082E097E00E9494138C
:1045400010920807D0930907D0930A0700930B072E
:10455000C0920C07B0920E07A0920D0760E272E0C5
:104560008FE097E00E949413C0931507D09316072D
:10457000D093170700931807D0921907B0921B0722
:10458000A0921A0760E272E08CE197E00E94941317
:1045900010932207D0932307D09324070093250775
:1045A00080922607B0922807A092270760E272E067
:1045B00089E297E00E94941300932F07D09330076D
:1045C000D093310700933207C093330752E6C52ECC
:1045D00059E0D52ED0923507C092340760E272E0E0
:1045E00086E397E00E94941310923C07D0933D0716
:1045F000D0933E0700933F0710934007D0924207A5
:10460000C092410760E272E083E497E00E94941355
:10461000C0934907D0934A07D0934B0700934C07A8
:1046200000934D07D0924F07C0924E0760E272E0B0
:1046300080E597E00E94941310935607D093570794
:10464000D09358070093590710925A07D0925C07ED
:10465000C0925B0760E272E08DE597E00E949413E0
:1046600000936307D0936407D0936507C0936607F0
:1046700087E080936707CC24CA9468E0D62ED09256
:104680006907C092680760E272E08AE697E00E94DC
:10469000941310927007C0937107D0937207C09360
:1046A000730790927407D0927607C092750760E204
:1046B00072E087E797E00E94941310937D07C09300
:1046C0007E07D0937F070093800783E18093810763
:1046D0007CEFC72E78E0D72ED0928307C092820756
:1046E00060E272E084E897E00E94941310928A07D7
:1046F000C0938B07D0938C0710928D07EFE1BE2EED
:10470000B0928E07D0929007C0928F0760E272E05D
:1047100081E997E00E94941310939707C09398073C
:10472000D093990700939A0750929B07FDEFCF2EE5
:10473000F8E0DF2ED0929D07C0929C0760E272E005
:104740008EE997E00E9494131092A407C093A507E6
:10475000D093A6070093A7078AE08093A807D0927A
:10476000AA07C092A90760E272E08BEA97E00E9474
:1047700094131093B107C093B207D093B30700937B
:10478000B40784E18093B507AEEFCA2EA8E0DA2E15
:10479000D092B707C092B60760E272E088EB97E06C
:1047A0000E9494131092BE07C093BF07D093C00716
:1047B0000093C10787E08093C207D092C407C092DC
:1047C000C30760E272E085EC97E00E9494131093B7
:1047D000CB07C093CC07D093CD071093CE07109290
:1047E000CF07B2E0CB2EB9E0DB2ED092D107C0923A
:1047F000D00760E272E082ED97E00E94941310927D
:10480000D807C093D907D093DA071093DB07C0937A
:10481000DC07D092DE07C092DD0760E272E08FED28
:1048200097E00E9494131093E507C093E607D09396
:10483000E7071093E80782E18093E90783E0C82E39
:1048400089E0D82ED092EB07C092EA0760E272E0CE
:104850008CEE97E00E9494131092F207C093F30736
:10486000D093F4071093F50783E18093F607D09275
:10487000F807C092F70760E272E089EF97E00E94C4
:1048800094131093FF07C0930008D093010810936E
:10489000020810930308C12C99E0D92ED092050884
:1048A000C092040860E272E086E098E00E949413EF
:1048B00010920C08C0930D08D0930E0810930F08A7
:1048C00000931008D0921208C092110860E272E0C2
:1048D00083E198E00E94941310931908C0931A087A
:1048E000D0931B0810931C088CE080931D08CC24E7
:1048F000C39429E0D22ED0921F08C0921E0860E215
:1049000072E080E298E00E94941310922608C0930F
:104910002708D093280810932908E0922A08D092FB
:104920002C08C0922B0860E272E08DE298E00E94B1
:10493000941310933308C0933408D0933508C09370
:104940003608B092370835E1C32E39E0D32ED09225
:104950003908C092380860E272E08AE398E00E9469
:10496000941310924008C0934108D0934208C0931A
:1049700043088CE180934408D0924608C0924508D1
:1049800060E272E087E498E00E94941310934D086F
:10499000C0934E08D0934F08C09350088EE1809387
:1049A000510846E1C42E49E0D42ED0925308C0925B
:1049B000520860E272E084E598E00E94941310923D
:1049C0005A08C0935B08D0935C08C0935D088DE1E2
:1049D00080935E08D0926008C0925F0860E272E047
:1049E00081E698E00E94941310936708C0936808CA
:1049F000D0936908C0936A0888E180936B0857E1F7
:104A0000C52E59E0D52ED0926D08C0926C0860E298
:104A100072E08EE698E00E94941310927408C0939E
:104A20007508D0937608C09377088BE18093780857
:104A3000D0927A08C092790860E272E08BE798E041
:104A40000E94941310938108C0938208D093830826
:104A5000C093840889E18093850868E1C62E69E0E7
:104A6000D62ED0928708C092860860E272E088E86D
:104A700098E00E94941310928E08C0938F08D093F0
:104A80009008C09391088AE180939208D09294088C
:104A9000C092930860E272E085E998E00E94941366
:104AA00010939B08C0939C08D0939D0842E162E05C
:104AB00086E794E00E941F0B44E163E18BE694E0FB
:104AC0000E941F0BE6E7F4E0A5E3B4E08E2D019011
:104AD0000D928A95E1F762EB72E080E494E00E9427
:104AE000941379E1872E7CEF972EAA24AA94BA2CEE
:104AF0008092460490924704A0924804B0924904E0
:104B000065EC72E08AE494E00E949413EBE6F4E032
:104B1000A0E5B4E001900D92EA94E1F762ED72E055
:104B20008BE594E00E949413809261049092620459
:104B3000A0926304B092640465EC72E085E694E0B0
:104B40000E94941380E290E090932B0480932A04B7
:104B5000F0922C0410922D0410922E0410922F0427
:104B600010923004109231041092320410923304E7
:104B70001092340488E190E090931C0480931B040D
:104B8000F0921D0410921E0410921F041092200433
:104B900010922104109222041092230410922404F3
:104BA0001092250490930D0480930C04F0920E044F
:104BB00010920F041092100410921104109212041B
:104BC00010921304109214041092150410921604FB
:104BD000909303048093020410920404109205043D
:104BE00010920604109207049093FA038093F9033D
:104BF0001092FB031092FC031092FD031092FE032F
:104C000024E030E045E050E066E070E08EE993E0BB
:104C10000E94BB0C2EE030E04DE050E06FE070E011
:104C200086E493E00E94BB0C80E390E09093310314
:104C3000809330038FE290E09093330380933203AC
:104C40008AE290E0909335038093340388E290E009
:104C5000909337038093360361E080E30E946F05F1
:104C600061E0809132030E946F0561E0809134031E
:104C70000E946F0561E0809136030E946F051092DB
:104C80002F0310922E0380EB94E0A0E0B0E080931D
:104C90003E0390933F03A0934003B093410380E011
:104CA00090E1909339038093380310923B03109264
:104CB0003A0310923D0310923C03DF91CF911F9174
:104CC0000F91FF90EF90DF90CF90BF90AF909F90AB
:104CD0008F907F906F905F904F903F902F900895AE
:104CE000CF93DF93CDB7DEB7A0970FB6F894DEBFB2
:104CF0000FBECDBF789484B5826084BD84B58160D9
:104D000084BD85B5826085BD85B5816085BD809196
:104D10006E00816080936E0010928100809181000E
:104D20008260809381008091810081608093810006
:104D3000809180008160809380008091B1008460C8
:104D40008093B1008091B00081608093B000809129
:104D500091008260809391008091910081608093A6
:104D60009100809190008160809390008091A100DB
:104D700082608093A1008091A10081608093A10056
:104D80008091A00081608093A000809121018260C9
:104D90008093210180912101816080932101809184
:104DA000200181608093200180917A00846080934B
:104DB0007A0080917A00826080937A0080917A00F4
:104DC000816080937A0080917A00806880937A0075
:104DD0001092C1008091F4039091F5031816190602
:104DE00044F421E04CE070E060E08EE993E00E9442
:104DF0008D0B80919C0390919D031816190644F425
:104E000021E04CE070E060E086E493E00E948D0BCE
:104E10000091040210910502B8018EE993E00E940E
:104E20000E0CB80186E493E00E940E0C1092200351
:104E300060E272E08CE093E00E94993260E272E0FE
:104E400088EF92E00E9499320E94EB086B017C018E
:104E50000BE512E09E012F5F3F4F590130ECC31666
:104E600032E1D306E104F1040CF480C20E94D406BE
:104E70006093F4027093F5028093F6029093F70228
:104E80006093210370932203809323039093240360
:104E900061E083E00E946F058091F1029091F2023F
:104EA0000E94080A62E08DE20E946F0521E230E074
:104EB00042E250E060E270E086E294E00E945B082B
:104EC00026E230E047E250E065E270E087E194E0FE
:104ED0000E945B082CE230E041E350E06BE270E0BE
:104EE00088E094E00E945B088AE08093FF0361E021
:104EF0000E946F058BE08093000461E00E946F05C3
:104F00008CE08093010461E00E946F058FEF93E0D5
:104F10000E94630C89E08093F60361E00E946F05B4
:104F200087E08093F70361E00E946F0588E080933B
:104F3000F80361E00E946F0586EF93E00E94630C26
:104F400001E814E0F8018081811104C062E08181F0
:104F50000E946F05035F1F4FF8E00E391F0791F79E
:104F6000E091100BF091110B82E08083E0910C0B2B
:104F7000F0910D0B1082E0910E0BF0910F0B80E180
:104F800080831092180BE091140BF091150B86E0C2
:104F90008083E091120BF091130B808180618083FC
:104FA000E091120BF091130B808188608083E09177
:104FB000120BF091130B808180688083E091120BBB
:104FC000F091130B80818F7D808368E374E083E030
:104FD0000E94850F8EE99FE09093F60D8093F50D6A
:104FE0008BEB92E19093FA0D8093F90D89E99FE0A4
:104FF0009093FC0D8093FB0D85E59DE09093000E52
:105000008093FF0D89E59DE09093020E8093010E41
:105010008CE498E19093040E8093030E8FE19EE060
:1050200090930C0E80930B0E80E49EE090930E0EF6
:1050300080930D0E8CE49EE09093100E80930F0EE3
:1050400080E69EE09093120E8093110ECC24CA94B9
:10505000DC2C7601C0920404D0920504E092060490
:10506000F09207048FEF93E00E94630CC092FB0361
:10507000D092FC03E092FD03F092FE0386EF93E0F2
:105080000E94630C70E060E08FE59EE00E94E00605
:1050900020E0DC014C9164E070E08EE993E00E9436
:1050A000EE0B61E070E08FE59EE00E94E00620E0FC
:1050B000FC01408163E070E08EE993E00E94EE0B1A
:1050C00062E070E08FE59EE00E94E00620E0DC01F7
:1050D0004C9162E070E08EE993E00E94EE0B63E099
:1050E00070E08FE59EE00E94E00620E0FC01408138
:1050F00061E070E08EE993E00E94EE0B64E070E006
:105100008FE59EE00E94E00620E0DC014C9170E01B
:1051100060E08EE993E00E94EE0B70E060E089E5CC
:105120009EE00E94E00620E0FC01408164E070E027
:1051300086E493E00E94EE0B61E070E089E59EE07A
:105140000E94E00620E0DC014C9163E070E086E420
:1051500093E00E94EE0B45E062E070E086E493E0AD
:105160000E94200C63E070E089E59EE00E94E0066A
:1051700020E0FC01408161E070E086E493E00E9461
:10518000EE0B64E070E089E59EE00E94E00620E01E
:10519000DC014C9170E060E086E493E00E94EE0B4D
:1051A00068EE73E080E090E00E94A10670E060E0AD
:1051B0008EE993E00E94340C70E060E086E493E0B6
:1051C0000E94340C109204041092050410920604FC
:1051D000109207048FEF93E00E94630C1092FB0380
:1051E0001092FC031092FD031092FE0386EF93E0F1
:1051F0000E94630C1092F0021092EF020E94FB14C6
:105200008E010F5F1F4FEBE52E2EE2E03E2E552460
:105210005394442443940E94D00555E3E52E54E072
:10522000F52ED12CC12C6FE0662E712CD701ED919B
:10523000FD918081ED91FD919081ED91FD916C91B9
:1052400063708E2309F064609F2309F06860E3E3D4
:10525000F9E2E60FF11D659565956D936D917D9170
:105260008D919D91099423C01AC012C016C010C020
:105270001EC009C014C013C006C019C009C00DC0AB
:1052800007C00DC014C062507040804090400BC0F9
:10529000615070408040904006C06E5F01C06F5FFB
:1052A0007F4F8F4F9F4F9E938E937E936E93F70108
:1052B00087819085A185B2854189528963897489E6
:1052C0004A015B01F3E08F0E911CA11CB11C8816F2
:1052D0009906AA06BB060CF02FC2F701818B928BB0
:1052E000A38BB48B8091F302882331F1B60168540B
:1052F000744FCE014B960E942712BE01655E7F4F10
:10530000CE0145960E945F1264EE72E0CE01459692
:105310000E94C311BC01C8010E945F12C8010E9413
:105320005113C8010E949311CE0145960E9493111A
:10533000CE014B960E949311F1E0CF16D10409F0F3
:1053400073C387E10E940504892B09F086C0809110
:10535000F1029091F20208968F3F910511F00CF046
:1053600058C09093F2028093F10259C020E04EE6BB
:1053700064E070E08EE993E00E94EE0B20E04FE6DF
:1053800063E070E08EE993E00E94EE0B4EE362E092
:1053900070E08EE993E00E94200C20E045E361E09C
:1053A00070E08EE993E00E94EE0B4FE170E060E068
:1053B0008EE993E00E94200CFF92EF92DF92CF9251
:1053C0001F930F93BF92AF920E94A032C5010E941B
:1053D000CA1368EE73E080E090E00E94A1060E948C
:1053E000EB086B017C0187E10E9405040FB6F8947D
:1053F000DEBF0FBECDBF892B09F030CD86E10E9404
:105400000504892B09F02ACD31CDCC24C394D12CAD
:105410000DCF2FEF30E03093F2022093F102809114
:10542000F1029091F2020E94080A8091F30288230F
:10543000A1F06091F1027091F202C8010E9427125E
:10544000B8018CE00E947912C8010E949311ABE16F
:10545000EA0EF11CCA94CD28C1F60E94D406C09071
:105460002103D0902203E0902303F09024036C19D1
:105470007D098E099F09633371058105910508F443
:105480007FC086E294E00E94750887E194E00E9464
:10549000750888E094E00E9475088091F3028823E3
:1054A00009F440C0F12CE12C3DE0932E9E9CC001FC
:1054B0009F9C900D1124FC01EF57FB4F6F018281DF
:1054C0009381805D97408C32914008F08AC1C7017A
:1054D0000E94DD0AD6011C962C91022E000C330B83
:1054E0008217130609F47DC1C7010E94DD0A8111EC
:1054F000C1C188E00E94700FD60112968D919C91D7
:105500000E94360FF60182850E94540F0E949A0E67
:10551000D6011C961C92BFEFEB1AFB0AE1E5EE16D2
:10552000F10424F287E10E940504892B39F486E115
:105530000E940504892B11F40E94FB148091200322
:105540008823A1F087E10E940504019779F486E1A0
:105550000E940504019751F48CE093E00E941B1710
:1055600088EF92E00E94CA13109220030E94D40692
:105570006093210370932203809323039093240369
:105580000E94D406C090F402D090F502E090F6029A
:10559000F090F7026C197D098E099F09613E7349ED
:1055A0008440910500F170E060E08EE993E00E9494
:1055B000340C70E060E086E493E00E94340C0E94BA
:1055C000900C90E080E00E94080A81E090E00E9448
:1055D0006B090E94D4066093F4027093F5028093E5
:1055E000F6029093F7028091A40B81111AC2809168
:1055F000EE0D9091EF0DDC01ED91FC910084F185B1
:10560000E02D1995892B09F40CC28091EE0D909133
:10561000EF0DDC01ED91FC910084F185E02D1995F1
:10562000A12C22E0B22E8115924064F48091EE0DFF
:105630009091EF0DDC01ED91FC910084F185E02D5E
:1056400019955C01E090EE0DF090EF0D96EE892E2D
:105650009BE0992E3401D12CC12CAC14BD0409F06F
:10566000A0C1F12CE12CAE14BF0409F4BCCFD401CD
:105670009D914D011092E60D3091F20D2091A30BFA
:105680009093A30B931304C0921302C01092A30B28
:1056900080919F0BE82FF0E04091F00DE356F44F1E
:1056A0009413A5C1321709F4A2C11186882321F0F1
:1056B0004092E60D1092A30B10929F0B1092EA0DF0
:1056C0001092E90D1092EC0D1092EB0D4092E70D47
:1056D000D090E60DB1E0DB12A0C10E944D038823FB
:1056E00009F48FC1D092E70DD092E80D8091E90DB9
:1056F0009091EA0D0E94362E80939E0B823308F023
:1057000085C12091E80D222309F480C1FC01FF2707
:10571000EE0FFF1FEB50F24F0190F081E02D30971C
:1057200009F474C1199579C170920502609204025E
:105730008DC18FE790E0B6C14350510961097109ED
:1057400084179507A607B7070CF081CEF701818B68
:10575000928BA38BB48B8091F302882331F1B60135
:105760006854744FCE014B960E942712BE01655EAD
:105770007F4FCE0145960E945F1267EE72E0CE0128
:1057800045960E94C311BC01C8010E945F12C80166
:105790000E945113C8010E949311CE0145960E94A8
:1057A0009311CE014B960E949311F1E0CF16D104D4
:1057B00009F0DBC187E10E940504892B09F04DCE79
:1057C0008091F1029091F202089797FFCACD109252
:1057D000F2021092F10223CE1092050210920402FE
:1057E000D4C19E9CC0019F9C900D1124FC01EF57D9
:1057F000FB4F6F01828193819C012C5F38402436DE
:10580000310508F0A0C05701FFEFAF1ABF0AC7016A
:105810000E94DD0AD6011C962C91022E000C330B3F
:1058200082171306C9F1C7010E94DD0A811148C021
:1058300088E00E94700F9E9CC0019F9C900D1124D7
:10584000FC01EF57FB4F7F01828193810E94360F4D
:10585000D7011A968C910E94540F0E949A0EF7015C
:1058600014869A9CF0019B9CF00D1124EF57FB4F7E
:10587000548624C088E00E94700FF60182819381D3
:105880000E94360FD6011B968C910E94540F0E94E5
:105890009A0EF60154863FCEC5010E94DD0A9A9CFD
:1058A000F0019B9CF00D1124EF57FB4F2485022E35
:1058B000000C330B8217130609F0B5CF75012BCE00
:1058C000C5010E94DD0A811124C088E00E94700F8A
:1058D0009A9CC0019B9C900D11249C012F573B4F1B
:1058E0006901D90112968D919C910E94360FF601A3
:1058F00082850E94540F0E949A0E9E9CF0019F9CEC
:10590000F00D1124EF57FB4F5486D6011C961C92C4
:10591000D5CF88E00E94700F9E9CC0019F9C900D87
:105920001124FC01EF57FB4F7F01828193810E947C
:10593000360FD7011B968C910E94540F0E949A0E2D
:10594000F70154868ECF805699408536910508F030
:10595000E2CDC7010E94DD0AD6011C962C91022ED1
:10596000000C330B8217130609F4D5CDC7010E9432
:10597000DD0A811112C088E00E94700FF601828159
:1059800093810E94360FD6011A968C910E94540F73
:105990000E949A0EF6011486BECDD6011C965C922A
:1059A000BACD0E94D406F7016087718782879387FA
:1059B000D701ED91FC910284F385E02DC701199583
:1059C00097FF13C10E94D406F701208531854285D7
:1059D0005385621B730B840B950B248135814681A3
:1059E0005781621773078407950710F33ACE9187A2
:1059F0008F5F80939F0B9091A10B891708F05CCE6D
:105A000067CE1092E80D90E080E076CEE091F30D45
:105A1000F091F40D309709F085CEEFEFEE1AFE0A03
:105A200022CE0E942A08F7CB86E10E940504892B2A
:105A300051F5809104029091050201968031910503
:105A40000CF072CE9093050280930402A0900402A1
:105A5000B0900502B5018EE993E00E940E0CB501ED
:105A600086E493E00E940E0C8091F302882359F0A3
:105A7000B501C8010E942712B8018BE00E9479127B
:105A8000C8010E94931187E10E940504892B09F047
:105A9000DECC80910202909103020196803891053C
:105AA0000CF047CE90930302809302028091F302A0
:105AB000882371F06091020270910302C8010E9474
:105AC0002712B8018EE00E947912C8010E9493113A
:105AD00080913C0390913D03892B11F00E94570562
