:100000000C94FA020C942B030C942B030C942B03EA
:100010000C942B030C942B030C942B030C942B03A8
:100020000C942B030C942B030C942B030C942B0398
:100030000C942B030C942B030C942B030C942B0388
:100040000C942B030C942B030C942B030C942B0378
:100050000C942B030C942B030C942B030C94AE16D2
:100060000C942B030C9422170C94F8160C942B036D
:100070000C942B030C942B030C942B030C942B0348
:100080000C942B030C942B030C942B030C942B0338
:100090000C942B030C942B030C942B030C942B0328
:1000A0000C942B030C942B030C942B030C942B0318
:1000B0000C942B030C942B030C942B030C942B0308
:1000C0000C942B030C942B030C942B030C942B03F8
:1000D0000C942B030C942B030C942B030C942B03E8
:1000E0000C942B030C94EA030C94710A0C948D0667
:1000F0000C94940A0C94D2030C94F8030C946407A7
:100100000C943A0E0C941B0A0C9452050C944E0657
:100110000C94F90D0C94800A0C9478070C945005FB
:100120000C94E6030C9486070C94730F0C949C06B5
:100130000C94670A0C9496060C9406160C94BD0356
:100140000C942F0A0C94250A0C94330D0C9457062A
:100150000C94C7030C9490060C94A32D0C940B08DC
:100160000C94200A0C94FE030C9471060C94510616
:100170000C944A050C94DC030C941F060C94CF03DA
:100180000C94FD030C944C050C945A060C94E20359
:100190000C94A80A0C944E050C94B20A0C949E0A76
:1001A0000C9455070C9454050C9495120C94280744
:1001B0000C94F4030C94D8030C942F0D0C94CB03E3
:1001C0000C9456050C94430A0C94530A0C94930611
:1001D0000C94BE070C94260E0C945D060C949906A4
:1001E0000C94390A0C944B060C9454060C94581732
:1001F0000C941A0E0C944B0A0C945D0A0C948A0A07
:100200000C94780F0C9402040C94F0030C94C30328
:10021000554E4B4E4F574E20434F4D4D414E44008F
:100220004144442C31342C4547545F4F4646534596
:10023000542C5331362C52572C454754204F666668
:100240007365742C43656C7369757320646567729C
:100250006565732066726F6D202D313030302074EB
:100260006F20313030302C504552534953543D317A
:10027000004144442C31332C5649525455414C5F73
:10028000504F5745522C55382C52572C5669727482
:1002900075616C20506F7765722C4F5645524845FA
:1002A0004144207669727475616C20706F77657255
:1002B0002030206F7220312C504552534953543D09
:1002C00031004144442C31322C4241434B4C49478C
:1002D00048545F4252492C55382C52572C42616386
:1002E0006B6C69676874204272696768746E6573C5
:1002F000732C4F766572686561642070616E656C01
:10030000206261636B6C69676874206272696768F8
:10031000746E6573732066726F6D203020746F2069
:100320003235352C504552534953543D31004144E8
:10033000442C31312C444953504C41595F4252496D
:100340002C55382C52572C446973706C617973208A
:100350004272696768746E6573732C566F6C746D46
:100360006574657273206469676974732062726969
:100370006768746E6573732066726F6D20302074C9
:100380006F2031352C504552534953543D31005064
:100390004F4E470053544154455343414E0053542C
:1003A0004154455343414E00414C4C4F574C4F43F1
:1003B000414C3D31005049443D4346543733374F5B
:1003C0005648434F4D50414354005649443D314CEB
:1003D000325000415554484F523D33363062383127
:1003E00032656631306433336535343537656537AA
:1003F0006234313238343533366600434654203760
:100400003337204F564820434F4D50414354007BD3
:1004100036613061303562392D613734312D3431F8
:1004200039322D383563352D303461383433383531
:10043000303034627D0053504144004154544143B4
:1004400048494E472043414C4C4241434B532100C5
:1004500000002100240027002A002D003000330076
:1004600001010000040107010A010000220025002B
:1004700028002B002E00310034000201000005018D
:1004800008010B01000020002300260029002C0099
:100490002F003200000100000301060109010505DB
:1004A0000505070508080808020202020A0A0808EA
:1004B0000404040401010101010101010303030318
:1004C00003030303040707070C0C0C0C0C0C0C0CA7
:1004D0000202020206060606060606060B0B0B0BB8
:1004E0000B0B0B0B010210202008081020401020DD
:1004F00040800201020108040201010204081020E8
:1005000040808040201008040201800402018040E5
:10051000201008040201080402010102040810204E
:100520004080010204081020408000000A0B0209EC
:100530000C0D0E080703040100000000000000007D
:1005400000000000000000000000000000000000AB
:100550000000000000001211100000000000000068
:10056000000000000000000000000000000000008B
:100570007E306D79335B5F707F7B771F0D3D4F471A
:10058000000000000000000000000000000000006B
:10059000000000000000000000000000800180005A
:1005A0007E306D79335B5F707F7B00000000000060
:1005B00000771F0D3D4F4700370000000E00000080
:1005C00067000000000000000000000000000008BC
:1005D00000771F0D3D4F4700370000000E00151D2E
:1005E00067000000000000000000000000000000A4
:1005F0005817A32D11241FBECFEFD1E2DEBFCDBF10
:1006000000E00CBF2EE0ACEEB2E001C01D92A936B6
:10061000B207E1F712E0A0E0B2E0E0E2FAE600E0C3
:100620000BBF02C007900D92AC3EB107D9F712E0A4
:10063000C9EFD2E000E006C021970109802FFE013A
:100640000E94DB2FC83FD10780E00807A9F70E946E
:100650002A240C94FE340C940000AC011092A20BDE
:100660009091F20D8091F10DFA01BF01641B750BA1
:100670002091A20B30813093A20B931304C09213EC
:1006800002C01092A20B3081311104C0921721F0E8
:10069000CB0108953817D1F33196E7CF0F931F930D
:1006A000CF93DF938091E60D882309F446C0D0E014
:1006B000C0E0813029F482E08093E60DC6EADBE0F9
:1006C0008091E70D882341F1209721F4C091EB0D33
:1006D000D091EC0D8E01CE010E942D03892B29F4BF
:1006E0002196F80180818111F5CFF801808188235E
:1006F00009F1C8010E942D03F801E80FF91F80815C
:10070000882311F010823196F093EC0DE093EB0DFD
:100710001093EA0D0093E90D8091E90D9091EA0D97
:10072000892B59F081E08093E70DDF91CF911F91E4
:100730000F91089510E000E0EBCF80E0F6CF8150FC
:10074000823108F05AC0E82FF0E08827E555FC4FC9
:100750008F4F0C94DB2FCB03CF03BD03C303C70321
:10076000FD03D203D803DC03E203E603EA03F0034C
:10077000F403FD03F803FE030204809180008F77E9
:10078000809380000895809180008F7DF9CF8091C3
:100790008000877FF5CF84B58F7784BD089584B5B9
:1007A0008F7DFBCF8091B0008F778093B00008954C
:1007B0008091B0008F7DF9CF809190008F778093EA
:1007C00090000895809190008F7DF9CF80919000E6
:1007D000877FF5CF8091A0008F778093A000089548
:1007E0008091A0008F7DF9CF8091A000877FF5CF09
:1007F000809120018F7780932001089580912001BE
:100800008F7DF9CF80912001877FF5CFCF93DF9344
:10081000282F30E0F901E65DFA4F8491F901EC519F
:10082000FB4FD491F901E256FB4FC491CC23A1F0C8
:1008300081110E949F03EC2FF0E0EE0FFF1FEC5799
:10084000FB4FA591B491EC91ED2381E090E009F488
:1008500080E0DF91CF91089580E090E0FACF1F9380
:10086000CF93DF93282F30E0F901E65DFA4F8491B2
:10087000F901EC51FB4FD491F901E256FB4FC491C1
:10088000CC23A9F0162F81110E949F03EC2FF0E0DA
:10089000EE0FFF1FE659FB4FA591B4918FB7F89467
:1008A000EC91111108C0D095DE23DC938FBFDF914E
:1008B000CF911F910895DE2BF8CFCF93DF93CEE237
:1008C000D3E060E08A810E942F0460E08C810E9466
:1008D0002F0460E08E810E942F0461E088850E94D1
:1008E0002F0481E090E099838883DF91CF91089570
:1008F000CF93DF93CEE2D3E060E08A810E942F04A1
:1009000060E08C810E942F0461E08E810E942F04A0
:1009100061E088850E942F0482E090E099838883BB
:10092000DF91CF910895CF93DF93CEE2D3E060E0E3
:100930008A810E942F0460E08C810E942F0461E074
:100940008E810E942F0460E088850E942F0483E03E
:1009500090E099838883DF91CF910895CF93DF93BF
:10096000CEE2D3E060E08A810E942F0461E08C81B6
:100970000E942F0461E08E810E942F0460E0888530
:100980000E942F0484E090E099838883DF91CF91C7
:100990000895CF93DF93CEE2D3E060E08A810E9496
:1009A0002F0461E08C810E942F0460E08E810E9400
:1009B0002F0460E088850E942F0485E090E09983F1
:1009C0008883DF91CF910895CF93DF93CEE2D3E078
:1009D00061E08A810E942F0461E08C810E942F04D3
:1009E00060E08E810E942F0460E088850E942F04C1
:1009F00086E090E099838883DF91CF910895CF932B
:100A0000DF93CEE2D3E061E08A810E942F0460E0B0
:100A10008C810E942F0460E08E810E942F0460E090
:100A200088850E942F0487E090E099838883DF9176
:100A3000CF910895CF93DF93CEE2D3E061E08A8136
:100A40000E942F0460E08C810E942F0460E08E8160
:100A50000E942F0461E088850E942F041982188269
:100A6000DF91CF910895E0912E03F0912F033197FC
:100A7000E730F10568F48827EF5BFA4F8F4F0C944D
:100A8000DB2F4A054C054E05500552055405560509
:100A90000C941A050C945D040C9478040C94930443
:100AA0000C94AE040C94C9040C94E4040C94FF045C
:100AB000CF93DF93CEE2D3E01F861E8660E08A816B
:100AC0000E942F0460E08C810E942F0460E08E81E0
:100AD0000E942F0460E08885DF91CF910C942F0451
:100AE000CF93DF9390E0FC01EC51FB4F24918256B1
:100AF0009B4FFC0184918823C9F090E0880F991FD7
:100B0000FC01E05BFB4FA591B491FC01E659FB4F62
:100B1000C591D49161110DC09FB7F8948C91209527
:100B200082238C938881282328839FBFDF91CF91D4
:100B30000895623051F49FB7F8943C91822F8095CC
:100B400083238C93E8812E2BEFCF8FB7F894EC9111
:100B50002E2B2C938FBFEACF3FB7F89480912A03B6
:100B600090912B03A0912C03B0912D0326B5A89B47
:100B700005C02F3F19F00196A11DB11D3FBFBA2F2F
:100B8000A92F982F8827BC01CD01620F711D811DEF
:100B9000911D42E0660F771F881F991F4A95D1F774
:100BA0000895CF92DF92EF92FF9280913C03909153
:100BB0003D03892B31F481E0FF90EF90DF90CF90DF
:100BC00008950E94AC056B017C01809142039091D5
:100BD0004303A0914403B0914503B701A601481B0C
:100BE000590B6A0B7B0B80913E0390913F03A091C0
:100BF0004003B0914103481759076A077B0708F47F
:100C000049C0E0912E03F0912F0380913C03909115
:100C10003D03181619060CF053C0E830F10508F032
:100C20003AC08827E95EF94F8F4F0C94DB2F1F06DF
:100C30004B064E065106540657065A065D060E949C
:100C4000FF0480913A0390913B03019690933B03FC
:100C500080933A0320913803309139038217930728
:100C600021F410923B0310923A0380913C0390913F
:100C70003D03019790933D0380933C03892B11F42E
:100C80000E945805C0924203D0924303E09244036D
:100C9000F092450391CF0E941A05D3CF0E945D04C4
:100CA000D0CF0E947804CDCF0E949304CACF0E9477
:100CB000AE04C7CF0E94C904C4CF0E94E404C1CFD0
:100CC000E730F10508F03BC08827E659F94F8F4F10
:100CD0000C94DB2F71068D069006930696069906F6
:100CE0009C060E945D0480913A0390913B0301971A
:100CF00090933B0380933A0397FF09C08091380398
:100D000090913903019790933B0380933A0380912C
:100D10003C0390913D030196ADCF0E947804E3CF50
:100D20000E949304E0CF0E94AE04DDCF0E94C9046C
:100D3000DACF0E94E404D7CF0E94FF04D4CF0E94F0
:100D40001A05D1CF8F929F92AF92BF92CF92DF922E
:100D5000EF92FF926B017C010E94AC054B015C019C
:100D6000C114D104E104F104B9F00E94AC05681982
:100D700079098A099B09683E73408105910580F3D2
:100D800021E0C21AD108E108F10888EE880E83E05C
:100D9000981EA11CB11CE4CFFF90EF90DF90CF9084
:100DA000BF90AF909F908F9008952FB7F894609167
:100DB00026037091270380912803909129032FBF68
:100DC0000895FC01248135816217730720F4808126
:100DD0009181009729F41092EC028CEE92E0089534
:100DE000860F971F0895DC01ED91FC910190F08131
:100DF000E02D1994EF92FF920F931F93CF93DF93FF
:100E000020919D0B2223E9F08C016091F10D8091DE
:100E1000EE0D9091EF0D0E94F306E090EE0DF09034
:100E2000EF0DE801FE016491662359F0D701ED91C1
:100E3000FC910190F081E02DC70119952196892B35
:100E400089F7DF91CF911F910F91FF90EF90089557
:100E5000AF92BF92CF92DF92EF92FF920F931F93C8
:100E6000CF93DF936C017B018B01040F151FEB0106
:100E70005E01AE18BF08C017D10759F06991D601BD
:100E8000ED91FC910190F081E02DC6011995892B1F
:100E900079F7C501DF91CF911F910F91FF90EF90EE
:100EA000DF90CF90BF90AF900895FC01538D448D9B
:100EB000252F30E0842F90E0821B930B541710F005
:100EC000CF96089501970895FC01918D828D981712
:100ED00061F0A28DAE0FBF2FB11D5D968C91928DEA
:100EE0009F5F9F73928F90E008958FEF9FEF08951B
:100EF000FC01918D828D981731F0828DE80FF11DE4
:100F0000858D90E008958FEF9FEF0895FC01918DFE
:100F1000228D892F90E0805C9F4F821B91098F73F7
:100F20009927089580E09BE00E94860721E0892BA5
:100F300009F420E0822F0895FC01A48DA80FB92F99
:100F4000B11DA35ABF4F2C91848D90E001968F73F1
:100F50009927848FA689B7892C93A089B1898C9110
:100F6000837080648C93938D848D981306C002885F
:100F7000F389E02D80818F7D80830895EF92FF9229
:100F80000F931F93CF93DF93EC0181E0888F9B8DAC
:100F90008C8D98131AC0E889F989808185FF15C066
:100FA0009FB7F894EE89FF896083E889F989808189
:100FB0008370806480839FBF81E090E0DF91CF9158
:100FC0001F910F91FF90EF900895F62E0B8D10E07A
:100FD0000F5F1F4F0F731127E02E8C8D8E110CC0E9
:100FE0000FB607FCFACFE889F989808185FFF5CF34
:100FF000CE010E949C07F1CFEB8DEC0FFD2FF11D70
:10100000E35AFF4FF0829FB7F8940B8FEA89FB8970
:1010100080818062CFCFCF93DF93EC01888D8823CE
:10102000B9F0AA89BB89E889F9898C9185FD03C04B
:10103000808186FD0DC00FB607FCF7CF8C9185FF30
:10104000F2CF808185FFEDCFCE010E949C07E9CFD2
:10105000DF91CF91089580E090E0892B29F00E94E4
:10106000920781110E94000080E090E0892B49F0F6
:1010700080E090E0892B29F00E94000081110E94FD
:10108000000080E090E0892B49F080E090E0892B1F
:1010900029F00E94000081110E94000080E090E091
:1010A000892B49F080E090E0892B29F00E94000014
:1010B00081110C94000008950F931F93CF93DF9339
:1010C000EC01862F042F122F688361E00E947005C7
:1010D0000A8360E0802F0E9470051B8361E0812FEE
:1010E000DF91CF911F910F910C947005CF92DF92F9
:1010F000EF92FF920F931F93CF93DF93EC018B85B9
:101100009C85AD85BE858F839887A987BA8760E067
:1011100088810E942F048E8190E08230910538F002
:10112000880F991F880F991F05970197F1F761E0C4
:1011300088810E942F0410E000E0C12CD12C7601A0
:101140008C819D810817190778F58A810E94060411
:10115000092E000CAA0BBB0B2C813D8121503109BB
:10116000201B310B04C0880F991FAA1FBB1F2A9593
:10117000D2F7C82AD92AEA2AFB2A61E08B810E9489
:101180002F048E8190E08230910538F0880F991FEE
:10119000880F991F05970197F1F760E08B810E94F6
:1011A0002F040F5F1F4FCCCFCB86DC86ED86FE86EB
:1011B00081E04F81588569857A854C155D056E05FE
:1011C0007F0509F480E0DF91CF911F910F91FF908F
:1011D000EF90DF90CF900895CF93DF93609102025C
:1011E00070910302680F791F072E000C880B990B72
:1011F0000E94662E24E13EEA47E250E40E94A12EBE
:101200000E946F2F2091F2023091F302C901860FE4
:10121000971F97FD905F60E070E10E94A52FEC01A1
:101220008115904160F50E94330580913A039091B9
:101230003B039E01281B390BC90130933D032093CA
:101240003C032091380330913903BC0197FF04C05F
:1012500066277727681B790BA90137FF02C04F5F0C
:101260005F4F55954795461757074CF418161906C2
:101270004CF4821B930B90933D0380933C03DF91CE
:10128000CF910895820F931FF6CFCF93DF93EC0198
:1012900080913C0390913D03892B11F00E945805E9
:1012A000CE010E94EC08D0930502C0930402DF91A6
:1012B000CF910895CF93DF93009751F42091F002DE
:1012C0003091F102232B41F0DF91CF910C9445092D
:1012D00089312CEF9207C1F7CAE0D0E080913C033E
:1012E00090913D03892BC9F080913C0390913D037F
:1012F000892B31F40E943305D0933D03C0933C0306
:101300000E94D10587E10E940604892B39F786E106
:101310000E940604892B11F705C08DE20E94060485
:10132000892B11F30E94330584E690E090933D03EE
:1013300080933C0380913C0390913D03892B09F5F8
:10134000C6EFDFEF80913C0390913D03892BE1F0E4
:1013500080913C0390913D03892B31F40E94330529
:10136000D0933D03C0933C030E94D10587E10E94C6
:101370000604892B39F786E10E940604892B11F7B0
:1013800008C00E94D105D6CF8DE20E9406040197C5
:10139000F9F280913A0390913B039093F30280938A
:1013A000F202109205021092040290E080E00E9486
:1013B000EC0881E090E09093F1028093F002DF91DD
:1013C000CF910895CF93DF93EC0161E083E00E9419
:1013D0007005209759F460E083E00E942F04D093B9
:1013E000EE02C093ED02DF91CF910895CF3FD1057A
:1013F00011F461E0F1CFEDE2F5E0E491E150E2318A
:1014000008F0B0C0F0E08827E75FF54F8F4F0C94ED
:10141000DB2F1B0A200A250A2F0A390AB20A430ABF
:101420004B0A530A5D0A670A710A800A8A0AB20ADD
:10143000940A9E0AA80A84B5806884BDC7BDCFCF30
:1014400084B5806284BDC8BDCACF809180008068A9
:1014500080938000D0938900C0938800C0CF809192
:101460008000806280938000D0938B00C0938A00BC
:10147000B6CF80918000886080938000D0938D00EB
:10148000C0938C00ACCF8091B00080688093B00096
:10149000C093B300A4CF8091B00080628093B0006D
:1014A000C093B4009CCF809190008068809390009E
:1014B000D0939900C093980092CF80919000806261
:1014C00080939000D0939B00C0939A0088CF809126
:1014D0009000886080939000D0939D00C0939C0002
:1014E0007ECF8091A00080688093A0008091A000B2
:1014F0008F7B8093A000D093A900C093A8006FCFEA
:101500008091A00080628093A000D093AB00C09334
:10151000AA0065CF8091A00088608093A000D0933E
:10152000AD00C093AC005BCF8091200180688093B8
:101530002001D0932901C093280151CF809120012F
:10154000806280932001D0932B01C0932A0147CF62
:1015500080912001886080932001D0932D01C09359
:101560002C013DCFC038D1050CF043CF34CF2DE056
:10157000289FF001299FF00D1124EF57FB4F808128
:10158000811109C081810E94060421E0892B09F4A0
:1015900020E0822F0895813099F4218180913104D7
:1015A00090913204A0913304B091340404C0B695F4
:1015B000A795979587952A95D2F7282F2170E9CF7F
:1015C000823051F421818091220490912304A091D2
:1015D0002404B0912504EACF21E08330D1F62181A3
:1015E0008091130490911404A0911504B0911604F5
:1015F000DDCF0F931F93CF93DF93EC01062F142FB2
:1016000062E0802F0E94700562E0812F0E947005C9
:10161000602F70E0FB01E256FB4FE491F0E0EE0F2B
:10162000FF1FEC57FB4FA591B491B983A8836C5170
:101630007B4FFB0164916C83812F90E0FC01E256AB
:10164000FB4FE491F0E0EE0FFF1FEC57FB4F2591AD
:1016500034913B832A838C519B4FFC0184918D8371
:101660001F82188619861A86EBE3FFE13197F1F79E
:10167000EC91E62391E009F490E0D901EC918E23FE
:1016800009F092609E83DF91CF911F910F91089591
:101690000F931F93CF93DF93082F162FD42FC8E0FB
:1016A0006D2F661F6627661F802F0E942F04DD0F97
:1016B00061E0812F0E942F0460E0812F0E942F049F
:1016C000C15071F7DF91CF911F910F9108958F92C3
:1016D0009F92AF92BF92CF92DF92EF92FF920F93C1
:1016E0001F93CF93DF931F921F92CDB7DEB78C016C
:1016F00049832A83660F771FF801EA5AFF4FE0807B
:10170000F180EE0CFF1CF801CF01801B910B8E15B0
:101710009F0514F41192F8CF8981F801E60FF71FA5
:1017200081838A818083680184E5C80ED11C60E0D2
:10173000F60180810E942F044801F2E58F0E911C72
:10174000580180E5A80EB11C1E141F0474F4E1E0DA
:10175000EE1AF108F801EE0DFF1D4081F4016081E1
:10176000F50180810E94480BEFCF61E0F601808196
:101770000F900F90DF91CF911F910F91FF90EF90FD
:10178000DF90CF90BF90AF909F908F900C942F04DC
:10179000E42FDC01AA5ABF4F4D915C911416150637
:1017A000B4F4E7FDE0E20E2E000CFF0BE059FA4F17
:1017B000E4912111E068DC01A60FB71F5096EC936D
:1017C00041E0460F2E2F70E060E00C94670B089507
:1017D000FC01EA5AFF4F20813181121613064CF4A6
:1017E0006031710530F4262F4AE070E060E00C941F
:1017F000670B0895242FFC01EA5AFF4F4081518165
:101800001416150654F4FC01E60FF71F208B41E077
:10181000460F70E060E00C94670B0895DF92EF9242
:10182000FF920F931F93CF93DF93FC01EA5AFF4F70
:101830002081318162177307C4F47B018C01EB01B5
:1018400083E0CC0FDD1F8A95E1F76096C00FD11FB2
:10185000DD24D394199220E04D2DB701C8010E94D8
:10186000670BD39489E0D812F5CFDF91CF911F9108
:101870000F91FF90EF90DF9008950F931F93CF93F8
:10188000DF93EC0110E000E04D815E816F8178858F
:10189000002E04C076956795579547950A94D2F720
:1018A000698188810E94480B085F1F4F083111052C
:1018B00059F761E08A810E942F0460E08A810E94CA
:1018C0002F046D817E818F819885DF91CF911F914B
:1018D0000F910895CF93DF931092040410920504A2
:1018E00010920604109207048FEF93E00E943D0CC3
:1018F0001092FB031092FC031092FD031092FE0362
:1019000086EF93E00E943D0CCEE9D8E088818111FA
:1019100004C060E089810E942F042D968AE0C43FB4
:10192000D807A1F7DF91CF9108958F929F92AF9240
:10193000BF92CF92DF92EF92FF920F931F93CF93BC
:10194000DF938C01D62EC72EEC01C05BDF4F68837E
:1019500079834C0182E5880E911CF4015183408308
:101960005801F4E5AF0EB11CF501318320837801F5
:10197000F6E5EF0EF11C81E090E0F70191838083A2
:1019800061E08D2D0E94700561E0F40180810E946C
:10199000700561E0F50180810E94700561E0F5014C
:1019A00080810E942F04D882C982F801709611921A
:1019B000EC17FD07E1F7D0E0C0E0F70180819181ED
:1019C000C817D90754F520E04FE0BE01C8010E94B6
:1019D000670BF70180819181C817D90734F427E09C
:1019E0004BE0BE01C8010E94670B20E049E0BE0148
:1019F000C8010E94670BBE01C8010E940E0CF701CE
:101A000080819181C817D90734F420E04CE0BE01F1
:101A1000C8010E94670B2196D0CFDF91CF911F9113
:101A20000F91FF90EF90DF90CF90BF90AF909F907D
:101A30008F9008950E944E03882359F081E080938F
:101A4000E70D8093E80D8091E90D9091EA0D0C94DB
:101A5000FB2D1092E80D60E070E0CB0108950E942C
:101A60001A0D0C941A0DCF92DF92EF92FF92CF9342
:101A7000DF930E941A0D6B017C010E941A0DAB01CD
:101A8000BC01EEE9F8E0D0E0C0E082819381092E4C
:101A9000000CAA0BBB0B8C159D05AE05BF0509F00C
:101AA0009BC08DE08C9FF0018D9FF00D1124E256BC
:101AB000F74F808181112FC08181452B462B472B09
:101AC00041F161E00E942F048DE08C9FF0018D9F19
:101AD000F00D1124E256F74F8081813021F48FEF11
:101AE00093E00E943D0C8DE08C9FF0018D9FF00DE6
:101AF0001124E256F74F8081823009F073C086EFDF
:101B000093E0DF91CF91FF90EF90DF90CF900C9416
:101B10003D0C60E0D7CF813071F5C0900404D090C7
:101B20000504E0900604F0900704218181E090E034
:101B3000A0E0B0E004C0880F991FAA1FBB1F2A9520
:101B4000D2F7452B462B472B69F08C299D29AE29CE
:101B5000BF298093040490930504A0930604B093D6
:101B60000704B2CF80959095A095B0958C219D21CA
:101B7000AE21BF21EECF823009F0A6CFC090FB038B
:101B8000D090FC03E090FD03F090FE03218181E002
:101B900090E0A0E0B0E004C0880F991FAA1FBB1F0F
:101BA0002A95D2F7452B462B472B69F08C299D2986
:101BB000AE29BF298093FB039093FC03A093FD0300
:101BC000B093FE0381CF80959095A095B0958C2120
:101BD0009D21AE21BF21EECF21963D96CE32D1057B
:101BE00009F053CFDF91CF91FF90EF90DF90CF902E
:101BF0000895CF92DF92EF92FF920E941A0D6B012F
:101C00007C0180E1C816D104E104F10470F4B6014E
:101C10008EE993E00E94E80BB60186E493E00E940F
:101C2000E80BD0920102C0920002FF90EF90DF908B
:101C3000CF9008950E941A0D6F3F7105810591059F
:101C400009F018F4CB010C94E20908950E941A0DD2
:101C5000672B682B692B41F461E083E00E947005DB
:101C600060E083E00C942F048091ED029091EE02ED
:101C70000C94E209CF92DF92EF92FF920E941A0D2C
:101C80006B017C0187E10E940604892BC9F0D70112
:101C9000C60188519C4FAF4FBF4F813D9740A10572
:101CA000B10570F4D0920302C09202028091040246
:101CB00090910502FF90EF90DF90CF900C945A091D
:101CC000FF90EF90DF90CF900895FB0101900020EE
:101CD000E9F73197AF01461B570BDC01ED91FC9101
:101CE0000280F381E02D199480919D0B8823A1F04F
:101CF0006091F00D8091EE0D9091EF0D0E94F30632
:101D00008091A50B882341F06EE172E08091EE0D89
:101D10009091EF0D0E94650E1092A40B10929D0BF6
:101D200080E008958F929F92AF92BF92EF92FF92C0
:101D30000F931F93CF93DF93CDB7DEB7A1970FB665
:101D4000F894DEBF0FBECDBF7C01FA01CB0119A212
:101D5000223008F42AE08E010F5D1F4F822E912C55
:101D6000B12CA12CBF01A50194010E94B92FF9014A
:101D7000CA016A300CF5605DD8016E938D01232B8A
:101D8000242B252B79F790E080E0109721F0BD01FE
:101D9000C7010E94650EA1960FB6F894DEBF0FBE74
:101DA000CDBFDF91CF911F910F91FF90EF90BF902A
:101DB000AF909F908F900895695CDECFCF92DF92B5
:101DC000EF92FF920F931F93CF93DF9377FF1DC086
:101DD0006A017B01EC016DE20E94F3068C0144274D
:101DE0005527BA014C195D096E097F092AE0CE0119
:101DF0000E94920E800F911FDF91CF911F910F9142
:101E0000FF90EF90DF90CF9008952AE0DF91CF917F
:101E10001F910F91FF90EF90DF90CF900C94920E56
:101E2000CF93DF9320919D0B2223A9F0EC016091C9
:101E3000F10D8091EE0D9091EF0D0E94F306AE0131
:101E4000DD0F660B770B8091EE0D9091EF0DDF911A
:101E5000CF910C94DE0EDF91CF910895CF939091A6
:101E60009D0B9923A9F0C82F6091F10D8091EE0D83
:101E70009091EF0D0E94F3064C2FCC0F550B660B83
:101E8000770B8091EE0D9091EF0DCF910C94DE0EBB
:101E9000CF91089590919D0B911110C091E0909376
:101EA0009D0B9093A40B482F50E070E060E02AE077
:101EB0008091EE0D9091EF0D0C94920E0895CF93BA
:101EC000DF9390919D0B91110AC0EB010E944A0F84
:101ED000CE010E94FA06DF91CF910C94740E80E03F
:101EE000DF91CF91089560E172E083E00C945F0F81
:101EF000CF92DF92EF92FF920F931F93CF93DF93D6
:101F00000E944E03882309F472C081E08093E70D9C
:101F10008093E80DC091E90DD091EA0D61E272E085
:101F2000CE010E941832892B09F066C080E00E9421
:101F30004A0F62E370E080E090E00E94A20686E330
:101F400094E00E94FA0662E370E080E090E00E9474
:101F5000A2068FE094E00E94FA0662E370E080E05F
:101F600090E00E94A2068BEF93E00E94FA0662E3E3
:101F700070E080E090E00E94A20682E090E00E9483
:101F8000100F81E090E00E94100F83ED93E00E941B
:101F9000FA0662E370E080E090E00E94A2068AEC1C
:101FA00093E00E94FA0662E370E080E090E00E9415
:101FB000A20685EB93E00E94FA0662E370E080E0FF
:101FC00090E00E94A20688EA93E00E94FA0662E38B
:101FD00070E080E090E00E94A206DF91CF911F9117
:101FE0000F91FF90EF90DF90CF900C94740E1092B1
:101FF000E80DD0E0C0E092CF66E272E0CE010E9430
:1020000018328C01892B09F0B8C080E00E944A0F79
:102010008EE993E00E94FA0681E090E00E94100FA2
:102020000E94740E86E294E00E94760887E194E0B4
:102030000E94760888E094E00E9476088DE0C82E21
:10204000DD24D394C09EE001C19ED00D1124CF5752
:10205000DB4F8A819B819C01205D37402C323140CF
:1020600088F5C8010E94B70A81110EC088E00E945D
:102070004A0F8A819B810E94100F8A850E942E0F31
:102080000E94740E1C860DC088E00E944A0F8A814F
:102090009B810E94100F8B850E942E0F0E94740E50
:1020A000DC860F5F1F4F0135110564F280E00E944E
:1020B0004A0F84E993E00E94FA0682E090E00E94D1
:1020C000100F8BCF9C012C5F38402436310508F06F
:1020D00048C078018FEFE81AF80AC8010E94B70AD1
:1020E000CE9C8001CF9C100D1124811112C088E07C
:1020F0000E944A0F8A819B810E94100F8A850E944C
:102100002E0F0E94740E1C86F801EF57FB4FD486E9
:1021100018C0C7010E94B70A811115C088E00E944B
:102120004A0F0F571B4FF801828193810E94100FB5
:10213000F80182850E942E0F0E94740EF801148609
:10214000DC868701AECF88E00E944A0F8A819B819E
:102150000E94100F8B850E942E0F0E94740EDC8649
:10216000D3CF805699408436910508F09ACFC801A4
:102170000E94B70A811195CF79CF60E372E0CE015A
:102180000E941832892B59F50E94D5066093F402FB
:102190007093F5028093F6029093F70280E00E941C
:1021A0004A0F8FE893E00E94FA060E941A0D6B0115
:1021B0007C0180919D0B882309F40FCF6091F10D74
:1021C0008091EE0D9091EF0D0E94F306B701A601EC
:1021D0008091EE0D9091EF0D0E94DE0EFECE65E334
:1021E00072E0CE010E941832892BF1F40E946A0C31
:1021F00070E060E086E493E00E940E0C70E060E026
:102200008EE993E00E940E0C90E080E00E94E209CB
:1022100081E090E0DF91CF911F910F91FF90EF90BF
:10222000DF90CF900C94450969E372E0CE010E94E3
:102230001832892B09F048C06EE273E081E00E94F9
:102240005F0F62E370E080E090E00E94A20662EC23
:1022500072E081E00E945F0F62E370E080E090E056
:102260000E94A20661E772E081E00E945F0F62E3D4
:1022700070E080E090E00E94A20660E272E081E0FF
:102280000E945F0F62E370E080E090E00E94A2068F
:1022900080919D0B811118C00E944A0F80919D0B67
:1022A000882309F49ACE6091F10D8091EE0D909102
:1022B000EF0D0E94F30669E372E08091EE0D9091BC
:1022C000EF0D0E94650E89CEDF91CF911F910F9186
:1022D000FF90EF90DF90CF900895FC018081918175
:1022E000009711F00C94933008950F931F93CF93A0
:1022F000DF93EC0188819981009759F02A813B8115
:102300002617370730F081E0DF91CF911F910F91B1
:1023100008958B016F5F7F4F0E941C31009759F029
:10232000998388831B830A832C813D81232B59F752
:10233000FC011082E8CF80E0E7CFEF92FF920F938D
:102340001F93CF93DF93EC017B01FB0101900020F1
:10235000E9F73197E61BF70BA1F00C811D810E0FF9
:102360001F1FB8010E94751128813981882389F0C7
:102370008C819D81B701820F931F0E9421321D83A2
:102380000C83CE01DF91CF911F910F91FF90EF90C1
:1023900008952115310519F0C9010E949330198261
:1023A00018821D821C821B821A82EBCFEF92FF9251
:1023B0000F931F93CF93DF93EC017B018A01BA0146
:1023C0000E94751128813981811114C021153105B0
:1023D00019F0C9010E949330198218821D821C8253
:1023E0001B821A82CE01DF91CF911F910F91FF9036
:1023F000EF9008951D830C83B701C9010E9421321B
:10240000F1CFEF92FF920F931F93CF93DF93CDB74E
:10241000DEB762970FB6F894DEBF0FBECDBF8C015A
:10242000CB01F8011182108213821282158214826C
:102430004AE09E012F5F3F4F7901B9010E94222E91
:10244000F70101900020E9F73197AF014E195F09BC
:10245000B701C8010E94D61162960FB6F894DEBF8C
:102460000FBECDBFDF91CF911F910F91FF90EF90E5
:102470000895FB01DC0111961C921E9213961C928A
:102480001E92129715961C921E9214978617970704
:1024900049F0608171816115710521F04481558198
:1024A0000C94D61108950F931F93CF93DF9300D010
:1024B00000D0CDB7DEB790919D0B911134C08B0148
:1024C0000E944A0FB801CE0101960E9439128091F4
:1024D0009D0B8823B9F06091F10D8091EE0D9091E4
:1024E000EF0D0E94F3068091EE0D9091EF0D4D815E
:1024F0005E8169817A81DC01ED91FC910280F3813A
:10250000E02D1995CE0101960E946D110E94740E66
:1025100026960FB6F894DEBF0FBECDBFDF91CF91E8
:102520001F910F91089580E0F3CF0F931F93CF93E6
:10253000DF9300D000D0CDB7DEB70E944E038823D2
:1025400009F455C081E08093E70D8093E80D009178
:10255000E90D1091EA0D60E472E0C8010E941832A2
:10256000892B09F049C081E08093EF02609100025D
:1025700070910102CE0101960E940112BE016F5FAF
:102580007F4F8BE00E945312CE0101960E946D1185
:102590006091ED027091EE02CE0101960E9401124F
:1025A000BE016F5F7F4F8CE00E945312CE010196F7
:1025B0000E946D116091020270910302CE0101969A
:1025C0000E940112BE016F5F7F4F8EE00E94531286
:1025D000CE0101960E946D1126960FB6F894DEBFCB
:1025E0000FBECDBFDF91CF911F910F910895109233
:1025F000E80D10E000E0AFCF66E472E0C8010E9491
:102600001832892B39F06BE472E0C8010E9418324D
:10261000892BC9F41092EF020E946A0C90E080E0CE
:102620000E94E20970E060E086E493E00E940E0CF4
:1026300070E060E08EE993E00E940E0C81E090E093
:102640000E944509C9CF65E372E0C8010E941832B3
:10265000892B11F6DFCF0F931F93CF93DF9300D019
:1026600000D0CDB7DEB720919D0B211135C08C0174
:1026700088E00E944A0FB801CE0101960E943912EB
:1026800080919D0B8823B9F06091F10D8091EE0D42
:102690009091EF0D0E94F3068091EE0D9091EF0D59
:1026A0004D815E8169817A81DC01ED91FC9102802E
:1026B000F381E02D1995CE0101960E946D110E94C3
:1026C000740E26960FB6F894DEBF0FBECDBFDF9115
:1026D000CF911F910F91089580E0F3CFFC011182FB
:1026E00010821382128215821482FB010190002055
:1026F000E9F73197AF01461B570B0C94D611CF93D6
:10270000DF93BC01009771F0FC01D0E0C0E0CF0185
:102710004191442339F09E012F5F3F4F4E3241F0EB
:10272000E901F5CFCFEFDFEFCE01DF91CF91089533
:10273000620F731FFB0101900020E9F7AF01461BF8
:10274000570B0E940632F0CFEF92FF920F931F9328
:10275000CF93DF93EC01FC0101900020E9F7319762
:102760007F01E81AF90A0E947F138C010F5F1F4F47
:1027700085E0E816F10408F442C021E002301105BA
:1027800009F020E0488164E070E086E493E00E9474
:10279000C80B21E00330110509F020E0498163E016
:1027A00070E086E493E00E94C80B21E0043011053C
:1027B00009F020E04A8162E070E086E493E00E9444
:1027C000C80B21E00530110509F020E04B8161E0E4
:1027D00070E086E493E00E94C80B21E0063011050A
:1027E00009F020E04C8170E060E086E493E0DF9146
:1027F000CF911F910F91FF90EF900C94C80B20E0A8
:1028000040E264E070E084E0E816F10479F586E4E3
:1028100093E00E94C80B21E00230110509F020E08E
:10282000488163E070E086E493E00E94C80B21E0F9
:102830000330110509F020E0498162E070E086E490
:1028400093E00E94C80B21E00430110509F020E05C
:102850004A8161E070E086E493E00E94C80B21E0C9
:102860000530110509F020E04B81BDCF83E0E8166B
:10287000F10459F586E493E00E94C80B20E040E2A1
:1028800063E070E086E493E00E94C80B21E0023030
:10289000110509F020E0488162E070E086E493E0F1
:1028A0000E94C80B21E00330110509F020E04981A6
:1028B00061E070E086E493E00E94C80B21E0043000
:1028C000110509F020E04A818ECF82E0E816F1047C
:1028D00039F586E493E00E94C80B20E040E263E013
:1028E00070E086E493E00E94C80B20E040E262E0E2
:1028F00070E086E493E00E94C80B21E002301105ED
:1029000009F020E0488161E070E086E493E00E94F5
:10291000C80B21E00330110509F020E0498163CFA5
:10292000EA94EF2819F586E493E00E94C80B20E0B2
:1029300040E263E070E086E493E00E94C80B20E090
:1029400040E262E070E086E493E00E94C80B20E081
:1029500040E261E070E086E493E00E94C80B21E071
:102960000230110509F020E048813DCF86E493E074
:102970000E94C80B20E040E263E070E086E493E050
:102980000E94C80B20E040E262E070E086E493E041
:102990000E94C80B20E040E261E070E086E493E032
:1029A0000E94C80B20E040E21ECFEF92FF920F93EF
:1029B0001F93CF93DF93EC01FC0101900020E9F716
:1029C00031977F01E81AF90A0E947F138C010F5F8B
:1029D0001F4F85E0E816F10408F442C021E0023000
:1029E000110509F020E0488164E070E08EE993E091
:1029F0000E94C80B21E00330110509F020E0498155
:102A000063E070E08EE993E00E94C80B21E004309F
:102A1000110509F020E04A8162E070E08EE993E060
:102A20000E94C80B21E00530110509F020E04B8120
:102A300061E070E08EE993E00E94C80B21E006306F
:102A4000110509F020E04C8170E060E08EE993E030
:102A5000DF91CF911F910F91FF90EF900C94C80BD5
:102A600020E040E264E070E084E0E816F10479F5EB
:102A70008EE993E00E94C80B21E00230110509F0B5
:102A800020E0488163E070E08EE993E00E94C80B8B
:102A900021E00330110509F020E0498162E070E097
:102AA0008EE993E00E94C80B21E00430110509F083
:102AB00020E04A8161E070E08EE993E00E94C80B5B
:102AC00021E00530110509F020E04B81BDCF83E006
:102AD000E816F10459F58EE993E00E94C80B20E056
:102AE00040E263E070E08EE993E00E94C80B21E0D1
:102AF0000230110509F020E0488162E070E08EE9C3
:102B000093E00E94C80B21E00330110509F020E09A
:102B1000498161E070E08EE993E00E94C80B21E0FA
:102B20000430110509F020E04A818ECF82E0E816DA
:102B3000F10439F58EE993E00E94C80B20E040E2F1
:102B400063E070E08EE993E00E94C80B20E040E271
:102B500062E070E08EE993E00E94C80B21E0023051
:102B6000110509F020E0488161E070E08EE993E012
:102B70000E94C80B21E00330110509F020E04981D3
:102B800063CFEA94EF2819F58EE993E00E94C80B11
:102B900020E040E263E070E08EE993E00E94C80B21
:102BA00020E040E262E070E08EE993E00E94C80B12
:102BB00020E040E261E070E08EE993E00E94C80B03
:102BC00021E00230110509F020E048813DCF8EE977
:102BD00093E00E94C80B20E040E263E070E08EE9E1
:102BE00093E00E94C80B20E040E262E070E08EE9D2
:102BF00093E00E94C80B20E040E261E070E08EE9C3
:102C000093E00E94C80B20E040E21ECF8F929F927B
:102C1000AF92BF92CF92DF92EF92FF92CF93DF936A
:102C20000E941A0D4B015C010E941A0D0E941A0DA0
:102C30006B017C010E944E03882351F181E0809357
:102C4000E70D8093E80DC091E90DD091EA0D85E67E
:102C500088169104A104B104C9F186E6881691048E
:102C6000A104B10409F448C084E688169104A104C3
:102C7000B10409F068C082E0C816D104E104F1048F
:102C800061F4CE010E94D514BE018CE093E012C025
:102C90001092E80DD0E0C0E0DACFCD28CE28CF28C2
:102CA00009F051C080E292E00E94D51460E272E027
:102CB00088EF92E0DF91CF91FF90EF90DF90CF907F
:102CC000BF90AF909F908F900C94213282E0C816F5
:102CD000D104E104F10429F4CE010E94A413BE0141
:102CE000E7CFCD28CE28CF2871F580E292E00E9470
:102CF000A41360E272E0C9CF82E0C816D104E104F7
:102D0000F10479F4CE010E94DD2DDF91CF91FF9087
:102D1000EF90DF90CF90BF90AF909F908F900C94EA
:102D20005A09CD28CE28CF2871F481E090E0DF91B8
:102D3000CF91FF90EF90DF90CF90BF90AF909F909A
:102D40008F900C944509DF91CF91FF90EF90DF9029
:102D5000CF90BF90AF909F908F9008951F920F9249
:102D60000FB60F9211242F933F938F939F93AF939E
:102D7000BF938091260390912703A0912803B091DF
:102D800029033091250323E0230F2D3758F50196B1
:102D9000A11DB11D20932503809326039093270343
:102DA000A0932803B093290380912A0390912B03C9
:102DB000A0912C03B0912D030196A11DB11D80930C
:102DC0002A0390932B03A0932C03B0932D03BF9160
:102DD000AF919F918F913F912F910F900FBE0F90C8
:102DE0001F90189526E8230F0296A11DB11DD2CF82
:102DF0001F920F920FB60F9211240BB60F922F93C2
:102E00003F934F935F936F937F938F939F93AF9372
:102E1000BF93EF93FF9380E09BE00E949C07FF919C
:102E2000EF91BF91AF919F918F917F916F915F9142
:102E30004F913F912F910F900BBE0F900FBE0F90AF
:102E40001F9018951F920F920FB60F9211240BB678
:102E50000F922F938F939F93EF93FF93E091100B1B
:102E6000F091110B8081E091160BF091170B82FD10
:102E70001DC090818091190B8F5F8F7320911A0B69
:102E8000821741F0E091190BF0E0E050F54F958F7B
:102E90008093190BFF91EF919F918F912F910F903C
:102EA0000BBE0F900FBE0F901F9018958081F2CF30
:102EB0002F923F924F925F926F927F928F929F924A
:102EC000AF92BF92CF92DF92EF92FF920F931F9338
:102ED000CF93DF931092030B1092020B88EE93E0D6
:102EE000A0E0B0E08093040B9093050BA093060B39
:102EF000B093070B80E192E09093010B8093000B5D
:102F000085EC90E090930D0B80930C0B84EC90E09B
:102F100090930F0B80930E0B80EC90E09093110B2D
:102F20008093100B81EC90E09093130B8093120B25
:102F300082EC90E09093150B8093140B86EC90E05C
:102F40009093170B8093160B1092190B10921A0B7B
:102F500010921B0B10921C0B66E572E08FE59EE051
:102F60000E946E136CE572E089E59EE00E946E138C
:102F70001092F40D1092F30D80E09BE09093EF0D12
:102F80008093EE0D1092A50B8CE28093F10D8BE3F4
:102F90008093F00D8FE28093F20D80E48093A00B7C
:102FA0008FE38093A10B10929F0B1092EA0D109269
:102FB000E90D1092EC0D1092EB0D81E08093E70D7E
:102FC000E5EFFDE089E59EE0119211928E179F07D3
:102FD000D9F71092A40B62E672E08AEF9AE00E94A1
:102FE0006E1363E872E084EF9AE00E946E13C1E012
:102FF000C0939E0887E1C82EC0929F0888EE93E098
:103000009093A1088093A00860E272E082EA98E0C1
:103010000E946E13C093A8081092A908DFEFD09306
:10302000AA08C093AB0896E1D92ED092AC0889EEDD
:1030300093E09093AE088093AD0860E272E08FEA6F
:1030400098E00E946E13C093B5081092B608D09312
:10305000B708C093B80887E08093B9088AEE93E078
:103060009093BB088093BA0860E272E08CEB98E022
:103070000E946E13C093C2081092C308D093C40874
:10308000C093C50826E0922E9092C6088BEE93E07E
:103090009093C8088093C70860E272E089EC98E0DA
:1030A0000E946E13C093CF081092D008D093D1081D
:1030B000C093D20835E0F32EF092D3088CEE93E063
:1030C0009093D5088093D40860E272E086ED98E092
:1030D0000E946E13C093DC081092DD08D093DE08C6
:1030E000C093DF0844E0642E6092E0088DEE93E028
:1030F0009093E2088093E10860E272E083EE98E04A
:103100000E946E13C093E9081092EA08D093EB086E
:1031100012E01093EC0851E1B52EB092ED088EEE5E
:1031200093E09093EF088093EE0860E272E080EF06
:1031300098E00E946E13C093F6081092F708D0939F
:10314000F8081093F90869E0562E5092FA088FEEAD
:1031500093E09093FC088093FB0860E272E08DEFAF
:1031600098E00E946E13C093030910920409D09353
:1031700005091093060978E0A72EA092070980EFB1
:1031800093E0909309098093080960E272E08AE075
:1031900099E00E946E13C093100910921109D09308
:1031A000120910931309E0E17E2E7092140981EF49
:1031B00093E0909316098093150960E272E087E12D
:1031C00099E00E946E13C0931D0910921E09D093BE
:1031D0001F0910932009C092210982EF93E0909378
:1031E00023098093220960E272E084E299E00E9460
:1031F0006E13C0932A0910922B09D0932C091093B7
:103200002D098AE080932E0983EF93E09093300993
:1032100080932F0960E272E081E399E00E946E13CF
:10322000C093370910923809D093390910933A099D
:10323000FBE0EF2EE0923B0984EF93E090933D0991
:1032400080933C0960E272E08EE399E00E946E1385
:10325000C093440910924509D09346091093470939
:103260008CE08093480985EF93E090934A0980931E
:10327000490960E272E08BE499E00E946E13C0930A
:10328000510910925209D093530910935409ADE09B
:103290002A2E2092550986EF93E090935709809348
:1032A000560960E272E088E599E00E946E13C093CF
:1032B0005E0910925F09D093600910936109BEE026
:1032C0003B2E3092620987EF93E0909364098093DC
:1032D000630960E272E085E699E00E946E13C09394
:1032E0006B0910926C09D0936D0910936E090FE071
:1032F000402E40926F0988EF93E09093710980937C
:10330000700960E272E082E799E00E946E13C09358
:10331000780910927909D0937A09C0937B09709249
:103320007C0989EF93E090937E0980937D0960E2A8
:1033300072E08FE799E00E946E13C09385091092A6
:103340008609D0938709C0938809B09289098AEFCA
:1033500093E090938B0980938A0960E272E08CE895
:1033600099E00E946E13C093920910929309D09332
:103370009409C093950985E1882E809296098BEF78
:1033800093E0909398098093970960E272E089E94D
:1033900099E00E946E13C0939F091092A009D093E8
:1033A000A109C093A20984E18093A3098CEF93E063
:1033B0009093A5098093A40960E272E086EA99E0FF
:1033C0000E946E13C093AC091092AD09D093AE0960
:1033D000C093AF0982E18093B0098DEF93E09093A1
:1033E000B2098093B10960E272E083EB99E00E9438
:1033F0006E13C093B9091092BA09D093BB09C09358
:10340000BC0983E18093BD098EEF93E09093BF09DF
:103410008093BE0960E272E080EC99E00E946E1336
:10342000C093C6091092C709D093C809C093C909AF
:10343000A092CA098FEF93E09093CC098093CB09B7
:1034400060E272E08DEC99E00E946E13C093D309A4
:103450001092D409D093D509C093D6095092D709B8
:1034600080E094E09093D9098093D80960E272E0FB
:103470008AED99E00E946E13C093E0091092E10971
:10348000D093E209C093E3098AE08093E40981E0E4
:1034900094E09093E6098093E50960E272E087EE9C
:1034A00099E00E946E13C093ED091092EE09D0933B
:1034B000EF09C093F009E092F10982E094E0909363
:1034C000F3098093F20960E272E084EF99E00E94D0
:1034D0006E13C093FA091092FB09D093FC09C093B4
:1034E000FD091092FE0983E094E09093000A809316
:1034F000FF0960E272E081E09AE00E946E13C093DF
:10350000070A1092080AD093090AC0930A0A03E036
:1035100000930B0A84E094E090930D0A80930C0AC8
:1035200060E272E08EE09AE00E946E13C093140A8B
:103530001092150AD093160AC093170AC093180A5E
:1035400085E094E090931A0A8093190A60E272E091
:103550008BE19AE00E946E13C093210A1092220A16
:10356000D093230AC093240A1093250A86E094E09E
:103570009093270A8093260A60E272E088E29AE03C
:103580000E946E13C0932E0A10922F0AD093300A15
:10359000C093310A4092320A87E094E09093340A53
:1035A0008093330A60E272E085E39AE00E946E1332
:1035B000C0933B0A10923C0AD0933D0AC0933E0A46
:1035C0008CE080933F0A88E094E09093410A8093D6
:1035D000400A60E272E082E49AE00E946E13C093B7
:1035E000480A1092490AD0934A0AC0934B0A309273
:1035F0004C0A89E094E090934E0A80934D0A60E271
:1036000072E08FE49AE00E946E13C093550A109204
:10361000560AD093570A1093580A83E18093590AA7
:103620008AE094E090935B0A80935A0A60E272E029
:103630008CE59AE00E946E13C093620A1092630AAE
:10364000D093640A1093650A8092660A8BE094E036
:103650009093680A8093670A60E272E089E69AE0D4
:103660000E946E13C0936F0A1092700AD093710A71
:10367000C093720A2092730A8CE094E09093750ACA
:103680008093740A60E272E086E79AE00E946E130B
:10369000C0937C0A10927D0AD0937E0A10937F0A11
:1036A00082E18093800A8DE094E09093820A809377
:1036B000810A60E272E083E89AE00E946E13C09390
:1036C000890A10928A0AD0938B0A10938C0A84E19B
:1036D00080938D0A8EE094E090938F0A80938E0AF7
:1036E00060E272E080E99AE00E946E13C093960A4D
:1036F0001092970AD093980A1093990AD0929A0A36
:103700008FE094E090939C0A80939B0A60E272E0C1
:103710008DE99AE00E946E13C093A30A1092A40A46
:10372000D093A50A1093A60A1092A70A80E194E00C
:103730009093A90A8093A80A60E272E08AEA9AE06C
:103740000E946E13C093B00A1092B10AD093B20ACD
:103750001093B30A9092B40A81E194E09093B60A70
:103760008093B50A60E272E087EB9AE00E946E13E4
:10377000C093BD0A1092BE0AD093BF0A1093C00A2C
:10378000C093C10A82E194E09093C30A8093C20A75
:1037900060E272E084EC9AE00E946E13C093CA0A61
:1037A0001092CB0AD093CC0A1093CD0AF092CE0A95
:1037B00083E194E09093D00A8093CF0A60E272E0B4
:1037C00081ED9AE00E946E13C093D70A1092D80A36
:1037D000D093D90A1093DA0A1093DB0A84E194E0BB
:1037E0009093DD0A8093DC0A60E272E08EED9AE04D
:1037F0000E946E13C093E40A1092E50AD093E60A81
:103800001093E70A6092E80A85E194E09093EA0A4F
:103810008093E90A60E272E08BEE9AE00E946E13F8
:10382000C093F10A1092F20AD093F30AC093810474
:103830006092820484E398E09093840480938304EC
:1038400060E272E085E894E00E946E1310928B04AF
:10385000C0938C04D0938D04C0938E04F0928F0497
:1038600085E398E0909391048093900460E272E085
:1038700082E994E00E946E1310929804C093990418
:10388000D0939A04C0939B04E0929C0487E398E051
:1038900090939E0480939D0460E272E08FE994E02F
:1038A0000E946E131092A504C093A604D093A7049F
:1038B000C093A8042092A90488E398E09093AB04F5
:1038C0008093AA0460E272E08CEA94E00E946E1396
:1038D0001092B204C093B304D093B404C093B5045F
:1038E0008AE08093B60489E398E09093B8048093CB
:1038F000B70460E272E089EB94E00E946E131092CC
:10390000BF04C093C004D093C104C093C2043092DA
:10391000C3048AE398E09093C5048093C40460E2F2
:1039200072E086EC94E00E946E131092CC04C09377
:10393000CD04D093CE04C093CF044092D0048BE347
:1039400098E09093D2048093D10460E272E083ED1A
:1039500094E00E946E131092D904C093DA04D093BD
:10396000DB04C093DC04A092DD048CE398E0909328
:10397000DF048093DE0460E272E080EE94E00E9457
:103980006E131092E604C093E704D093E804C0934A
:10399000E9045092EA048DE398E09093EC0480935C
:1039A000EB0460E272E08DEE94E00E946E131092E0
:1039B000F304C093F404D093F504C093F604C092CA
:1039C000F7048FE598E09093F9048093F80460E29F
:1039D00072E08AEF94E00E946E13C093000510928B
:1039E0000105D0930205C093030582E1809304058D
:1039F0008CE598E0909306058093050560E272E0FF
:103A000087E095E00E946E1310920D05C0930E059D
:103A1000D0930F05C0931005B09211058DE598E085
:103A2000909313058093120560E272E084E195E0C3
:103A30000E946E1310921A05C0931B05D0931C05AB
:103A4000C0931D0570921E058EE598E090932005A9
:103A500080931F0560E272E081E295E00E946E13A0
:103A600010922705C0932805D093290510932A05A5
:103A700087E080932B0581E598E090932D05809356
:103A80002C0560E272E08EE295E00E946E131092C7
:103A90003405C0933505D0933605109337059092C1
:103AA000380582E598E090933A058093390560E205
:103AB00072E08BE395E00E946E1310924105C09373
:103AC0004205D093430510934405F092450583E5E4
:103AD00098E0909347058093460560E272E088E4A1
:103AE00095E00E946E1310924E05C0934F05D0933F
:103AF0005005109351056092520584E598E090932B
:103B000054058093530560E272E085E595E00E94DC
:103B10006E1310925B05C0935C05D0935D05109306
:103B20005E0540925F0585E598E09093610580937E
:103B3000600560E272E082E695E00E946E131092EA
:103B40006805C0936905D0936A0510936B053092A0
:103B50006C0586E598E090936E0580936D0560E2B4
:103B600072E08FE695E00E946E1310927505C09387
:103B70007605D0937705109378055092790587E5FF
:103B800098E090937B0580937A0560E272E08CE781
:103B900095E00E946E1310928205C0938305D09326
:103BA000840510938505A092860588E598E090939A
:103BB00088058093870560E272E089E895E00E94BD
:103BC0006E1310928F05C0939005D09391051093BA
:103BD0009205209293058AE598E09093950580934D
:103BE000940560E272E086E995E00E946E131092FF
:103BF0009C05C0939D05D0939E0510939F058AE078
:103C00008093A0058BE598E09093A2058093A10591
:103C100060E272E083EA95E00E946E131092A905BB
:103C2000C093AA05D093AB050093AC058CE08093BC
:103C3000AD058EE398E09093AF058093AE0560E20A
:103C400072E080EB95E00E946E131092B605C0936F
:103C5000B705D093B8050093B9052092BA058FE354
:103C600098E09093BC058093BB0560E272E08DEB19
:103C700095E00E946E131092C305C093C405D093C3
:103C8000C5050093C6053092C70580E498E090937F
:103C9000C9058093C80560E272E08AEC95E00E9455
:103CA0006E131092D005C093D105D093D205009326
:103CB000D3054092D40581E498E09093D605809393
:103CC000D50560E272E087ED95E00E946E131092D8
:103CD000DD05C093DE05D093DF050093E005A092DB
:103CE000E10582E498E09093E3058093E20560E2C9
:103CF00072E084EE95E00E946E131092EA05C09384
:103D0000EB05D093EC050093ED05B092EE0583E44E
:103D100098E09093F0058093EF0560E272E081EF08
:103D200095E00E946E131092F705C093F805D093AA
:103D3000F9051093FA05D092FB0584E498E090937E
:103D4000FD058093FC0560E272E08EEF95E00E9435
:103D50006E1310920406C0930506D09306061093C6
:103D60000706C092080685E498E090930A068093BF
:103D7000090660E272E08BE096E00E946E131092FA
:103D80001106C0931206D093130610931406709276
:103D9000150686E498E0909317068093160660E275
:103DA00072E088E196E00E946E1310921E06C093A6
:103DB0001F06D093200610922106D092220687E497
:103DC00098E0909324068093230660E272E085E2F7
:103DD00096E00E946E13C0932B0610922C06D0938F
:103DE0002D0610922E06C0922F0688E498E090933C
:103DF00031068093300660E272E082E396E00E9432
:103E00006E13C093380610923906D0933A06109379
:103E10003B0680923C068AE498E090933E068093AD
:103E20003D0660E272E08FE396E00E946E1310920E
:103E30004506C0934606D09347061093480684E192
:103E4000809349068BE498E090934B0680934A0652
:103E500060E272E08CE496E00E946E1310925206CB
:103E6000C0935306D093540610935506B09256064D
:103E70008CE498E0909358068093570660E272E0D5
:103E800089E596E00E946E1310925F06C09360066B
:103E9000D0936106C09362061092630693E6A92E42
:103EA00099E0B92EB0926506A092640660E272E0D5
:103EB00086E696E00E946E1310926C06D0936D0613
:103EC000D0936E06C0936F06C0937006B0927206D0
:103ED000A092710660E272E083E796E00E946E13A2
:103EE000C0937906D0937A06D0937B06C0937C0664
:103EF00010937D06B0927F06A0927E0660E272E08B
:103F000080E896E00E946E1310938606D093870691
:103F1000D0938806C093890600938A06B0928C06D7
:103F2000A0928B0660E272E08DE896E00E946E132C
:103F300000939306D0939406D0939506C09396066B
:103F4000D092970624E6A22E29E0B22EB0929906CE
:103F5000A092980660E272E08AE996E00E946E13F1
:103F60001092A006D093A106D093A206C093A306F8
:103F70008092A406B092A606A092A50660E272E026
:103F800087EA96E00E946E13C093AD06D093AE060A
:103F9000D093AF06C093B00684E18093B106B0928F
:103FA000B306A092B20660E272E084EB96E00E9453
:103FB0006E131093BA06D093BB06D093BC06C09381
:103FC000BD0683E18093BE06B092C006A092BF06F4
:103FD00060E272E081EC96E00E946E130093C706E7
:103FE000D093C806D093C9060093CA06E092CB06C8
:103FF00030E6A32E39E0B32EB092CD06A092CC06C7
:1040000060E272E08EEC96E00E946E131092D4068D
:10401000D093D506D093D6060093D7066092D806E3
:10402000B092DA06A092D90660E272E08BED96E0DB
:104030000E946E13C093E106D093E206D093E3068C
:104040000093E406F092E506B092E706A092E60639
:1040500060E272E088EE96E00E946E131093EE0626
:10406000D093EF06D093F0060093F1069092F206FB
:10407000B092F406A092F30660E272E085EF96E05B
:104080000E946E130093FB06D093FC06D093FD06AE
:104090000093FE067092FF0641E6A42E49E0B42E7E
:1040A000B0920107A092000760E272E082E097E020
:1040B0000E946E1310920807D0930907D0930A0745
:1040C00000930B07C0920C07B0920E07A0920D0749
:1040D00060E272E08FE097E00E946E13C0931507D4
:1040E000D0931607D093170700931807D09219079B
:1040F000B0921B07A0921A0760E272E08CE197E091
:104100000E946E1310932207D0932307D0932407A5
:104110000093250780922607B0922807A0922707D0
:1041200060E272E089E297E00E946E1300932F072D
:10413000D0933007D093310700933207C0933307F1
:1041400052E6C52E59E0D52ED0923507C0923407DD
:1041500060E272E086E397E00E946E1310923C07E3
:10416000D0933D07D0933E0700933F07109340073D
:10417000D0924207C092410760E272E083E497E088
:104180000E946E13C0934907D0934A07D0934B0700
:1041900000934C0700934D07D0924F07C0924E07F3
:1041A00060E272E080E597E00E946E13109356077C
:1041B000D0935707D09358070093590710925A0786
:1041C000D0925C07C0925B0760E272E08DE597E0F9
:1041D0000E946E1300936307D0936407D093650722
:1041E000C093660787E080936707CC24CA9468E091
:1041F000D62ED0926907C092680760E272E08AE624
:1042000097E00E946E1310927007C0937107D093CD
:104210007207C093730790927407D0927607C0928A
:10422000750760E272E087E797E00E946E131093D3
:104230007D07C0937E07D0937F070093800783E1BB
:10424000809381077CEFC72E78E0D72ED09283072A
:10425000C092820760E272E084E897E00E946E13E9
:1042600010928A07C0938B07D0938C0710928D070A
:10427000EFE1BE2EB0928E07D0929007C0928F07CA
:1042800060E272E081E997E00E946E131093970755
:10429000C0939807D093990700939A0750929B0771
:1042A000FDEFCF2EF8E0DF2ED0929D07C0929C0745
:1042B00060E272E08EE997E00E946E131092A4070C
:1042C000C093A507D093A6070093A7078AE0809321
:1042D000A807D092AA07C092A90760E272E08BEA11
:1042E00097E00E946E131093B107C093B207D0936A
:1042F000B3070093B40784E18093B507AEEFCA2EED
:10430000A8E0DA2ED092B707C092B60760E272E05A
:1043100088EB97E00E946E131092BE07C093BF0710
:10432000D093C0070093C10787E08093C207D09263
:10433000C407C092C30760E272E085EC97E00E9478
:104340006E131093CB07C093CC07D093CD07109377
:10435000CE071092CF07B2E0CB2EB9E0DB2ED09281
:10436000D107C092D00760E272E082ED97E00E9430
:104370006E131092D807C093D907D093DA07109321
:10438000DB07C093DC07D092DE07C092DD0760E256
:1043900072E08FED97E00E946E131093E507C093D3
:1043A000E607D093E7071093E80782E18093E907D7
:1043B00083E0C82E89E0D82ED092EB07C092EA079E
:1043C00060E272E08CEE97E00E946E131092F207AA
:1043D000C093F307D093F4071093F50783E180931C
:1043E000F607D092F807C092F70760E272E089EF13
:1043F00097E00E946E131093FF07C0930008D093BC
:1044000001081093020810930308C12C99E0D92EDB
:10441000D0920508C092040860E272E086E098E05D
:104420000E946E1310920C08C0930D08D0930E08D2
:1044300010930F0800931008D0921208C092110830
:1044400060E272E083E198E00E946E131093190815
:10445000C0931A08D0931B0810931C088CE080931B
:104460001D08CC24C39429E0D22ED0921F08C092FC
:104470001E0860E272E080E298E00E946E131092E3
:104480002608C0932708D093280810932908E092A3
:104490002A08D0922C08C0922B0860E272E08DE2CC
:1044A00098E00E946E1310933308C0933408D093A1
:1044B0003508C0933608B092370835E1C32E39E08D
:1044C000D32ED0923908C092380860E272E08AE3B5
:1044D00098E00E946E1310924008C0934108D09358
:1044E0004208C09343088CE180934408D092460868
:1044F000C092450860E272E087E498E00E946E1383
:1045000010934D08C0934E08D0934F08C0935008A5
:104510008EE18093510846E1C42E49E0D42ED0921A
:104520005308C092520860E272E084E598E00E946D
:104530006E1310925A08C0935B08D0935C08C09326
:104540005D088DE180935E08D0926008C0925F089C
:1045500060E272E081E698E00E946E1310936708B3
:10456000C0936808D0936908C0936A0888E1809373
:104570006B0857E1C52E59E0D52ED0926D08C09238
:104580006C0860E272E08EE698E00E946E13109272
:104590007408C0937508D0937608C09377088BE1B0
:1045A00080937808D0927A08C092790860E272E02D
:1045B0008BE798E00E946E1310938108C0938208E5
:1045C000D0938308C093840889E18093850868E1CB
:1045D000C62E69E0D62ED0928708C092860860E287
:1045E00072E088E898E00E946E1310928E08C093E3
:1045F0008F08D0939008C09391088AE18093920825
:10460000D0929408C092930860E272E085E998E045
:104610000E946E1310939B08C0939C08D0939D0832
:1046200042E162E086E794E00E94F90A44E163E136
:104630008BE694E00E94F90AE6E7F4E0A5E3B4E033
:104640008E2D01900D928A95E1F76AEA72E080E47E
:1046500094E00E946E1379E1872E7CEF972EAA24B6
:10466000AA94BA2C8092460490924704A0924804DF
:10467000B09249046DEB72E08AE494E00E946E13FC
:10468000EBE6F4E0A0E5B4E001900D92EA94E1F7E6
:104690006AEC72E08BE594E00E946E1380926104F4
:1046A00090926204A0926304B09264046DEB72E095
:1046B00085E694E00E946E1380E290E090932B04D4
:1046C00080932A04F0922C0410922D0410922E0450
:1046D00010922F0410923004109231041092320480
:1046E000109233041092340488E190E090931C04FB
:1046F00080931B04F0921D0410921E0410921F045C
:10470000109220041092210410922204109223048B
:10471000109224041092250490930D0480930C04AD
:10472000F0920E0410920F041092100410921104D3
:104730001092120410921304109214041092150493
:1047400010921604909303048093020410920404C0
:104750001092050410920604109207049093FA0335
:104760008093F9031092FB031092FC031092FD0357
:104770001092FE0324E030E045E050E066E070E097
:104780008EE993E00E94950C2EE030E04DE050E081
:104790006FE070E086E493E00E94950C80E390E087
:1047A00090933103809330038FE290E09093330332
:1047B000809332038AE290E0909335038093340330
:1047C00088E290E0909337038093360361E080E3C2
:1047D0000E94700561E0809132030E94700561E0E3
:1047E000809134030E94700561E0809136030E943D
:1047F000700510922F0310922E0380EB94E0A0E03E
:10480000B0E080933E0390933F03A0934003B093A6
:10481000410380E090E19093390380933803109234
:104820003B0310923A0310923D0310923C03DF9138
:10483000CF911F910F91FF90EF90DF90CF90BF909D
:10484000AF909F908F907F906F905F904F903F9030
:104850002F900895CF93DF93CDB7DEB7A0970FB613
:10486000F894DEBF0FBECDBF789484B5826084BD5E
:1048700084B5816084BD85B5826085BD85B5816064
:1048800085BD80916E00816080936E0010928100E2
:10489000809181008260809381008091810081609D
:1048A000809381008091800081608093800080915E
:1048B000B10084608093B1008091B00081608093EA
:1048C000B00080919100826080939100809191006E
:1048D000816080939100809190008160809390002E
:1048E0008091A10082608093A1008091A1008160ED
:1048F0008093A1008091A00081608093A0008091AE
:104900002101826080932101809121018160809347
:1049100021018091200181608093200180917A00A3
:10492000846080937A0080917A00826080937A001C
:1049300080917A00816080937A0080917A0080680B
:1049400080937A001092C1000E94D5066093F40211
:104950007093F5028093F6029093F702609321031F
:1049600070932203809323039093240361E083E0F8
:104970000E9470058091ED029091EE020E94E20982
:1049800062E08DE20E9470058091F4039091F5033E
:104990001816190644F421E04CE070E060E08EE95E
:1049A00093E00E94670B80919C0390919D031816E1
:1049B000190644F421E04CE070E060E086E493E006
:1049C0000E94670B0091000210910102B8018EE96C
:1049D00093E00E94E80BB80186E493E00E94E80BA4
:1049E0001092200360E272E08CE093E00E9421329A
:1049F00060E272E088EF92E00E94213221E230E032
:104A000042E250E060E270E086E294E00E945C08DE
:104A100026E230E047E250E065E270E087E194E0B2
:104A20000E945C082CE230E041E350E06BE270E071
:104A300088E094E00E945C088AE08093FF0361E0D4
:104A40000E9470058BE08093000461E00E94700575
:104A50008CE08093010461E00E9470058FEF93E089
:104A60000E943D0C89E08093F60361E00E9470058E
:104A700087E08093F70361E00E94700588E08093EF
:104A8000F80361E00E94700586EF93E00E943D0C00
:104A900001E814E0FEE9EF2EF8E0FF2ED8018C913A
:104AA000811105C062E011968C910E947005035F30
:104AB0001F4FE016F10691F7E091100BF091110BEA
:104AC00082E08083E0910C0BF0910D0B1082E0915D
:104AD0000E0BF0910F0B80E180831092180BE09188
:104AE000140BF091150B86E08083E091120BF0918E
:104AF000130B808180618083E091120BF091130B86
:104B0000808188608083E091120BF091130B80818B
:104B100080688083E091120BF091130B80818F7D70
:104B200080836BE374E083E00E945F0F88E79FE07F
:104B30009093F60D8093F50D85E992E19093FA0D2F
:104B40008093F90D83E79FE09093FC0D8093FB0D1C
:104B50008FE29DE09093000E8093FF0D83E39DE034
:104B60009093020E8093010E86E096E19093040EDE
:104B70008093030E89EF9DE090930C0E80930B0EB3
:104B80008AE19EE090930E0E80930D0E86E29EE0E9
:104B90009093100E80930F0E8AE39EE09093120E76
:104BA0008093110ECC24CA94DC2C7601C0920404AC
:104BB000D0920504E0920604F09207048FEF93E090
:104BC0000E943D0CC092FB03D092FC03E092FD03D7
:104BD000F092FE0386EF93E00E943D0C70E060E0EF
:104BE0008FE59EE00E94E10620E0FC01408164E048
:104BF00070E08EE993E00E94C80B61E070E08FE501
:104C00009EE00E94E10620E0DC014C9163E070E050
:104C10008EE993E00E94C80B62E070E08FE59EE0B1
:104C20000E94E10620E0FC01408162E070E08EE934
:104C300093E00E94C80B63E070E08FE59EE00E9465
:104C4000E10620E0DC014C9161E070E08EE993E048
:104C50000E94C80B64E070E08FE59EE00E94E106D0
:104C600020E0FC01408170E060E08EE993E00E946A
:104C7000C80B70E060E089E59EE00E94E10620E05C
:104C8000DC014C9164E070E086E493E00E94C80B84
:104C900061E070E089E59EE00E94E10620E0FC0111
:104CA000408163E070E086E493E00E94C80B45E039
:104CB00062E070E086E493E00E94FA0B63E070E04B
:104CC00089E59EE00E94E10620E0DC014C9161E074
:104CD00070E086E493E00E94C80B64E070E089E530
:104CE0009EE00E94E10620E0FC01408170E060E06F
:104CF00086E493E00E94C80B68EE73E080E090E0E9
:104D00000E94A20670E060E08EE993E00E940E0C23
:104D100070E060E086E493E00E940E0C10920404C0
:104D20001092050410920604109207048FEF93E08E
:104D30000E943D0C1092FB031092FC031092FD03A5
:104D40001092FE0386EF93E00E943D0C81E090E01C
:104D50009093F1028093F0029E012F5F3F4F390143
:104D6000E6EE2E2EE2E03E2E0E94D10505E314E091
:104D7000F12CE12C58E1852E5CEF952E44244A94C9
:104D8000512CD801ED91FD918081ED91FD919081A3
:104D9000ED91FD916C9163708E2309F064609F2307
:104DA00009F06860EEEDF6E2E60FF11D6595659598
:104DB0006D936D917D918D919D91099423C01AC041
:104DC00012C016C010C01EC009C014C013C006C057
:104DD00019C009C00DC007C00DC014C0625070409A
:104DE000804090400BC0615070408040904006C0B1
:104DF0006E5F01C06F5F7F4F8F4F9F4F9E938E936B
:104E00007E936E93F80187819085A185B285418953
:104E10005289638974895A016B01F3E0AF0EB11CAA
:104E2000C11CD11CA816B906CA06DB060CF08CC141
:104E3000F801818B928BA38BB48B8091EF02882336
:104E400031F1B7016854744FCE014B960E940112A4
:104E5000BE01655E7F4FCE0145960E9439126CED12
:104E600072E0CE0145960E949D11BC01C3010E94D3
:104E70003912C3010E942B13C3010E946D11CE0190
:104E800045960E946D11CE014B960E946D11F1E086
:104E9000EF16F10409F010C587E10E940604892B82
:104EA00099F58091ED029091EE0208968F3F910561
:104EB00009F04CF49093EE028093ED0208C0EE24CA
:104EC000E394F12C5ECF5092EE024092ED0280917D
:104ED000ED029091EE020E94E2098091EF02882398
:104EE00099F06091ED027091EE02C3010E940112EF
:104EF000B3018CE00E945312C3010E946D11055E44
:104F00001F4FEA94EF28D9F60E94D506009121039D
:104F1000109122032091230330912403601B710B15
:104F2000820B930B633371058105910508F4AEC3C1
:104F300086E294E00E94760887E194E00E94760879
:104F400088E094E00E9476088091EF02882309F4BB
:104F500040C010E000E03DE0B32EAA24A394B09E30
:104F6000C001B19E900D11249C012F573B4F790138
:104F7000D90112968D919C91805D97408C32914021
:104F800008F03CC1C8010E94B70AF7012485022E2F
:104F9000000C330B8217130609F430C1C8010E94BC
:104FA000B70A811176C188E00E944A0FF701828119
:104FB00093810E94100FD7011A968C910E942E0F98
:104FC0000E94740EF70114860F5F1F4F0135110503
:104FD00034F287E10E940604892B09F035C386E18B
:104FE0000E940604892B09F02FC34EE464E070E0B0
:104FF0008EE993E00E94FA0B20E041E463E070E068
:105000008EE993E00E94C80B20E04CE462E070E07F
:105010008EE993E00E94C80B46E061E070E08EE903
:1050200093E00E94FA0B4FE170E060E08EE993E0BC
:105030000E94FA0B70E060E089E59EE00E94E106C4
:1050400020E0DC014C9164E070E086E493E00E9493
:10505000C80B61E070E089E59EE00E94E10620E077
:10506000FC01408163E070E086E493E00E94C80B9D
:1050700045E062E070E086E493E00E94FA0B63E0B2
:1050800070E089E59EE00E94E10620E0DC014C91A1
:1050900061E070E086E493E00E94C80B64E070E099
:1050A00089E59EE00E94E10620E0FC01408170E07D
:1050B00060E086E493E00E94C80B68EE73E080E055
:1050C00090E00E94A20680913C0390913D03892BC1
:1050D00009F475C180913C0390913D03892BE9F45B
:1050E0000E9433052AE030E030933D0320933C03D7
:1050F00080913B038F9380913A038F933F922F923D
:105100007F926F920E942832C3010E94A4130F90D5
:105110000F900F900F900F900F900E94D10587E194
:105120000E940604892B79F686E10E940604892BE9
:1051300051F64BC12FE030E0309301022093000282
:10514000CDC388EE93E0F7C343505109610971095B
:1051500084179507A607B7070CF0D1CEF801818B0D
:10516000928BA38BB48B8091EF02882331F1B7012E
:105170006854744FCE014B960E940112BE01655EC9
:105180007F4FCE0145960E94391262EE72E0CE0149
:1051900045960E949D11BC01C3010E943912C301B2
:1051A0000E942B13C3010E946D11CE0145960E94EF
:1051B0006D11CE014B960E946D11F1E0EF16F104D6
:1051C00009F01EC487E10E940604892B09F09CCED9
:1051D0008091ED029091EE02089797FF6BCE1092AE
:1051E000EE021092ED0273CE1092010210920002B4
:1051F00017C4909203028092020243C4B09EC00181
:10520000B19E900D11249C012F573B4F7901D9017C
:1052100012968D919C919C012C5F3840243631056B
:1052200008F0A0C06801BFEFCB1ADB0AC8010E94DA
:10523000B70AF7012485022E000C330B82171306E0
:10524000D9F1C8010E94B70A81114AC088E00E94C2
:105250004A0FB09EC001B19E900D11248C010F57D2
:105260001B4FD80112968D919C910E94100FF8014E
:1052700082850E942E0F0E94740ED8011C961C92EB
:10528000BC9CF001BD9CF00D1124EF57FB4FA48690
:1052900025C088E00E944A0FD70112968D919C91FB
:1052A0000E94100FF70183850E942E0F0E94740E3A
:1052B000D7011C96AC9288CEC6010E94B70ABC9C4E
:1052C000F001BD9CF00D1124EF57FB4F2485022EF9
:1052D000000C330B8217130609F0B3CF860174CE8E
:1052E000C6010E94B70A811122C088E00E944A0FBD
:1052F000BC9CC001BD9C900D1124FC01EF57FB4FDD
:105300007F01828193810E94100FD7011A968C91A0
:105310000E942E0F0E94740EB09EF001B19EF00DFF
:105320001124EF57FB4FA486F7011486D7CF88E0EE
:105330000E944A0FB09EC001B19E900D11248C01B5
:105340000F571B4FD80112968D919C910E94100F00
:10535000F80183850E942E0F0E94740ED8011C96BE
:10536000AC928ECF805699408536910508F02CCEB0
:10537000C8010E94B70AF7012485022E000C330BE6
:105380008217130609F420CEC8010E94B70A8111C2
:1053900013C088E00E944A0FD70112968D919C910C
:1053A0000E94100FF70182850E942E0F0E94740E3A
:1053B000D7011C961C9208CEF701A48605CE8DE27B
:1053C0000E940604892B09F485CE0E94330588ECDF
:1053D00090E090933D0380933C0380913C03909137
:1053E0003D03892B09F180913B038F9380913A0310
:1053F0008F933F922F927F926F920E942832C30127
:105400000E94A4130E94D10587E10E9406040F9018
:105410000F900F900F900F900F90892BF1F686E16F
:105420000E940604892BC9F680913C0390913D03AC
:10543000892B81F180913C0390913D03892BE9F404
:105440000E94330586EF9FEF90933D0380933C03CA
:1054500080913B038F9380913A038F933F922F92D9
:105460007F926F920E942832C3010E94A4130F9072
:105470000F900F900F900F900F900E94D10587E131
:105480000E940604892B81F686E10E940604892B7E
:1054900059F605C08DE20E940604019759F2109159
:1054A0003A0300913B031093F2020093F30220E0D1
:1054B00046E464E070E08EE993E00E94C80B20E0CF
:1054C0004FE663E070E08EE993E00E94C80B4CE188
:1054D00062E070E08EE993E00E94FA0B20E04EE675
:1054E00061E070E08EE993E00E94C80B20E044E6A2
:1054F00070E060E08EE993E00E94C80B0F931F9369
:105500008FED92E09F938F937F926F920E9428324B
:10551000C3010E94A41368EE73E080E090E00E9453
:10552000A206109205021092040290E080E00E9410
:10553000EC080F900F900F900F900F900F908091AC
:105540003C0390913D03892B09F10E94D105809184
:105550003D038F9380913C038F933F922F927F92D4
:105560006F920E942832C3010E94A41387E10E9417
:1055700006040F900F900F900F900F900F90892BB3
:10558000F1F686E10E940604892BC9F668EE73E005
:1055900080E090E00E94A2064EE364E070E08EE9B5
:1055A00093E00E94FA0B20E045E363E070E08EE9AF
:1055B00093E00E94C80B20E045E462E070E08EE9D1
:1055C00093E00E94C80B45E061E070E08EE993E053
:1055D0000E94FA0B20E040E270E060E08EE993E088
:1055E0000E94C80B809103028F93809102028F93D7
:1055F0008FED92E09F938F937F926F920E9428325B
:10560000C3010E94A41368EE73E080E090E00E9462
:10561000A20670E060E08EE993E00E940E0C70E05C
:1056200060E086E493E00E940E0C81E0809320030A
:1056300081E090E09093F1028093F0020F900F9040
:105640000F900F900F900F90809120038823A1F06E
:1056500087E10E940604019779F486E10E9406041E
:10566000019751F48CE093E00E94D51488EF92E00A
:105670000E94A413109220030E94D5066093210378
:105680007093220380932303909324030E94D506F2
:105690000091F4021091F5022091F6023091F70288
:1056A000601B710B820B930B613E73498440910523
:1056B00000F170E060E08EE993E00E940E0C70E073
:1056C00060E086E493E00E940E0C0E946A0C90E079
:1056D00080E00E94E20981E090E00E9445090E947A
:1056E000D5066093F4027093F5028093F6029093CE
:1056F000F702552453948091A40B8111DAC0809154
:10570000EE0D9091EF0DDC01ED91FC910084F1859F
:10571000E02D1995892B09F4CCC08091EE0D909164
:10572000EF0DDC01ED91FC910084F185E02D1995E0
:10573000C12C22E0D22E8115924064F48091EE0DAE
:105740009091EF0DDC01ED91FC910084F185E02D4D
:1057500019956C010091EE0D1091EF0D96EE892ECA
:105760009BE0992E5401F12CE12CCE14DF0409F0BA
:1057700062C010E000E0C016D10609F4BCCFD4012D
:105780009D914D011092E60D3091F20D2091A30BE9
:105790009093A30B931304C0921302C01092A30B17
:1057A00080919F0BE82FF0E04091F00DE356F44F0D
:1057B000941367C0321709F464C01186882321F05E
:1057C0005092E60D1092A30B10929F0B1092EA0DCF
:1057D0001092E90D1092EC0D1092EB0D5092E70D26
:1057E000F090E60DB1E0FB1261C00E944E038823E9
:1057F00009F451C0F092E70DF092E80D8091E90DA7
:105800009091EA0D0E94DD2D80939E0B823308F06B
:1058100047C02091E80D222309F442C0FC01FF2774
:10582000EE0FFF1FEB50F24F0190F081E02D30970B
:10583000B9F119953BC00E94D506F80160877187C0
:1058400082879387D801ED91FC910284F385E02D46
:10585000C801199597FF70C10E94D506F8012085EF
:10586000318542855385621B730B840B950B248114
:10587000358146815781621773078407950710F3B6
:1058800078CF91878F5F80939F0B9091A10B8917A1
:1058900008F09ACFA5CF1092E80D90E080E0B4CF49
:1058A000E091F30DF091F40D309719F60F5F1F4F53
:1058B00062CF0E942B0858CA86E10E940604892BF9
:1058C00051F580910002909101020196803191057D
:1058D0000CF030CC9093010280930002C090000243
:1058E000D0900102B6018EE993E00E94E80BB60168
:1058F00086E493E00E94E80B8091EF02882359F040
:10590000B601C3010E940112B3018BE00E94531241
:10591000C3010E946D1187E10E940604892B09F0E2
:10592000EECA80910202909103020196893E33E013
:1059300093070CF006CC90930302809302028091AF
:10594000EF02882371F06091020270910302C3019B
:105950000E940112B3018EE00E945312C3010E9403
:105960006D1180913C0390913D03892B11F00E94B1
:10597000580580910402909105020E94EC084EE3C4
:1059800064E070E08EE993E00E94FA0B20E045E3CA
:1059900063E070E08EE993E00E94C80B20E045E4EC
:1059A00062E070E08EE993E00E94C80B45E061E0A0
:1059B00070E08EE993E00E94FA0B20E040E270E094
:1059C00060E08EE993E00E94C80B809103028F9300
:1059D000809102028F93AFEDB2E0BF93AF937F92BD
:1059E0006F920E942832C3010E94A413F1E0F09349
:1059F00020030F900F900F900F900F900F907FCA81
:105A000086E10E940604892B41F580910002909165
:105A10000102019797FDE8CB909301028093000269
:105A2000C0900002D0900102B6018EE993E00E947E
:105A3000E80BB60186E493E00E94E80B8091EF0248
:105A4000882359F0B601C3010E940112B3018BE013
:105A50000E945312C3010E946D1187E10E94060447
:105A6000892B09F04CCA80910202909103020197A0
:105A700088312CEF92070CF4BCCB909303028093F7
:105A800002028091EF02882371F06091020270910E
:105A90000302C3010E940112B3018EE00E9453125F
:105AA000C3010E946D1180913C0390913D03892BAD
:105AB00011F00E94580580910402909105020E9405
:105AC000EC084EE364E070E08EE993E00E94FA0B8C
:105AD00020E045E363E070E08EE993E00E94C80BAC
